{
  "contractName": "StartupHeroCreator",
  "abi": [
    {
      "inputs": [],
      "stateMutability": "nonpayable",
      "type": "constructor"
    },
    {
      "anonymous": false,
      "inputs": [
        {
          "indexed": true,
          "internalType": "address",
          "name": "owner",
          "type": "address"
        },
        {
          "indexed": true,
          "internalType": "address",
          "name": "approved",
          "type": "address"
        },
        {
          "indexed": true,
          "internalType": "uint256",
          "name": "tokenId",
          "type": "uint256"
        }
      ],
      "name": "Approval",
      "type": "event"
    },
    {
      "anonymous": false,
      "inputs": [
        {
          "indexed": true,
          "internalType": "address",
          "name": "owner",
          "type": "address"
        },
        {
          "indexed": true,
          "internalType": "address",
          "name": "operator",
          "type": "address"
        },
        {
          "indexed": false,
          "internalType": "bool",
          "name": "approved",
          "type": "bool"
        }
      ],
      "name": "ApprovalForAll",
      "type": "event"
    },
    {
      "anonymous": false,
      "inputs": [
        {
          "indexed": false,
          "internalType": "uint256",
          "name": "_tid",
          "type": "uint256"
        },
        {
          "indexed": false,
          "internalType": "uint256",
          "name": "_current",
          "type": "uint256"
        },
        {
          "indexed": false,
          "internalType": "string",
          "name": "_uri",
          "type": "string"
        },
        {
          "indexed": false,
          "internalType": "uint256",
          "name": "_time",
          "type": "uint256"
        },
        {
          "indexed": false,
          "internalType": "bytes32",
          "name": "_note",
          "type": "bytes32"
        }
      ],
      "name": "NftMinted",
      "type": "event"
    },
    {
      "anonymous": false,
      "inputs": [
        {
          "indexed": false,
          "internalType": "string",
          "name": "_status",
          "type": "string"
        },
        {
          "indexed": false,
          "internalType": "uint256",
          "name": "_tid",
          "type": "uint256"
        },
        {
          "indexed": false,
          "internalType": "uint256",
          "name": "_current",
          "type": "uint256"
        },
        {
          "indexed": false,
          "internalType": "string",
          "name": "_uri",
          "type": "string"
        },
        {
          "indexed": false,
          "internalType": "uint256",
          "name": "_time",
          "type": "uint256"
        },
        {
          "indexed": false,
          "internalType": "bytes32",
          "name": "_note",
          "type": "bytes32"
        }
      ],
      "name": "NftStatus",
      "type": "event"
    },
    {
      "anonymous": false,
      "inputs": [
        {
          "indexed": true,
          "internalType": "address",
          "name": "from",
          "type": "address"
        },
        {
          "indexed": true,
          "internalType": "address",
          "name": "to",
          "type": "address"
        },
        {
          "indexed": true,
          "internalType": "uint256",
          "name": "tokenId",
          "type": "uint256"
        }
      ],
      "name": "Transfer",
      "type": "event"
    },
    {
      "inputs": [],
      "name": "admin",
      "outputs": [
        {
          "internalType": "address",
          "name": "",
          "type": "address"
        }
      ],
      "stateMutability": "view",
      "type": "function",
      "constant": true
    },
    {
      "inputs": [
        {
          "internalType": "address",
          "name": "to",
          "type": "address"
        },
        {
          "internalType": "uint256",
          "name": "tokenId",
          "type": "uint256"
        }
      ],
      "name": "approve",
      "outputs": [],
      "stateMutability": "nonpayable",
      "type": "function"
    },
    {
      "inputs": [
        {
          "internalType": "address",
          "name": "owner",
          "type": "address"
        }
      ],
      "name": "balanceOf",
      "outputs": [
        {
          "internalType": "uint256",
          "name": "",
          "type": "uint256"
        }
      ],
      "stateMutability": "view",
      "type": "function",
      "constant": true
    },
    {
      "inputs": [],
      "name": "currentSeries",
      "outputs": [
        {
          "components": [
            {
              "internalType": "uint256",
              "name": "_value",
              "type": "uint256"
            }
          ],
          "internalType": "struct Counters.Counter",
          "name": "active",
          "type": "tuple"
        },
        {
          "components": [
            {
              "internalType": "uint256",
              "name": "_value",
              "type": "uint256"
            }
          ],
          "internalType": "struct Counters.Counter",
          "name": "count",
          "type": "tuple"
        }
      ],
      "stateMutability": "view",
      "type": "function",
      "constant": true
    },
    {
      "inputs": [],
      "name": "currentSupply",
      "outputs": [
        {
          "internalType": "uint256",
          "name": "_value",
          "type": "uint256"
        }
      ],
      "stateMutability": "view",
      "type": "function",
      "constant": true
    },
    {
      "inputs": [
        {
          "internalType": "uint256",
          "name": "tokenId",
          "type": "uint256"
        }
      ],
      "name": "getApproved",
      "outputs": [
        {
          "internalType": "address",
          "name": "",
          "type": "address"
        }
      ],
      "stateMutability": "view",
      "type": "function",
      "constant": true
    },
    {
      "inputs": [
        {
          "internalType": "address",
          "name": "owner",
          "type": "address"
        },
        {
          "internalType": "address",
          "name": "operator",
          "type": "address"
        }
      ],
      "name": "isApprovedForAll",
      "outputs": [
        {
          "internalType": "bool",
          "name": "",
          "type": "bool"
        }
      ],
      "stateMutability": "view",
      "type": "function",
      "constant": true
    },
    {
      "inputs": [],
      "name": "name",
      "outputs": [
        {
          "internalType": "string",
          "name": "",
          "type": "string"
        }
      ],
      "stateMutability": "view",
      "type": "function",
      "constant": true
    },
    {
      "inputs": [
        {
          "internalType": "uint256",
          "name": "tokenId",
          "type": "uint256"
        }
      ],
      "name": "ownerOf",
      "outputs": [
        {
          "internalType": "address",
          "name": "",
          "type": "address"
        }
      ],
      "stateMutability": "view",
      "type": "function",
      "constant": true
    },
    {
      "inputs": [
        {
          "internalType": "address",
          "name": "from",
          "type": "address"
        },
        {
          "internalType": "address",
          "name": "to",
          "type": "address"
        },
        {
          "internalType": "uint256",
          "name": "tokenId",
          "type": "uint256"
        }
      ],
      "name": "safeTransferFrom",
      "outputs": [],
      "stateMutability": "nonpayable",
      "type": "function"
    },
    {
      "inputs": [
        {
          "internalType": "address",
          "name": "from",
          "type": "address"
        },
        {
          "internalType": "address",
          "name": "to",
          "type": "address"
        },
        {
          "internalType": "uint256",
          "name": "tokenId",
          "type": "uint256"
        },
        {
          "internalType": "bytes",
          "name": "_data",
          "type": "bytes"
        }
      ],
      "name": "safeTransferFrom",
      "outputs": [],
      "stateMutability": "nonpayable",
      "type": "function"
    },
    {
      "inputs": [
        {
          "internalType": "address",
          "name": "operator",
          "type": "address"
        },
        {
          "internalType": "bool",
          "name": "approved",
          "type": "bool"
        }
      ],
      "name": "setApprovalForAll",
      "outputs": [],
      "stateMutability": "nonpayable",
      "type": "function"
    },
    {
      "inputs": [
        {
          "internalType": "bytes4",
          "name": "interfaceId",
          "type": "bytes4"
        }
      ],
      "name": "supportsInterface",
      "outputs": [
        {
          "internalType": "bool",
          "name": "",
          "type": "bool"
        }
      ],
      "stateMutability": "view",
      "type": "function",
      "constant": true
    },
    {
      "inputs": [],
      "name": "symbol",
      "outputs": [
        {
          "internalType": "string",
          "name": "",
          "type": "string"
        }
      ],
      "stateMutability": "view",
      "type": "function",
      "constant": true
    },
    {
      "inputs": [
        {
          "internalType": "uint256",
          "name": "tokenId",
          "type": "uint256"
        }
      ],
      "name": "tokenURI",
      "outputs": [
        {
          "internalType": "string",
          "name": "",
          "type": "string"
        }
      ],
      "stateMutability": "view",
      "type": "function",
      "constant": true
    },
    {
      "inputs": [],
      "name": "totalSupply",
      "outputs": [
        {
          "internalType": "uint256",
          "name": "",
          "type": "uint256"
        }
      ],
      "stateMutability": "view",
      "type": "function",
      "constant": true
    },
    {
      "inputs": [
        {
          "internalType": "address",
          "name": "from",
          "type": "address"
        },
        {
          "internalType": "address",
          "name": "to",
          "type": "address"
        },
        {
          "internalType": "uint256",
          "name": "tokenId",
          "type": "uint256"
        }
      ],
      "name": "transferFrom",
      "outputs": [],
      "stateMutability": "nonpayable",
      "type": "function"
    },
    {
      "inputs": [
        {
          "internalType": "address",
          "name": "to",
          "type": "address"
        },
        {
          "internalType": "uint256",
          "name": "tid",
          "type": "uint256"
        }
      ],
      "name": "mint",
      "outputs": [],
      "stateMutability": "nonpayable",
      "type": "function"
    },
    {
      "inputs": [
        {
          "internalType": "address",
          "name": "to",
          "type": "address"
        },
        {
          "internalType": "uint256",
          "name": "tid",
          "type": "uint256"
        }
      ],
      "name": "merge",
      "outputs": [],
      "stateMutability": "nonpayable",
      "type": "function"
    },
    {
      "inputs": [
        {
          "internalType": "uint256",
          "name": "tokenId",
          "type": "uint256"
        },
        {
          "internalType": "uint8",
          "name": "_artist",
          "type": "uint8"
        },
        {
          "internalType": "uint8",
          "name": "_hacker",
          "type": "uint8"
        },
        {
          "internalType": "uint8",
          "name": "_hustler",
          "type": "uint8"
        },
        {
          "internalType": "uint8",
          "name": "_success",
          "type": "uint8"
        }
      ],
      "name": "burn",
      "outputs": [],
      "stateMutability": "nonpayable",
      "type": "function"
    },
    {
      "inputs": [
        {
          "internalType": "address",
          "name": "newMember",
          "type": "address"
        },
        {
          "internalType": "string",
          "name": "newMemberName",
          "type": "string"
        }
      ],
      "name": "addToCollective",
      "outputs": [],
      "stateMutability": "nonpayable",
      "type": "function"
    },
    {
      "inputs": [
        {
          "internalType": "uint256",
          "name": "index",
          "type": "uint256"
        }
      ],
      "name": "getToken",
      "outputs": [
        {
          "internalType": "uint256",
          "name": "",
          "type": "uint256"
        }
      ],
      "stateMutability": "view",
      "type": "function",
      "constant": true
    },
    {
      "inputs": [],
      "name": "getAttributes",
      "outputs": [
        {
          "components": [
            {
              "internalType": "uint8",
              "name": "artist",
              "type": "uint8"
            },
            {
              "internalType": "uint8",
              "name": "hacker",
              "type": "uint8"
            },
            {
              "internalType": "uint8",
              "name": "hustler",
              "type": "uint8"
            },
            {
              "internalType": "uint8",
              "name": "success",
              "type": "uint8"
            }
          ],
          "internalType": "struct StartupHeroCreator.Attributes",
          "name": "",
          "type": "tuple"
        }
      ],
      "stateMutability": "view",
      "type": "function",
      "constant": true
    }
  ],
  "bytecode": "0x60806040523480156200001157600080fd5b506040518060400160405280600c81526020017f53746172747570204865726f00000000000000000000000000000000000000008152506040518060400160405280600381526020017f53555000000000000000000000000000000000000000000000000000000000008152508160009080519060200190620000969291906200025f565b508060019080519060200190620000af9291906200025f565b50505033600760006101000a81548173ffffffffffffffffffffffffffffffffffffffff021916908373ffffffffffffffffffffffffffffffffffffffff1602179055506127106008819055506040518060400160405280600881526020017f54686520426f7373000000000000000000000000000000000000000000000000815250600e6000600760009054906101000a900473ffffffffffffffffffffffffffffffffffffffff1673ffffffffffffffffffffffffffffffffffffffff1673ffffffffffffffffffffffffffffffffffffffff1681526020019081526020016000206000019080519060200190620001ab9291906200025f565b506001600e6000600760009054906101000a900473ffffffffffffffffffffffffffffffffffffffff1673ffffffffffffffffffffffffffffffffffffffff1673ffffffffffffffffffffffffffffffffffffffff16815260200190815260200160002060020160006101000a81548160ff02191690831515021790555062000243600a6000016200024960201b6200180a1760201c565b62000374565b6001816000016000828254019250508190555050565b8280546200026d906200033e565b90600052602060002090601f016020900481019282620002915760008555620002dd565b82601f10620002ac57805160ff1916838001178555620002dd565b82800160010185558215620002dd579182015b82811115620002dc578251825591602001919060010190620002bf565b5b509050620002ec9190620002f0565b5090565b5b808211156200030b576000816000905550600101620002f1565b5090565b7f4e487b7100000000000000000000000000000000000000000000000000000000600052602260045260246000fd5b600060028204905060018216806200035757607f821691505b602082108114156200036e576200036d6200030f565b5b50919050565b613b1d80620003846000396000f3fe608060405234801561001057600080fd5b506004361061014d5760003560e01c80636352211e116100c3578063b88d4fde1161007c578063b88d4fde1461038b578063c3f640bf146103a7578063c87b56dd146103c3578063e4b50cb8146103f3578063e985e9c514610423578063f851a440146104535761014d565b80636352211e146102b757806370a08231146102e7578063771282f61461031757806395d89b411461033557806396c71c0114610353578063a22cb4651461036f5761014d565b806317a4cf491161011557806317a4cf491461020a57806318160ddd1461022657806323b872dd1461024457806340c10f191461026057806342842e0e1461027c5780635caa0dec146102985761014d565b806301ffc9a71461015257806306fdde0314610182578063081812fc146101a0578063095ea7b3146101d0578063152583de146101ec575b600080fd5b61016c60048036038101906101679190612541565b610471565b6040516101799190612589565b60405180910390f35b61018a610553565b604051610197919061263d565b60405180910390f35b6101ba60048036038101906101b59190612695565b6105e5565b6040516101c79190612703565b60405180910390f35b6101ea60048036038101906101e5919061274a565b61066a565b005b6101f4610782565b60405161020191906127fb565b60405180910390f35b610224600480360381019061021f919061274a565b61084d565b005b61022e610a5d565b60405161023b9190612825565b60405180910390f35b61025e60048036038101906102599190612840565b610a63565b005b61027a6004803603810190610275919061274a565b610ac3565b005b61029660048036038101906102919190612840565b610dcd565b005b6102a0610ded565b6040516102ae9291906128be565b60405180910390f35b6102d160048036038101906102cc9190612695565b610e27565b6040516102de9190612703565b60405180910390f35b61030160048036038101906102fc91906128e7565b610ed9565b60405161030e9190612825565b60405180910390f35b61031f610f91565b60405161032c9190612825565b60405180910390f35b61033d610f9d565b60405161034a919061263d565b60405180910390f35b61036d60048036038101906103689190612940565b61102f565b005b610389600480360381019061038491906129e7565b61131f565b005b6103a560048036038101906103a09190612b5c565b6114a0565b005b6103c160048036038101906103bc9190612c3f565b611502565b005b6103dd60048036038101906103d89190612695565b611644565b6040516103ea919061263d565b60405180910390f35b61040d60048036038101906104089190612695565b6116eb565b60405161041a9190612825565b60405180910390f35b61043d60048036038101906104389190612c9f565b611750565b60405161044a9190612589565b60405180910390f35b61045b6117e4565b6040516104689190612703565b60405180910390f35b60007f80ac58cd000000000000000000000000000000000000000000000000000000007bffffffffffffffffffffffffffffffffffffffffffffffffffffffff1916827bffffffffffffffffffffffffffffffffffffffffffffffffffffffff1916148061053c57507f5b5e139f000000000000000000000000000000000000000000000000000000007bffffffffffffffffffffffffffffffffffffffffffffffffffffffff1916827bffffffffffffffffffffffffffffffffffffffffffffffffffffffff1916145b8061054c575061054b82611820565b5b9050919050565b60606000805461056290612d0e565b80601f016020809104026020016040519081016040528092919081815260200182805461058e90612d0e565b80156105db5780601f106105b0576101008083540402835291602001916105db565b820191906000526020600020905b8154815290600101906020018083116105be57829003601f168201915b5050505050905090565b60006105f08261188a565b61062f576040517f08c379a000000000000000000000000000000000000000000000000000000000815260040161062690612db2565b60405180910390fd5b6004600083815260200190815260200160002060009054906101000a900473ffffffffffffffffffffffffffffffffffffffff169050919050565b600061067582610e27565b90508073ffffffffffffffffffffffffffffffffffffffff168373ffffffffffffffffffffffffffffffffffffffff1614156106e6576040517f08c379a00000000000000000000000000000000000000000000000000000000081526004016106dd90612e44565b60405180910390fd5b8073ffffffffffffffffffffffffffffffffffffffff166107056118f6565b73ffffffffffffffffffffffffffffffffffffffff16148061073457506107338161072e6118f6565b611750565b5b610773576040517f08c379a000000000000000000000000000000000000000000000000000000000815260040161076a90612ed6565b60405180910390fd5b61077d83836118fe565b505050565b61078a6123fe565b600c60003373ffffffffffffffffffffffffffffffffffffffff1673ffffffffffffffffffffffffffffffffffffffff1681526020019081526020016000206040518060800160405290816000820160009054906101000a900460ff1660ff1660ff1681526020016000820160019054906101000a900460ff1660ff1660ff1681526020016000820160029054906101000a900460ff1660ff1660ff1681526020016000820160039054906101000a900460ff1660ff1660ff1681525050905090565b610857600661180a565b61086182826119b7565b600061086c82611644565b90506000429050600061087f60066119d5565b905060007f4d657267696e672068617320636f6d706c657465642e0000000000000000000090506000600c60003373ffffffffffffffffffffffffffffffffffffffff1673ffffffffffffffffffffffffffffffffffffffff16815260200190815260200160002060000160006101000a81548160ff021916908360ff1602179055506000600c60003373ffffffffffffffffffffffffffffffffffffffff1673ffffffffffffffffffffffffffffffffffffffff16815260200190815260200160002060000160016101000a81548160ff021916908360ff1602179055506000600c60003373ffffffffffffffffffffffffffffffffffffffff1673ffffffffffffffffffffffffffffffffffffffff16815260200190815260200160002060000160026101000a81548160ff021916908360ff1602179055506000600c60003373ffffffffffffffffffffffffffffffffffffffff1673ffffffffffffffffffffffffffffffffffffffff16815260200190815260200160002060000160036101000a81548160ff021916908360ff1602179055507f90cc54bb734fca00043377a7e3bd86f3d4bee273a12f901cf4f26d72755cbd118583868685604051610a4d959493929190612f5b565b60405180910390a1505050505050565b60085481565b610a74610a6e6118f6565b826119e3565b610ab3576040517f08c379a0000000000000000000000000000000000000000000000000000000008152600401610aaa9061303a565b60405180910390fd5b610abe838383611ac1565b505050565b600854610ad060096119d5565b10610b10576040517f08c379a0000000000000000000000000000000000000000000000000000000008152600401610b07906130a6565b60405180910390fd5b610b1a600661180a565b6000610b2660066119d5565b9050600d60003373ffffffffffffffffffffffffffffffffffffffff1673ffffffffffffffffffffffffffffffffffffffff168152602001908152602001600020829080600181540180825580915050600190039060005260206000200160009091909190915055610b9b600a60010161180a565b6005610baa600a6001016119d5565b1115610bcb57610bbd600a60000161180a565b610bca600a600101611d1d565b5b6000600c60003373ffffffffffffffffffffffffffffffffffffffff1673ffffffffffffffffffffffffffffffffffffffff16815260200190815260200160002060000160006101000a81548160ff021916908360ff1602179055506000600c60003373ffffffffffffffffffffffffffffffffffffffff1673ffffffffffffffffffffffffffffffffffffffff16815260200190815260200160002060000160016101000a81548160ff021916908360ff1602179055506000600c60003373ffffffffffffffffffffffffffffffffffffffff1673ffffffffffffffffffffffffffffffffffffffff16815260200190815260200160002060000160026101000a81548160ff021916908360ff1602179055506000600c60003373ffffffffffffffffffffffffffffffffffffffff1673ffffffffffffffffffffffffffffffffffffffff16815260200190815260200160002060000160036101000a81548160ff021916908360ff160217905550610d45600961180a565b610d4f83836119b7565b6000610d5a83611644565b9050600042905060007f4e465420686173206265656e206d696e7465642e00000000000000000000000090507fbc83ebe4fb5b526a6a44328b8cac55634e74844c44b866f58a44d21e19fc60bc8585858585604051610dbd9594939291906130c6565b60405180910390a1505050505050565b610de8838383604051806020016040528060008152506114a0565b505050565b600a806000016040518060200160405290816000820154815250509080600101604051806020016040529081600082015481525050905082565b6000806002600084815260200190815260200160002060009054906101000a900473ffffffffffffffffffffffffffffffffffffffff169050600073ffffffffffffffffffffffffffffffffffffffff168173ffffffffffffffffffffffffffffffffffffffff161415610ed0576040517f08c379a0000000000000000000000000000000000000000000000000000000008152600401610ec790613192565b60405180910390fd5b80915050919050565b60008073ffffffffffffffffffffffffffffffffffffffff168273ffffffffffffffffffffffffffffffffffffffff161415610f4a576040517f08c379a0000000000000000000000000000000000000000000000000000000008152600401610f4190613224565b60405180910390fd5b600360008373ffffffffffffffffffffffffffffffffffffffff1673ffffffffffffffffffffffffffffffffffffffff168152602001908152602001600020549050919050565b60098060000154905081565b606060018054610fac90612d0e565b80601f0160208091040260200160405190810160405280929190818152602001828054610fd890612d0e565b80156110255780601f10610ffa57610100808354040283529160200191611025565b820191906000526020600020905b81548152906001019060200180831161100857829003601f168201915b5050505050905090565b600760009054906101000a900473ffffffffffffffffffffffffffffffffffffffff1673ffffffffffffffffffffffffffffffffffffffff163373ffffffffffffffffffffffffffffffffffffffff16146110bf576040517f08c379a00000000000000000000000000000000000000000000000000000000081526004016110b690613290565b60405180910390fd5b83600c60003373ffffffffffffffffffffffffffffffffffffffff1673ffffffffffffffffffffffffffffffffffffffff16815260200190815260200160002060000160008282829054906101000a900460ff1661111d91906132df565b92506101000a81548160ff021916908360ff16021790555082600c60003373ffffffffffffffffffffffffffffffffffffffff1673ffffffffffffffffffffffffffffffffffffffff16815260200190815260200160002060000160018282829054906101000a900460ff1661119391906132df565b92506101000a81548160ff021916908360ff16021790555081600c60003373ffffffffffffffffffffffffffffffffffffffff1673ffffffffffffffffffffffffffffffffffffffff16815260200190815260200160002060000160028282829054906101000a900460ff1661120991906132df565b92506101000a81548160ff021916908360ff16021790555080600c60003373ffffffffffffffffffffffffffffffffffffffff1673ffffffffffffffffffffffffffffffffffffffff16815260200190815260200160002060000160038282829054906101000a900460ff1661127f91906132df565b92506101000a81548160ff021916908360ff160217905550600042905060006112a860066119d5565b905060007f5468697320746f6b656e20686173206265656e206275726e65642e000000000090506112d888611d2a565b7f90cc54bb734fca00043377a7e3bd86f3d4bee273a12f901cf4f26d72755cbd118883858460405161130d9493929190613388565b60405180910390a15050505050505050565b6113276118f6565b73ffffffffffffffffffffffffffffffffffffffff168273ffffffffffffffffffffffffffffffffffffffff161415611395576040517f08c379a000000000000000000000000000000000000000000000000000000000815260040161138c9061343f565b60405180910390fd5b80600560006113a26118f6565b73ffffffffffffffffffffffffffffffffffffffff1673ffffffffffffffffffffffffffffffffffffffff16815260200190815260200160002060008473ffffffffffffffffffffffffffffffffffffffff1673ffffffffffffffffffffffffffffffffffffffff16815260200190815260200160002060006101000a81548160ff0219169083151502179055508173ffffffffffffffffffffffffffffffffffffffff1661144f6118f6565b73ffffffffffffffffffffffffffffffffffffffff167f17307eab39ab6107e8899845ad3d59bd9653f200f220920489ca2b5937696c31836040516114949190612589565b60405180910390a35050565b6114b16114ab6118f6565b836119e3565b6114f0576040517f08c379a00000000000000000000000000000000000000000000000000000000081526004016114e79061303a565b60405180910390fd5b6114fc84848484611e3b565b50505050565b600760009054906101000a900473ffffffffffffffffffffffffffffffffffffffff1673ffffffffffffffffffffffffffffffffffffffff163373ffffffffffffffffffffffffffffffffffffffff1614611592576040517f08c379a000000000000000000000000000000000000000000000000000000000815260040161158990613290565b60405180910390fd5b8181600e60008673ffffffffffffffffffffffffffffffffffffffff1673ffffffffffffffffffffffffffffffffffffffff16815260200190815260200160002060000191906115e3929190612432565b506001600e60008573ffffffffffffffffffffffffffffffffffffffff1673ffffffffffffffffffffffffffffffffffffffff16815260200190815260200160002060020160006101000a81548160ff021916908315150217905550505050565b606061164f8261188a565b61168e576040517f08c379a0000000000000000000000000000000000000000000000000000000008152600401611685906134d1565b60405180910390fd5b6000611698611e97565b905060008151116116b857604051806020016040528060008152506116e3565b806116c284611ed4565b6040516020016116d392919061352d565b6040516020818303038152906040525b915050919050565b6000600d60003373ffffffffffffffffffffffffffffffffffffffff1673ffffffffffffffffffffffffffffffffffffffff168152602001908152602001600020828154811061173e5761173d613551565b5b90600052602060002001549050919050565b6000600560008473ffffffffffffffffffffffffffffffffffffffff1673ffffffffffffffffffffffffffffffffffffffff16815260200190815260200160002060008373ffffffffffffffffffffffffffffffffffffffff1673ffffffffffffffffffffffffffffffffffffffff16815260200190815260200160002060009054906101000a900460ff16905092915050565b600760009054906101000a900473ffffffffffffffffffffffffffffffffffffffff1681565b6001816000016000828254019250508190555050565b60007f01ffc9a7000000000000000000000000000000000000000000000000000000007bffffffffffffffffffffffffffffffffffffffffffffffffffffffff1916827bffffffffffffffffffffffffffffffffffffffffffffffffffffffff1916149050919050565b60008073ffffffffffffffffffffffffffffffffffffffff166002600084815260200190815260200160002060009054906101000a900473ffffffffffffffffffffffffffffffffffffffff1673ffffffffffffffffffffffffffffffffffffffff1614159050919050565b600033905090565b816004600083815260200190815260200160002060006101000a81548173ffffffffffffffffffffffffffffffffffffffff021916908373ffffffffffffffffffffffffffffffffffffffff160217905550808273ffffffffffffffffffffffffffffffffffffffff1661197183610e27565b73ffffffffffffffffffffffffffffffffffffffff167f8c5be1e5ebec7d5bd14f71427d1e84f3dd0314c0f7b2291e5b200ac8c7c3b92560405160405180910390a45050565b6119d1828260405180602001604052806000815250612035565b5050565b600081600001549050919050565b60006119ee8261188a565b611a2d576040517f08c379a0000000000000000000000000000000000000000000000000000000008152600401611a24906135f2565b60405180910390fd5b6000611a3883610e27565b90508073ffffffffffffffffffffffffffffffffffffffff168473ffffffffffffffffffffffffffffffffffffffff161480611aa757508373ffffffffffffffffffffffffffffffffffffffff16611a8f846105e5565b73ffffffffffffffffffffffffffffffffffffffff16145b80611ab85750611ab78185611750565b5b91505092915050565b8273ffffffffffffffffffffffffffffffffffffffff16611ae182610e27565b73ffffffffffffffffffffffffffffffffffffffff1614611b37576040517f08c379a0000000000000000000000000000000000000000000000000000000008152600401611b2e90613684565b60405180910390fd5b600073ffffffffffffffffffffffffffffffffffffffff168273ffffffffffffffffffffffffffffffffffffffff161415611ba7576040517f08c379a0000000000000000000000000000000000000000000000000000000008152600401611b9e90613716565b60405180910390fd5b611bb2838383612090565b611bbd6000826118fe565b6001600360008573ffffffffffffffffffffffffffffffffffffffff1673ffffffffffffffffffffffffffffffffffffffff1681526020019081526020016000206000828254611c0d9190613736565b925050819055506001600360008473ffffffffffffffffffffffffffffffffffffffff1673ffffffffffffffffffffffffffffffffffffffff1681526020019081526020016000206000828254611c64919061376a565b92505081905550816002600083815260200190815260200160002060006101000a81548173ffffffffffffffffffffffffffffffffffffffff021916908373ffffffffffffffffffffffffffffffffffffffff160217905550808273ffffffffffffffffffffffffffffffffffffffff168473ffffffffffffffffffffffffffffffffffffffff167fddf252ad1be2c89b69c2b068fc378daa952ba7f163c4a11628f55a4df523b3ef60405160405180910390a4505050565b6000816000018190555050565b6000611d3582610e27565b9050611d4381600084612090565b611d4e6000836118fe565b6001600360008373ffffffffffffffffffffffffffffffffffffffff1673ffffffffffffffffffffffffffffffffffffffff1681526020019081526020016000206000828254611d9e9190613736565b925050819055506002600083815260200190815260200160002060006101000a81549073ffffffffffffffffffffffffffffffffffffffff021916905581600073ffffffffffffffffffffffffffffffffffffffff168273ffffffffffffffffffffffffffffffffffffffff167fddf252ad1be2c89b69c2b068fc378daa952ba7f163c4a11628f55a4df523b3ef60405160405180910390a45050565b611e46848484611ac1565b611e5284848484612095565b611e91576040517f08c379a0000000000000000000000000000000000000000000000000000000008152600401611e8890613832565b60405180910390fd5b50505050565b60606040518060400160405280601a81526020017f687474703a2f2f6c6f63616c686f73743a353030302f6e66742f000000000000815250905090565b60606000821415611f1c576040518060400160405280600181526020017f30000000000000000000000000000000000000000000000000000000000000008152509050612030565b600082905060005b60008214611f4e578080611f3790613852565b915050600a82611f4791906138ca565b9150611f24565b60008167ffffffffffffffff811115611f6a57611f69612a31565b5b6040519080825280601f01601f191660200182016040528015611f9c5781602001600182028036833780820191505090505b5090505b6000851461202957600182611fb59190613736565b9150600a85611fc491906138fb565b6030611fd0919061376a565b60f81b818381518110611fe657611fe5613551565b5b60200101907effffffffffffffffffffffffffffffffffffffffffffffffffffffffffffff1916908160001a905350600a8561202291906138ca565b9450611fa0565b8093505050505b919050565b61203f838361221d565b61204c6000848484612095565b61208b576040517f08c379a000000000000000000000000000000000000000000000000000000000815260040161208290613832565b60405180910390fd5b505050565b505050565b60006120b68473ffffffffffffffffffffffffffffffffffffffff166123eb565b15612210578373ffffffffffffffffffffffffffffffffffffffff1663150b7a026120df6118f6565b8786866040518563ffffffff1660e01b81526004016121019493929190613981565b6020604051808303816000875af192505050801561213d57506040513d601f19601f8201168201806040525081019061213a91906139e2565b60015b6121c0573d806000811461216d576040519150601f19603f3d011682016040523d82523d6000602084013e612172565b606091505b506000815114156121b8576040517f08c379a00000000000000000000000000000000000000000000000000000000081526004016121af90613832565b60405180910390fd5b805181602001fd5b63150b7a0260e01b7bffffffffffffffffffffffffffffffffffffffffffffffffffffffff1916817bffffffffffffffffffffffffffffffffffffffffffffffffffffffff191614915050612215565b600190505b949350505050565b600073ffffffffffffffffffffffffffffffffffffffff168273ffffffffffffffffffffffffffffffffffffffff16141561228d576040517f08c379a000000000000000000000000000000000000000000000000000000000815260040161228490613a5b565b60405180910390fd5b6122968161188a565b156122d6576040517f08c379a00000000000000000000000000000000000000000000000000000000081526004016122cd90613ac7565b60405180910390fd5b6122e260008383612090565b6001600360008473ffffffffffffffffffffffffffffffffffffffff1673ffffffffffffffffffffffffffffffffffffffff1681526020019081526020016000206000828254612332919061376a565b92505081905550816002600083815260200190815260200160002060006101000a81548173ffffffffffffffffffffffffffffffffffffffff021916908373ffffffffffffffffffffffffffffffffffffffff160217905550808273ffffffffffffffffffffffffffffffffffffffff16600073ffffffffffffffffffffffffffffffffffffffff167fddf252ad1be2c89b69c2b068fc378daa952ba7f163c4a11628f55a4df523b3ef60405160405180910390a45050565b600080823b905060008111915050919050565b6040518060800160405280600060ff168152602001600060ff168152602001600060ff168152602001600060ff1681525090565b82805461243e90612d0e565b90600052602060002090601f01602090048101928261246057600085556124a7565b82601f1061247957803560ff19168380011785556124a7565b828001600101855582156124a7579182015b828111156124a657823582559160200191906001019061248b565b5b5090506124b491906124b8565b5090565b5b808211156124d15760008160009055506001016124b9565b5090565b6000604051905090565b600080fd5b600080fd5b60007fffffffff0000000000000000000000000000000000000000000000000000000082169050919050565b61251e816124e9565b811461252957600080fd5b50565b60008135905061253b81612515565b92915050565b600060208284031215612557576125566124df565b5b60006125658482850161252c565b91505092915050565b60008115159050919050565b6125838161256e565b82525050565b600060208201905061259e600083018461257a565b92915050565b600081519050919050565b600082825260208201905092915050565b60005b838110156125de5780820151818401526020810190506125c3565b838111156125ed576000848401525b50505050565b6000601f19601f8301169050919050565b600061260f826125a4565b61261981856125af565b93506126298185602086016125c0565b612632816125f3565b840191505092915050565b600060208201905081810360008301526126578184612604565b905092915050565b6000819050919050565b6126728161265f565b811461267d57600080fd5b50565b60008135905061268f81612669565b92915050565b6000602082840312156126ab576126aa6124df565b5b60006126b984828501612680565b91505092915050565b600073ffffffffffffffffffffffffffffffffffffffff82169050919050565b60006126ed826126c2565b9050919050565b6126fd816126e2565b82525050565b600060208201905061271860008301846126f4565b92915050565b612727816126e2565b811461273257600080fd5b50565b6000813590506127448161271e565b92915050565b60008060408385031215612761576127606124df565b5b600061276f85828601612735565b925050602061278085828601612680565b9150509250929050565b600060ff82169050919050565b6127a08161278a565b82525050565b6080820160008201516127bc6000850182612797565b5060208201516127cf6020850182612797565b5060408201516127e26040850182612797565b5060608201516127f56060850182612797565b50505050565b600060808201905061281060008301846127a6565b92915050565b61281f8161265f565b82525050565b600060208201905061283a6000830184612816565b92915050565b600080600060608486031215612859576128586124df565b5b600061286786828701612735565b935050602061287886828701612735565b925050604061288986828701612680565b9150509250925092565b61289c8161265f565b82525050565b6020820160008201516128b86000850182612893565b50505050565b60006040820190506128d360008301856128a2565b6128e060208301846128a2565b9392505050565b6000602082840312156128fd576128fc6124df565b5b600061290b84828501612735565b91505092915050565b61291d8161278a565b811461292857600080fd5b50565b60008135905061293a81612914565b92915050565b600080600080600060a0868803121561295c5761295b6124df565b5b600061296a88828901612680565b955050602061297b8882890161292b565b945050604061298c8882890161292b565b935050606061299d8882890161292b565b92505060806129ae8882890161292b565b9150509295509295909350565b6129c48161256e565b81146129cf57600080fd5b50565b6000813590506129e1816129bb565b92915050565b600080604083850312156129fe576129fd6124df565b5b6000612a0c85828601612735565b9250506020612a1d858286016129d2565b9150509250929050565b600080fd5b600080fd5b7f4e487b7100000000000000000000000000000000000000000000000000000000600052604160045260246000fd5b612a69826125f3565b810181811067ffffffffffffffff82111715612a8857612a87612a31565b5b80604052505050565b6000612a9b6124d5565b9050612aa78282612a60565b919050565b600067ffffffffffffffff821115612ac757612ac6612a31565b5b612ad0826125f3565b9050602081019050919050565b82818337600083830152505050565b6000612aff612afa84612aac565b612a91565b905082815260208101848484011115612b1b57612b1a612a2c565b5b612b26848285612add565b509392505050565b600082601f830112612b4357612b42612a27565b5b8135612b53848260208601612aec565b91505092915050565b60008060008060808587031215612b7657612b756124df565b5b6000612b8487828801612735565b9450506020612b9587828801612735565b9350506040612ba687828801612680565b925050606085013567ffffffffffffffff811115612bc757612bc66124e4565b5b612bd387828801612b2e565b91505092959194509250565b600080fd5b600080fd5b60008083601f840112612bff57612bfe612a27565b5b8235905067ffffffffffffffff811115612c1c57612c1b612bdf565b5b602083019150836001820283011115612c3857612c37612be4565b5b9250929050565b600080600060408486031215612c5857612c576124df565b5b6000612c6686828701612735565b935050602084013567ffffffffffffffff811115612c8757612c866124e4565b5b612c9386828701612be9565b92509250509250925092565b60008060408385031215612cb657612cb56124df565b5b6000612cc485828601612735565b9250506020612cd585828601612735565b9150509250929050565b7f4e487b7100000000000000000000000000000000000000000000000000000000600052602260045260246000fd5b60006002820490506001821680612d2657607f821691505b60208210811415612d3a57612d39612cdf565b5b50919050565b7f4552433732313a20617070726f76656420717565727920666f72206e6f6e657860008201527f697374656e7420746f6b656e0000000000000000000000000000000000000000602082015250565b6000612d9c602c836125af565b9150612da782612d40565b604082019050919050565b60006020820190508181036000830152612dcb81612d8f565b9050919050565b7f4552433732313a20617070726f76616c20746f2063757272656e74206f776e6560008201527f7200000000000000000000000000000000000000000000000000000000000000602082015250565b6000612e2e6021836125af565b9150612e3982612dd2565b604082019050919050565b60006020820190508181036000830152612e5d81612e21565b9050919050565b7f4552433732313a20617070726f76652063616c6c6572206973206e6f74206f7760008201527f6e6572206e6f7220617070726f76656420666f7220616c6c0000000000000000602082015250565b6000612ec06038836125af565b9150612ecb82612e64565b604082019050919050565b60006020820190508181036000830152612eef81612eb3565b9050919050565b7f6d65726765000000000000000000000000000000000000000000000000000000600082015250565b6000612f2c6005836125af565b9150612f3782612ef6565b602082019050919050565b6000819050919050565b612f5581612f42565b82525050565b600060c0820190508181036000830152612f7481612f1f565b9050612f836020830188612816565b612f906040830187612816565b8181036060830152612fa28186612604565b9050612fb16080830185612816565b612fbe60a0830184612f4c565b9695505050505050565b7f4552433732313a207472616e736665722063616c6c6572206973206e6f74206f60008201527f776e6572206e6f7220617070726f766564000000000000000000000000000000602082015250565b60006130246031836125af565b915061302f82612fc8565b604082019050919050565b6000602082019050818103600083015261305381613017565b9050919050565b7f546f74616c20537570706c7920686173206265656e20726561636865642e0000600082015250565b6000613090601e836125af565b915061309b8261305a565b602082019050919050565b600060208201905081810360008301526130bf81613083565b9050919050565b600060a0820190506130db6000830188612816565b6130e86020830187612816565b81810360408301526130fa8186612604565b90506131096060830185612816565b6131166080830184612f4c565b9695505050505050565b7f4552433732313a206f776e657220717565727920666f72206e6f6e657869737460008201527f656e7420746f6b656e0000000000000000000000000000000000000000000000602082015250565b600061317c6029836125af565b915061318782613120565b604082019050919050565b600060208201905081810360008301526131ab8161316f565b9050919050565b7f4552433732313a2062616c616e636520717565727920666f7220746865207a6560008201527f726f206164647265737300000000000000000000000000000000000000000000602082015250565b600061320e602a836125af565b9150613219826131b2565b604082019050919050565b6000602082019050818103600083015261323d81613201565b9050919050565b7f4f6e6c79207468652061646d696e2063616e20646f20746869732e0000000000600082015250565b600061327a601b836125af565b915061328582613244565b602082019050919050565b600060208201905081810360008301526132a98161326d565b9050919050565b7f4e487b7100000000000000000000000000000000000000000000000000000000600052601160045260246000fd5b60006132ea8261278a565b91506132f58361278a565b92508260ff0382111561330b5761330a6132b0565b5b828201905092915050565b7f6275726e00000000000000000000000000000000000000000000000000000000600082015250565b600061334c6004836125af565b915061335782613316565b602082019050919050565b50565b60006133726000836125af565b915061337d82613362565b600082019050919050565b600060c08201905081810360008301526133a18161333f565b90506133b06020830187612816565b6133bd6040830186612816565b81810360608301526133ce81613365565b90506133dd6080830185612816565b6133ea60a0830184612f4c565b95945050505050565b7f4552433732313a20617070726f766520746f2063616c6c657200000000000000600082015250565b60006134296019836125af565b9150613434826133f3565b602082019050919050565b600060208201905081810360008301526134588161341c565b9050919050565b7f4552433732314d657461646174613a2055524920717565727920666f72206e6f60008201527f6e6578697374656e7420746f6b656e0000000000000000000000000000000000602082015250565b60006134bb602f836125af565b91506134c68261345f565b604082019050919050565b600060208201905081810360008301526134ea816134ae565b9050919050565b600081905092915050565b6000613507826125a4565b61351181856134f1565b93506135218185602086016125c0565b80840191505092915050565b600061353982856134fc565b915061354582846134fc565b91508190509392505050565b7f4e487b7100000000000000000000000000000000000000000000000000000000600052603260045260246000fd5b7f4552433732313a206f70657261746f7220717565727920666f72206e6f6e657860008201527f697374656e7420746f6b656e0000000000000000000000000000000000000000602082015250565b60006135dc602c836125af565b91506135e782613580565b604082019050919050565b6000602082019050818103600083015261360b816135cf565b9050919050565b7f4552433732313a207472616e73666572206f6620746f6b656e2074686174206960008201527f73206e6f74206f776e0000000000000000000000000000000000000000000000602082015250565b600061366e6029836125af565b915061367982613612565b604082019050919050565b6000602082019050818103600083015261369d81613661565b9050919050565b7f4552433732313a207472616e7366657220746f20746865207a65726f2061646460008201527f7265737300000000000000000000000000000000000000000000000000000000602082015250565b60006137006024836125af565b915061370b826136a4565b604082019050919050565b6000602082019050818103600083015261372f816136f3565b9050919050565b60006137418261265f565b915061374c8361265f565b92508282101561375f5761375e6132b0565b5b828203905092915050565b60006137758261265f565b91506137808361265f565b9250827fffffffffffffffffffffffffffffffffffffffffffffffffffffffffffffffff038211156137b5576137b46132b0565b5b828201905092915050565b7f4552433732313a207472616e7366657220746f206e6f6e20455243373231526560008201527f63656976657220696d706c656d656e7465720000000000000000000000000000602082015250565b600061381c6032836125af565b9150613827826137c0565b604082019050919050565b6000602082019050818103600083015261384b8161380f565b9050919050565b600061385d8261265f565b91507fffffffffffffffffffffffffffffffffffffffffffffffffffffffffffffffff8214156138905761388f6132b0565b5b600182019050919050565b7f4e487b7100000000000000000000000000000000000000000000000000000000600052601260045260246000fd5b60006138d58261265f565b91506138e08361265f565b9250826138f0576138ef61389b565b5b828204905092915050565b60006139068261265f565b91506139118361265f565b9250826139215761392061389b565b5b828206905092915050565b600081519050919050565b600082825260208201905092915050565b60006139538261392c565b61395d8185613937565b935061396d8185602086016125c0565b613976816125f3565b840191505092915050565b600060808201905061399660008301876126f4565b6139a360208301866126f4565b6139b06040830185612816565b81810360608301526139c28184613948565b905095945050505050565b6000815190506139dc81612515565b92915050565b6000602082840312156139f8576139f76124df565b5b6000613a06848285016139cd565b91505092915050565b7f4552433732313a206d696e7420746f20746865207a65726f2061646472657373600082015250565b6000613a456020836125af565b9150613a5082613a0f565b602082019050919050565b60006020820190508181036000830152613a7481613a38565b9050919050565b7f4552433732313a20746f6b656e20616c7265616479206d696e74656400000000600082015250565b6000613ab1601c836125af565b9150613abc82613a7b565b602082019050919050565b60006020820190508181036000830152613ae081613aa4565b905091905056fea2646970667358221220f7ba38af5245dbc28ba939f6240cf27ad13a23520e0ce96b25bbff24f2e20be864736f6c634300080a0033",
  "immutableReferences": {},
  "source": "// SPDX-License-Identifier: MIT\r\npragma solidity ^0.8.0;\r\n\r\nimport '@openzeppelin/contracts/token/ERC721/ERC721.sol';\r\nimport '@openzeppelin/contracts/utils/Counters.sol';\r\n\r\n// kept for testing in Remix\r\n// import 'https://github.com/OpenZeppelin/openzeppelin-contracts/blob/master/contracts/token/ERC721/ERC721.sol';\r\n// import 'https://github.com/OpenZeppelin/openzeppelin-contracts/blob/master/contracts/utils/Counters.sol';\r\n\r\n\r\n\r\ncontract StartupHeroCreator is ERC721 {\r\n  using Counters for Counters.Counter;\r\n  Counters.Counter private _indexNumber;\r\n \r\n  /**\r\n   * Global State Variables\r\n   */\r\n  address public admin;\r\n  uint256 public totalSupply;\r\n  Counters.Counter public currentSupply;\r\n  \r\n  /**\r\n   * Struct Types\r\n   */\r\n\r\n  // attributes of a startup hero\r\n  struct Attributes {\r\n    uint8 artist;\r\n    uint8 hacker;\r\n    uint8 hustler;\r\n    uint8 success;\r\n  }\r\n  \r\n  struct Member {\r\n    string name;\r\n    uint256 balance;\r\n    bool membership;\r\n  }\r\n  \r\n  struct Series {\r\n      Counters.Counter active;\r\n      Counters.Counter count;\r\n  }\r\n  \r\n  Series public currentSeries;\r\n  \r\n  mapping(address => Attributes) private userStoredAttributes;    \r\n  mapping(address => uint256[]) private _userOwnedTokens;\r\n  mapping(address => Member) private _collective;\r\n  \r\n  constructor() ERC721('Startup Hero', 'SUP') {\r\n    admin = msg.sender;\r\n    totalSupply = 10000;\r\n    \r\n    // Make the Admin the first member of the collective\r\n    _collective[admin].name = \"The Boss\";\r\n    _collective[admin].membership = true;\r\n    \r\n    // Define initial series\r\n    currentSeries.active.increment();\r\n  }\r\n  \r\n  /**\r\n   * MODIFIERS\r\n   */\r\n   // Admins Only\r\n  modifier onlyAdmin {\r\n    require(msg.sender == admin, \"Only the admin can do this.\");\r\n    _;\r\n  }\r\n  \r\n  // Collective Members Only\r\n  modifier collectiveMember {\r\n    require(_collective[msg.sender].membership == true, 'User is not a member.');\r\n    _;\r\n  }\r\n  \r\n  // total supply reached\r\n  modifier totalSupplyReached {\r\n    require(currentSupply.current() < totalSupply, 'Total Supply has been reached.');\r\n    _;\r\n  }\r\n  \r\n  \r\n  \r\n  \r\n  /**\r\n   * EVENTS\r\n   */\r\n  event NftMinted(uint256 _tid, uint256 _current, string _uri, uint256 _time, bytes32 _note);\r\n  \r\n  event NftStatus(string _status, uint256 _tid, uint256 _current, string _uri, uint256 _time, bytes32 _note);\r\n \r\n  \r\n  \r\n  /**\r\n   * FUNCTIONS\r\n   */\r\n   \r\n  /**\r\n   * Mint an NFT\r\n   * \r\n   * Only a member of the collective can mint\r\n   * \r\n   */\r\n  function mint(address to, uint256 tid) totalSupplyReached() external {\r\n    _indexNumber.increment();\r\n    uint256 current = _indexNumber.current();\r\n    _userOwnedTokens[msg.sender].push(tid);\r\n    \r\n    currentSeries.count.increment();\r\n    \r\n    if( currentSeries.count.current() > 5) {\r\n        // increase to next series level\r\n        currentSeries.active.increment();\r\n        // reset minted NFT count\r\n        currentSeries.count.reset();\r\n    }\r\n    \r\n    userStoredAttributes[msg.sender].artist = 0;\r\n    userStoredAttributes[msg.sender].hacker = 0;\r\n    userStoredAttributes[msg.sender].hustler = 0;\r\n    userStoredAttributes[msg.sender].success = 0;\r\n\r\n        \r\n    currentSupply.increment();    \r\n    _safeMint(to, tid);\r\n    \r\n    string memory uri = tokenURI(tid);\r\n    uint256 time = block.timestamp;\r\n    bytes32 note = \"NFT has been minted.\";\r\n    \r\n    emit NftMinted(tid, current, uri, time, note);\r\n  }\r\n  \r\n  /**\r\n   * Merge two(2) NFTs\r\n   * \r\n   * Any holder of an NFT can Merge\r\n   * \r\n   */\r\n   function merge(address to, uint256 tid) external {\r\n    _indexNumber.increment();\r\n    _safeMint(to, tid);\r\n\r\n    string memory uri = tokenURI(tid);\r\n    uint256 time = block.timestamp;\r\n    uint256 current = _indexNumber.current();\r\n    bytes32 note = \"Merging has completed.\";\r\n\r\n    userStoredAttributes[msg.sender].artist = 0;\r\n    userStoredAttributes[msg.sender].hacker = 0;\r\n    userStoredAttributes[msg.sender].hustler = 0;\r\n    userStoredAttributes[msg.sender].success = 0;\r\n    \r\n    emit NftStatus(\"merge\", tid, current, uri, time, note);\r\n  }\r\n  \r\n\r\n  /**\r\n   * Burn an NFT\r\n   * \r\n   * Any holder of an NFT can burn\r\n   * \r\n   */\r\n  function burn(uint256 tokenId, uint8 _artist, uint8 _hacker, uint8 _hustler, uint8 _success) onlyAdmin() public {\r\n    userStoredAttributes[msg.sender].artist += _artist;\r\n    userStoredAttributes[msg.sender].hacker += _hacker;\r\n    userStoredAttributes[msg.sender].hustler += _hustler;\r\n    userStoredAttributes[msg.sender].success += _success;\r\n    uint256 time = block.timestamp;\r\n    uint256 current = _indexNumber.current();\r\n    bytes32 note = \"This token has been burned.\";\r\n    \r\n    _burn(tokenId);\r\n    \r\n    emit NftStatus(\"burn\", tokenId, current, \"\", time, note);\r\n  }\r\n  \r\n  /**\r\n   * Add User to Collective\r\n   * \r\n   * Admin can add a user to the collective\r\n   * \r\n   */\r\n  function addToCollective(address newMember, string calldata newMemberName) onlyAdmin() public {\r\n    _collective[newMember].name = newMemberName;\r\n    _collective[newMember].membership = true;\r\n  }\r\n\r\n  /**\r\n   * Define the URI to use for storing the NFT JSON\r\n   */\r\n  function _baseURI() internal override pure returns (string memory) {\r\n    return 'http://localhost:5000/nft/';\r\n  }\r\n  \r\n  /**\r\n   * Get a specific token owned by the User\r\n   */\r\n  function getToken(uint256 index) public view returns (uint256) {\r\n    return _userOwnedTokens[msg.sender][index];\r\n  }\r\n\r\n  /**\r\n   * Retrieve available attributes that may be applied as part of tehe Burn Bonus\r\n   */\r\n  function getAttributes() public view returns (Attributes memory) {\r\n    return userStoredAttributes[msg.sender];\r\n  }\r\n  \r\n  \r\n}",
  "sourcePath": "D:\\Projects\\ETB\\startupHero\\contracts\\StartupHeroCreator.sol",
  "compiler": {
    "name": "solc",
    "version": "0.8.10+commit.fc410830.Emscripten.clang"
  },
  "schemaVersion": "3.4.3",
  "updatedAt": "2021-11-22T23:47:56.674Z",
  "networkType": "ethereum",
  "devdoc": {
    "kind": "dev",
    "methods": {
      "approve(address,uint256)": {
        "details": "See {IERC721-approve}."
      },
      "balanceOf(address)": {
        "details": "See {IERC721-balanceOf}."
      },
      "getApproved(uint256)": {
        "details": "See {IERC721-getApproved}."
      },
      "isApprovedForAll(address,address)": {
        "details": "See {IERC721-isApprovedForAll}."
      },
      "name()": {
        "details": "See {IERC721Metadata-name}."
      },
      "ownerOf(uint256)": {
        "details": "See {IERC721-ownerOf}."
      },
      "safeTransferFrom(address,address,uint256)": {
        "details": "See {IERC721-safeTransferFrom}."
      },
      "safeTransferFrom(address,address,uint256,bytes)": {
        "details": "See {IERC721-safeTransferFrom}."
      },
      "setApprovalForAll(address,bool)": {
        "details": "See {IERC721-setApprovalForAll}."
      },
      "supportsInterface(bytes4)": {
        "details": "See {IERC165-supportsInterface}."
      },
      "symbol()": {
        "details": "See {IERC721Metadata-symbol}."
      },
      "tokenURI(uint256)": {
        "details": "See {IERC721Metadata-tokenURI}."
      },
      "transferFrom(address,address,uint256)": {
        "details": "See {IERC721-transferFrom}."
      }
    },
    "version": 1
  },
  "userdoc": {
    "events": {
      "NftMinted(uint256,uint256,string,uint256,bytes32)": {
        "notice": "EVENTS"
      }
    },
    "kind": "user",
    "methods": {
      "addToCollective(address,string)": {
        "notice": "Add User to Collective  Admin can add a user to the collective "
      },
      "admin()": {
        "notice": "Global State Variables"
      },
      "burn(uint256,uint8,uint8,uint8,uint8)": {
        "notice": "Burn an NFT  Any holder of an NFT can burn "
      },
      "getAttributes()": {
        "notice": "Retrieve available attributes that may be applied as part of tehe Burn Bonus"
      },
      "getToken(uint256)": {
        "notice": "Get a specific token owned by the User"
      },
      "merge(address,uint256)": {
        "notice": "Merge two(2) NFTs  Any holder of an NFT can Merge "
      },
      "mint(address,uint256)": {
        "notice": "Mint an NFT  Only a member of the collective can mint "
      }
    },
    "version": 1
  }
}