{
  "contractName": "StartupHeroCreator",
  "abi": [
    {
      "inputs": [],
      "stateMutability": "nonpayable",
      "type": "constructor"
    },
    {
      "anonymous": false,
      "inputs": [
        {
          "indexed": true,
          "internalType": "address",
          "name": "owner",
          "type": "address"
        },
        {
          "indexed": true,
          "internalType": "address",
          "name": "approved",
          "type": "address"
        },
        {
          "indexed": true,
          "internalType": "uint256",
          "name": "tokenId",
          "type": "uint256"
        }
      ],
      "name": "Approval",
      "type": "event"
    },
    {
      "anonymous": false,
      "inputs": [
        {
          "indexed": true,
          "internalType": "address",
          "name": "owner",
          "type": "address"
        },
        {
          "indexed": true,
          "internalType": "address",
          "name": "operator",
          "type": "address"
        },
        {
          "indexed": false,
          "internalType": "bool",
          "name": "approved",
          "type": "bool"
        }
      ],
      "name": "ApprovalForAll",
      "type": "event"
    },
    {
      "anonymous": false,
      "inputs": [
        {
          "indexed": false,
          "internalType": "uint256",
          "name": "_tid",
          "type": "uint256"
        },
        {
          "indexed": false,
          "internalType": "string",
          "name": "_uri",
          "type": "string"
        },
        {
          "indexed": false,
          "internalType": "uint256",
          "name": "_time",
          "type": "uint256"
        }
      ],
      "name": "NftMinted",
      "type": "event"
    },
    {
      "anonymous": false,
      "inputs": [
        {
          "indexed": true,
          "internalType": "address",
          "name": "from",
          "type": "address"
        },
        {
          "indexed": true,
          "internalType": "address",
          "name": "to",
          "type": "address"
        },
        {
          "indexed": true,
          "internalType": "uint256",
          "name": "tokenId",
          "type": "uint256"
        }
      ],
      "name": "Transfer",
      "type": "event"
    },
    {
      "inputs": [],
      "name": "admin",
      "outputs": [
        {
          "internalType": "address",
          "name": "",
          "type": "address"
        }
      ],
      "stateMutability": "view",
      "type": "function",
      "constant": true
    },
    {
      "inputs": [
        {
          "internalType": "address",
          "name": "to",
          "type": "address"
        },
        {
          "internalType": "uint256",
          "name": "tokenId",
          "type": "uint256"
        }
      ],
      "name": "approve",
      "outputs": [],
      "stateMutability": "nonpayable",
      "type": "function"
    },
    {
      "inputs": [
        {
          "internalType": "address",
          "name": "owner",
          "type": "address"
        }
      ],
      "name": "balanceOf",
      "outputs": [
        {
          "internalType": "uint256",
          "name": "",
          "type": "uint256"
        }
      ],
      "stateMutability": "view",
      "type": "function",
      "constant": true
    },
    {
      "inputs": [
        {
          "internalType": "uint256",
          "name": "tokenId",
          "type": "uint256"
        }
      ],
      "name": "getApproved",
      "outputs": [
        {
          "internalType": "address",
          "name": "",
          "type": "address"
        }
      ],
      "stateMutability": "view",
      "type": "function",
      "constant": true
    },
    {
      "inputs": [
        {
          "internalType": "address",
          "name": "owner",
          "type": "address"
        },
        {
          "internalType": "address",
          "name": "operator",
          "type": "address"
        }
      ],
      "name": "isApprovedForAll",
      "outputs": [
        {
          "internalType": "bool",
          "name": "",
          "type": "bool"
        }
      ],
      "stateMutability": "view",
      "type": "function",
      "constant": true
    },
    {
      "inputs": [],
      "name": "name",
      "outputs": [
        {
          "internalType": "string",
          "name": "",
          "type": "string"
        }
      ],
      "stateMutability": "view",
      "type": "function",
      "constant": true
    },
    {
      "inputs": [
        {
          "internalType": "uint256",
          "name": "tokenId",
          "type": "uint256"
        }
      ],
      "name": "ownerOf",
      "outputs": [
        {
          "internalType": "address",
          "name": "",
          "type": "address"
        }
      ],
      "stateMutability": "view",
      "type": "function",
      "constant": true
    },
    {
      "inputs": [
        {
          "internalType": "address",
          "name": "from",
          "type": "address"
        },
        {
          "internalType": "address",
          "name": "to",
          "type": "address"
        },
        {
          "internalType": "uint256",
          "name": "tokenId",
          "type": "uint256"
        }
      ],
      "name": "safeTransferFrom",
      "outputs": [],
      "stateMutability": "nonpayable",
      "type": "function"
    },
    {
      "inputs": [
        {
          "internalType": "address",
          "name": "from",
          "type": "address"
        },
        {
          "internalType": "address",
          "name": "to",
          "type": "address"
        },
        {
          "internalType": "uint256",
          "name": "tokenId",
          "type": "uint256"
        },
        {
          "internalType": "bytes",
          "name": "_data",
          "type": "bytes"
        }
      ],
      "name": "safeTransferFrom",
      "outputs": [],
      "stateMutability": "nonpayable",
      "type": "function"
    },
    {
      "inputs": [
        {
          "internalType": "address",
          "name": "operator",
          "type": "address"
        },
        {
          "internalType": "bool",
          "name": "approved",
          "type": "bool"
        }
      ],
      "name": "setApprovalForAll",
      "outputs": [],
      "stateMutability": "nonpayable",
      "type": "function"
    },
    {
      "inputs": [
        {
          "internalType": "bytes4",
          "name": "interfaceId",
          "type": "bytes4"
        }
      ],
      "name": "supportsInterface",
      "outputs": [
        {
          "internalType": "bool",
          "name": "",
          "type": "bool"
        }
      ],
      "stateMutability": "view",
      "type": "function",
      "constant": true
    },
    {
      "inputs": [],
      "name": "symbol",
      "outputs": [
        {
          "internalType": "string",
          "name": "",
          "type": "string"
        }
      ],
      "stateMutability": "view",
      "type": "function",
      "constant": true
    },
    {
      "inputs": [
        {
          "internalType": "uint256",
          "name": "tokenId",
          "type": "uint256"
        }
      ],
      "name": "tokenURI",
      "outputs": [
        {
          "internalType": "string",
          "name": "",
          "type": "string"
        }
      ],
      "stateMutability": "view",
      "type": "function",
      "constant": true
    },
    {
      "inputs": [
        {
          "internalType": "address",
          "name": "from",
          "type": "address"
        },
        {
          "internalType": "address",
          "name": "to",
          "type": "address"
        },
        {
          "internalType": "uint256",
          "name": "tokenId",
          "type": "uint256"
        }
      ],
      "name": "transferFrom",
      "outputs": [],
      "stateMutability": "nonpayable",
      "type": "function"
    },
    {
      "inputs": [
        {
          "internalType": "address",
          "name": "",
          "type": "address"
        }
      ],
      "name": "userStoredAttributes",
      "outputs": [
        {
          "internalType": "uint8",
          "name": "artist",
          "type": "uint8"
        },
        {
          "internalType": "uint8",
          "name": "hacker",
          "type": "uint8"
        },
        {
          "internalType": "uint8",
          "name": "hustler",
          "type": "uint8"
        },
        {
          "internalType": "uint8",
          "name": "success",
          "type": "uint8"
        }
      ],
      "stateMutability": "view",
      "type": "function",
      "constant": true
    },
    {
      "inputs": [
        {
          "internalType": "address",
          "name": "to",
          "type": "address"
        }
      ],
      "name": "mint",
      "outputs": [],
      "stateMutability": "nonpayable",
      "type": "function"
    },
    {
      "inputs": [
        {
          "internalType": "uint256",
          "name": "tokenId",
          "type": "uint256"
        },
        {
          "internalType": "uint8",
          "name": "_artist",
          "type": "uint8"
        },
        {
          "internalType": "uint8",
          "name": "_hacker",
          "type": "uint8"
        },
        {
          "internalType": "uint8",
          "name": "_hustler",
          "type": "uint8"
        },
        {
          "internalType": "uint8",
          "name": "_success",
          "type": "uint8"
        }
      ],
      "name": "burn",
      "outputs": [],
      "stateMutability": "nonpayable",
      "type": "function"
    },
    {
      "inputs": [
        {
          "internalType": "uint256",
          "name": "index",
          "type": "uint256"
        }
      ],
      "name": "getToken",
      "outputs": [
        {
          "internalType": "uint256",
          "name": "",
          "type": "uint256"
        }
      ],
      "stateMutability": "view",
      "type": "function",
      "constant": true
    },
    {
      "inputs": [],
      "name": "getAttributes",
      "outputs": [
        {
          "components": [
            {
              "internalType": "uint8",
              "name": "artist",
              "type": "uint8"
            },
            {
              "internalType": "uint8",
              "name": "hacker",
              "type": "uint8"
            },
            {
              "internalType": "uint8",
              "name": "hustler",
              "type": "uint8"
            },
            {
              "internalType": "uint8",
              "name": "success",
              "type": "uint8"
            }
          ],
          "internalType": "struct StartupHeroCreator.attributes",
          "name": "",
          "type": "tuple"
        }
      ],
      "stateMutability": "view",
      "type": "function",
      "constant": true
    }
  ],
  "bytecode": "0x60806040523480156200001157600080fd5b506040518060400160405280600c81526020017f53746172747570204865726f00000000000000000000000000000000000000008152506040518060400160405280600381526020017f5355500000000000000000000000000000000000000000000000000000000000815250816000908051906020019062000096929190620000f9565b508060019080519060200190620000af929190620000f9565b50505033600960006101000a81548173ffffffffffffffffffffffffffffffffffffffff021916908373ffffffffffffffffffffffffffffffffffffffff1602179055506200020e565b8280546200010790620001d8565b90600052602060002090601f0160209004810192826200012b576000855562000177565b82601f106200014657805160ff191683800117855562000177565b8280016001018555821562000177579182015b828111156200017657825182559160200191906001019062000159565b5b5090506200018691906200018a565b5090565b5b80821115620001a55760008160009055506001016200018b565b5090565b7f4e487b7100000000000000000000000000000000000000000000000000000000600052602260045260246000fd5b60006002820490506001821680620001f157607f821691505b60208210811415620002085762000207620001a9565b5b50919050565b613309806200021e6000396000f3fe608060405234801561001057600080fd5b50600436106101215760003560e01c806370a08231116100ad578063c87b56dd11610071578063c87b56dd14610304578063c92ff41b14610334578063e4b50cb814610367578063e985e9c514610397578063f851a440146103c757610121565b806370a082311461026257806395d89b411461029257806396c71c01146102b0578063a22cb465146102cc578063b88d4fde146102e857610121565b8063152583de116100f4578063152583de146101c057806323b872dd146101de57806342842e0e146101fa5780636352211e146102165780636a6278421461024657610121565b806301ffc9a71461012657806306fdde0314610156578063081812fc14610174578063095ea7b3146101a4575b600080fd5b610140600480360381019061013b9190612024565b6103e5565b60405161014d919061206c565b60405180910390f35b61015e6104c7565b60405161016b9190612120565b60405180910390f35b61018e60048036038101906101899190612178565b610559565b60405161019b91906121e6565b60405180910390f35b6101be60048036038101906101b9919061222d565b6105de565b005b6101c86106f6565b6040516101d591906122de565b60405180910390f35b6101f860048036038101906101f391906122f9565b6107c1565b005b610214600480360381019061020f91906122f9565b610821565b005b610230600480360381019061022b9190612178565b610841565b60405161023d91906121e6565b60405180910390f35b610260600480360381019061025b919061234c565b6108f3565b005b61027c6004803603810190610277919061234c565b610bce565b6040516102899190612388565b60405180910390f35b61029a610c86565b6040516102a79190612120565b60405180910390f35b6102ca60048036038101906102c591906123cf565b610d18565b005b6102e660048036038101906102e19190612476565b610f90565b005b61030260048036038101906102fd91906125eb565b611111565b005b61031e60048036038101906103199190612178565b611173565b60405161032b9190612120565b60405180910390f35b61034e6004803603810190610349919061234c565b61121a565b60405161035e949392919061267d565b60405180910390f35b610381600480360381019061037c9190612178565b61127e565b60405161038e9190612388565b60405180910390f35b6103b160048036038101906103ac91906126c2565b6112e3565b6040516103be919061206c565b60405180910390f35b6103cf611377565b6040516103dc91906121e6565b60405180910390f35b60007f80ac58cd000000000000000000000000000000000000000000000000000000007bffffffffffffffffffffffffffffffffffffffffffffffffffffffff1916827bffffffffffffffffffffffffffffffffffffffffffffffffffffffff191614806104b057507f5b5e139f000000000000000000000000000000000000000000000000000000007bffffffffffffffffffffffffffffffffffffffffffffffffffffffff1916827bffffffffffffffffffffffffffffffffffffffffffffffffffffffff1916145b806104c057506104bf8261139d565b5b9050919050565b6060600080546104d690612731565b80601f016020809104026020016040519081016040528092919081815260200182805461050290612731565b801561054f5780601f106105245761010080835404028352916020019161054f565b820191906000526020600020905b81548152906001019060200180831161053257829003601f168201915b5050505050905090565b600061056482611407565b6105a3576040517f08c379a000000000000000000000000000000000000000000000000000000000815260040161059a906127d5565b60405180910390fd5b6004600083815260200190815260200160002060009054906101000a900473ffffffffffffffffffffffffffffffffffffffff169050919050565b60006105e982610841565b90508073ffffffffffffffffffffffffffffffffffffffff168373ffffffffffffffffffffffffffffffffffffffff16141561065a576040517f08c379a000000000000000000000000000000000000000000000000000000000815260040161065190612867565b60405180910390fd5b8073ffffffffffffffffffffffffffffffffffffffff16610679611473565b73ffffffffffffffffffffffffffffffffffffffff1614806106a857506106a7816106a2611473565b6112e3565b5b6106e7576040517f08c379a00000000000000000000000000000000000000000000000000000000081526004016106de906128f9565b60405180910390fd5b6106f1838361147b565b505050565b6106fe611f84565b600760003373ffffffffffffffffffffffffffffffffffffffff1673ffffffffffffffffffffffffffffffffffffffff1681526020019081526020016000206040518060800160405290816000820160009054906101000a900460ff1660ff1660ff1681526020016000820160019054906101000a900460ff1660ff1660ff1681526020016000820160029054906101000a900460ff1660ff1660ff1681526020016000820160039054906101000a900460ff1660ff1660ff1681525050905090565b6107d26107cc611473565b82611534565b610811576040517f08c379a00000000000000000000000000000000000000000000000000000000081526004016108089061298b565b60405180910390fd5b61081c838383611612565b505050565b61083c83838360405180602001604052806000815250611111565b505050565b6000806002600084815260200190815260200160002060009054906101000a900473ffffffffffffffffffffffffffffffffffffffff169050600073ffffffffffffffffffffffffffffffffffffffff168173ffffffffffffffffffffffffffffffffffffffff1614156108ea576040517f08c379a00000000000000000000000000000000000000000000000000000000081526004016108e190612a1d565b60405180910390fd5b80915050919050565b600960009054906101000a900473ffffffffffffffffffffffffffffffffffffffff1673ffffffffffffffffffffffffffffffffffffffff163373ffffffffffffffffffffffffffffffffffffffff1614610983576040517f08c379a000000000000000000000000000000000000000000000000000000000815260040161097a90612a89565b60405180910390fd5b61098d600661186e565b60006109996006611884565b9050600860003373ffffffffffffffffffffffffffffffffffffffff1673ffffffffffffffffffffffffffffffffffffffff168152602001908152602001600020819080600181540180825580915050600190039060005260206000200160009091909190915055610a0b8282611892565b6000610a1682611173565b905060004290506000600760003373ffffffffffffffffffffffffffffffffffffffff1673ffffffffffffffffffffffffffffffffffffffff16815260200190815260200160002060000160006101000a81548160ff021916908360ff1602179055506000600760003373ffffffffffffffffffffffffffffffffffffffff1673ffffffffffffffffffffffffffffffffffffffff16815260200190815260200160002060000160016101000a81548160ff021916908360ff1602179055506000600760003373ffffffffffffffffffffffffffffffffffffffff1673ffffffffffffffffffffffffffffffffffffffff16815260200190815260200160002060000160026101000a81548160ff021916908360ff1602179055506000600760003373ffffffffffffffffffffffffffffffffffffffff1673ffffffffffffffffffffffffffffffffffffffff16815260200190815260200160002060000160036101000a81548160ff021916908360ff1602179055507fa31f79813114a256d7b25634d9e6bfb8efe7e057562207531f80839b7a166661838383604051610bc093929190612aa9565b60405180910390a150505050565b60008073ffffffffffffffffffffffffffffffffffffffff168273ffffffffffffffffffffffffffffffffffffffff161415610c3f576040517f08c379a0000000000000000000000000000000000000000000000000000000008152600401610c3690612b59565b60405180910390fd5b600360008373ffffffffffffffffffffffffffffffffffffffff1673ffffffffffffffffffffffffffffffffffffffff168152602001908152602001600020549050919050565b606060018054610c9590612731565b80601f0160208091040260200160405190810160405280929190818152602001828054610cc190612731565b8015610d0e5780601f10610ce357610100808354040283529160200191610d0e565b820191906000526020600020905b815481529060010190602001808311610cf157829003601f168201915b5050505050905090565b600960009054906101000a900473ffffffffffffffffffffffffffffffffffffffff1673ffffffffffffffffffffffffffffffffffffffff163373ffffffffffffffffffffffffffffffffffffffff1614610da8576040517f08c379a0000000000000000000000000000000000000000000000000000000008152600401610d9f90612a89565b60405180910390fd5b83600760003373ffffffffffffffffffffffffffffffffffffffff1673ffffffffffffffffffffffffffffffffffffffff16815260200190815260200160002060000160008282829054906101000a900460ff16610e069190612ba8565b92506101000a81548160ff021916908360ff16021790555082600760003373ffffffffffffffffffffffffffffffffffffffff1673ffffffffffffffffffffffffffffffffffffffff16815260200190815260200160002060000160018282829054906101000a900460ff16610e7c9190612ba8565b92506101000a81548160ff021916908360ff16021790555081600760003373ffffffffffffffffffffffffffffffffffffffff1673ffffffffffffffffffffffffffffffffffffffff16815260200190815260200160002060000160028282829054906101000a900460ff16610ef29190612ba8565b92506101000a81548160ff021916908360ff16021790555080600760003373ffffffffffffffffffffffffffffffffffffffff1673ffffffffffffffffffffffffffffffffffffffff16815260200190815260200160002060000160038282829054906101000a900460ff16610f689190612ba8565b92506101000a81548160ff021916908360ff160217905550610f89856118b0565b5050505050565b610f98611473565b73ffffffffffffffffffffffffffffffffffffffff168273ffffffffffffffffffffffffffffffffffffffff161415611006576040517f08c379a0000000000000000000000000000000000000000000000000000000008152600401610ffd90612c2b565b60405180910390fd5b8060056000611013611473565b73ffffffffffffffffffffffffffffffffffffffff1673ffffffffffffffffffffffffffffffffffffffff16815260200190815260200160002060008473ffffffffffffffffffffffffffffffffffffffff1673ffffffffffffffffffffffffffffffffffffffff16815260200190815260200160002060006101000a81548160ff0219169083151502179055508173ffffffffffffffffffffffffffffffffffffffff166110c0611473565b73ffffffffffffffffffffffffffffffffffffffff167f17307eab39ab6107e8899845ad3d59bd9653f200f220920489ca2b5937696c3183604051611105919061206c565b60405180910390a35050565b61112261111c611473565b83611534565b611161576040517f08c379a00000000000000000000000000000000000000000000000000000000081526004016111589061298b565b60405180910390fd5b61116d848484846119c1565b50505050565b606061117e82611407565b6111bd576040517f08c379a00000000000000000000000000000000000000000000000000000000081526004016111b490612cbd565b60405180910390fd5b60006111c7611a1d565b905060008151116111e75760405180602001604052806000815250611212565b806111f184611a5a565b604051602001611202929190612d19565b6040516020818303038152906040525b915050919050565b60076020528060005260406000206000915090508060000160009054906101000a900460ff16908060000160019054906101000a900460ff16908060000160029054906101000a900460ff16908060000160039054906101000a900460ff16905084565b6000600860003373ffffffffffffffffffffffffffffffffffffffff1673ffffffffffffffffffffffffffffffffffffffff16815260200190815260200160002082815481106112d1576112d0612d3d565b5b90600052602060002001549050919050565b6000600560008473ffffffffffffffffffffffffffffffffffffffff1673ffffffffffffffffffffffffffffffffffffffff16815260200190815260200160002060008373ffffffffffffffffffffffffffffffffffffffff1673ffffffffffffffffffffffffffffffffffffffff16815260200190815260200160002060009054906101000a900460ff16905092915050565b600960009054906101000a900473ffffffffffffffffffffffffffffffffffffffff1681565b60007f01ffc9a7000000000000000000000000000000000000000000000000000000007bffffffffffffffffffffffffffffffffffffffffffffffffffffffff1916827bffffffffffffffffffffffffffffffffffffffffffffffffffffffff1916149050919050565b60008073ffffffffffffffffffffffffffffffffffffffff166002600084815260200190815260200160002060009054906101000a900473ffffffffffffffffffffffffffffffffffffffff1673ffffffffffffffffffffffffffffffffffffffff1614159050919050565b600033905090565b816004600083815260200190815260200160002060006101000a81548173ffffffffffffffffffffffffffffffffffffffff021916908373ffffffffffffffffffffffffffffffffffffffff160217905550808273ffffffffffffffffffffffffffffffffffffffff166114ee83610841565b73ffffffffffffffffffffffffffffffffffffffff167f8c5be1e5ebec7d5bd14f71427d1e84f3dd0314c0f7b2291e5b200ac8c7c3b92560405160405180910390a45050565b600061153f82611407565b61157e576040517f08c379a000000000000000000000000000000000000000000000000000000000815260040161157590612dde565b60405180910390fd5b600061158983610841565b90508073ffffffffffffffffffffffffffffffffffffffff168473ffffffffffffffffffffffffffffffffffffffff1614806115f857508373ffffffffffffffffffffffffffffffffffffffff166115e084610559565b73ffffffffffffffffffffffffffffffffffffffff16145b80611609575061160881856112e3565b5b91505092915050565b8273ffffffffffffffffffffffffffffffffffffffff1661163282610841565b73ffffffffffffffffffffffffffffffffffffffff1614611688576040517f08c379a000000000000000000000000000000000000000000000000000000000815260040161167f90612e70565b60405180910390fd5b600073ffffffffffffffffffffffffffffffffffffffff168273ffffffffffffffffffffffffffffffffffffffff1614156116f8576040517f08c379a00000000000000000000000000000000000000000000000000000000081526004016116ef90612f02565b60405180910390fd5b611703838383611bbb565b61170e60008261147b565b6001600360008573ffffffffffffffffffffffffffffffffffffffff1673ffffffffffffffffffffffffffffffffffffffff168152602001908152602001600020600082825461175e9190612f22565b925050819055506001600360008473ffffffffffffffffffffffffffffffffffffffff1673ffffffffffffffffffffffffffffffffffffffff16815260200190815260200160002060008282546117b59190612f56565b92505081905550816002600083815260200190815260200160002060006101000a81548173ffffffffffffffffffffffffffffffffffffffff021916908373ffffffffffffffffffffffffffffffffffffffff160217905550808273ffffffffffffffffffffffffffffffffffffffff168473ffffffffffffffffffffffffffffffffffffffff167fddf252ad1be2c89b69c2b068fc378daa952ba7f163c4a11628f55a4df523b3ef60405160405180910390a4505050565b6001816000016000828254019250508190555050565b600081600001549050919050565b6118ac828260405180602001604052806000815250611bc0565b5050565b60006118bb82610841565b90506118c981600084611bbb565b6118d460008361147b565b6001600360008373ffffffffffffffffffffffffffffffffffffffff1673ffffffffffffffffffffffffffffffffffffffff16815260200190815260200160002060008282546119249190612f22565b925050819055506002600083815260200190815260200160002060006101000a81549073ffffffffffffffffffffffffffffffffffffffff021916905581600073ffffffffffffffffffffffffffffffffffffffff168273ffffffffffffffffffffffffffffffffffffffff167fddf252ad1be2c89b69c2b068fc378daa952ba7f163c4a11628f55a4df523b3ef60405160405180910390a45050565b6119cc848484611612565b6119d884848484611c1b565b611a17576040517f08c379a0000000000000000000000000000000000000000000000000000000008152600401611a0e9061301e565b60405180910390fd5b50505050565b60606040518060400160405280601a81526020017f687474703a2f2f6c6f63616c686f73743a353030302f6e66742f000000000000815250905090565b60606000821415611aa2576040518060400160405280600181526020017f30000000000000000000000000000000000000000000000000000000000000008152509050611bb6565b600082905060005b60008214611ad4578080611abd9061303e565b915050600a82611acd91906130b6565b9150611aaa565b60008167ffffffffffffffff811115611af057611aef6124c0565b5b6040519080825280601f01601f191660200182016040528015611b225781602001600182028036833780820191505090505b5090505b60008514611baf57600182611b3b9190612f22565b9150600a85611b4a91906130e7565b6030611b569190612f56565b60f81b818381518110611b6c57611b6b612d3d565b5b60200101907effffffffffffffffffffffffffffffffffffffffffffffffffffffffffffff1916908160001a905350600a85611ba891906130b6565b9450611b26565b8093505050505b919050565b505050565b611bca8383611da3565b611bd76000848484611c1b565b611c16576040517f08c379a0000000000000000000000000000000000000000000000000000000008152600401611c0d9061301e565b60405180910390fd5b505050565b6000611c3c8473ffffffffffffffffffffffffffffffffffffffff16611f71565b15611d96578373ffffffffffffffffffffffffffffffffffffffff1663150b7a02611c65611473565b8786866040518563ffffffff1660e01b8152600401611c87949392919061316d565b6020604051808303816000875af1925050508015611cc357506040513d601f19601f82011682018060405250810190611cc091906131ce565b60015b611d46573d8060008114611cf3576040519150601f19603f3d011682016040523d82523d6000602084013e611cf8565b606091505b50600081511415611d3e576040517f08c379a0000000000000000000000000000000000000000000000000000000008152600401611d359061301e565b60405180910390fd5b805181602001fd5b63150b7a0260e01b7bffffffffffffffffffffffffffffffffffffffffffffffffffffffff1916817bffffffffffffffffffffffffffffffffffffffffffffffffffffffff191614915050611d9b565b600190505b949350505050565b600073ffffffffffffffffffffffffffffffffffffffff168273ffffffffffffffffffffffffffffffffffffffff161415611e13576040517f08c379a0000000000000000000000000000000000000000000000000000000008152600401611e0a90613247565b60405180910390fd5b611e1c81611407565b15611e5c576040517f08c379a0000000000000000000000000000000000000000000000000000000008152600401611e53906132b3565b60405180910390fd5b611e6860008383611bbb565b6001600360008473ffffffffffffffffffffffffffffffffffffffff1673ffffffffffffffffffffffffffffffffffffffff1681526020019081526020016000206000828254611eb89190612f56565b92505081905550816002600083815260200190815260200160002060006101000a81548173ffffffffffffffffffffffffffffffffffffffff021916908373ffffffffffffffffffffffffffffffffffffffff160217905550808273ffffffffffffffffffffffffffffffffffffffff16600073ffffffffffffffffffffffffffffffffffffffff167fddf252ad1be2c89b69c2b068fc378daa952ba7f163c4a11628f55a4df523b3ef60405160405180910390a45050565b600080823b905060008111915050919050565b6040518060800160405280600060ff168152602001600060ff168152602001600060ff168152602001600060ff1681525090565b6000604051905090565b600080fd5b600080fd5b60007fffffffff0000000000000000000000000000000000000000000000000000000082169050919050565b61200181611fcc565b811461200c57600080fd5b50565b60008135905061201e81611ff8565b92915050565b60006020828403121561203a57612039611fc2565b5b60006120488482850161200f565b91505092915050565b60008115159050919050565b61206681612051565b82525050565b6000602082019050612081600083018461205d565b92915050565b600081519050919050565b600082825260208201905092915050565b60005b838110156120c15780820151818401526020810190506120a6565b838111156120d0576000848401525b50505050565b6000601f19601f8301169050919050565b60006120f282612087565b6120fc8185612092565b935061210c8185602086016120a3565b612115816120d6565b840191505092915050565b6000602082019050818103600083015261213a81846120e7565b905092915050565b6000819050919050565b61215581612142565b811461216057600080fd5b50565b6000813590506121728161214c565b92915050565b60006020828403121561218e5761218d611fc2565b5b600061219c84828501612163565b91505092915050565b600073ffffffffffffffffffffffffffffffffffffffff82169050919050565b60006121d0826121a5565b9050919050565b6121e0816121c5565b82525050565b60006020820190506121fb60008301846121d7565b92915050565b61220a816121c5565b811461221557600080fd5b50565b60008135905061222781612201565b92915050565b6000806040838503121561224457612243611fc2565b5b600061225285828601612218565b925050602061226385828601612163565b9150509250929050565b600060ff82169050919050565b6122838161226d565b82525050565b60808201600082015161229f600085018261227a565b5060208201516122b2602085018261227a565b5060408201516122c5604085018261227a565b5060608201516122d8606085018261227a565b50505050565b60006080820190506122f36000830184612289565b92915050565b60008060006060848603121561231257612311611fc2565b5b600061232086828701612218565b935050602061233186828701612218565b925050604061234286828701612163565b9150509250925092565b60006020828403121561236257612361611fc2565b5b600061237084828501612218565b91505092915050565b61238281612142565b82525050565b600060208201905061239d6000830184612379565b92915050565b6123ac8161226d565b81146123b757600080fd5b50565b6000813590506123c9816123a3565b92915050565b600080600080600060a086880312156123eb576123ea611fc2565b5b60006123f988828901612163565b955050602061240a888289016123ba565b945050604061241b888289016123ba565b935050606061242c888289016123ba565b925050608061243d888289016123ba565b9150509295509295909350565b61245381612051565b811461245e57600080fd5b50565b6000813590506124708161244a565b92915050565b6000806040838503121561248d5761248c611fc2565b5b600061249b85828601612218565b92505060206124ac85828601612461565b9150509250929050565b600080fd5b600080fd5b7f4e487b7100000000000000000000000000000000000000000000000000000000600052604160045260246000fd5b6124f8826120d6565b810181811067ffffffffffffffff82111715612517576125166124c0565b5b80604052505050565b600061252a611fb8565b905061253682826124ef565b919050565b600067ffffffffffffffff821115612556576125556124c0565b5b61255f826120d6565b9050602081019050919050565b82818337600083830152505050565b600061258e6125898461253b565b612520565b9050828152602081018484840111156125aa576125a96124bb565b5b6125b584828561256c565b509392505050565b600082601f8301126125d2576125d16124b6565b5b81356125e284826020860161257b565b91505092915050565b6000806000806080858703121561260557612604611fc2565b5b600061261387828801612218565b945050602061262487828801612218565b935050604061263587828801612163565b925050606085013567ffffffffffffffff81111561265657612655611fc7565b5b612662878288016125bd565b91505092959194509250565b6126778161226d565b82525050565b6000608082019050612692600083018761266e565b61269f602083018661266e565b6126ac604083018561266e565b6126b9606083018461266e565b95945050505050565b600080604083850312156126d9576126d8611fc2565b5b60006126e785828601612218565b92505060206126f885828601612218565b9150509250929050565b7f4e487b7100000000000000000000000000000000000000000000000000000000600052602260045260246000fd5b6000600282049050600182168061274957607f821691505b6020821081141561275d5761275c612702565b5b50919050565b7f4552433732313a20617070726f76656420717565727920666f72206e6f6e657860008201527f697374656e7420746f6b656e0000000000000000000000000000000000000000602082015250565b60006127bf602c83612092565b91506127ca82612763565b604082019050919050565b600060208201905081810360008301526127ee816127b2565b9050919050565b7f4552433732313a20617070726f76616c20746f2063757272656e74206f776e6560008201527f7200000000000000000000000000000000000000000000000000000000000000602082015250565b6000612851602183612092565b915061285c826127f5565b604082019050919050565b6000602082019050818103600083015261288081612844565b9050919050565b7f4552433732313a20617070726f76652063616c6c6572206973206e6f74206f7760008201527f6e6572206e6f7220617070726f76656420666f7220616c6c0000000000000000602082015250565b60006128e3603883612092565b91506128ee82612887565b604082019050919050565b60006020820190508181036000830152612912816128d6565b9050919050565b7f4552433732313a207472616e736665722063616c6c6572206973206e6f74206f60008201527f776e6572206e6f7220617070726f766564000000000000000000000000000000602082015250565b6000612975603183612092565b915061298082612919565b604082019050919050565b600060208201905081810360008301526129a481612968565b9050919050565b7f4552433732313a206f776e657220717565727920666f72206e6f6e657869737460008201527f656e7420746f6b656e0000000000000000000000000000000000000000000000602082015250565b6000612a07602983612092565b9150612a12826129ab565b604082019050919050565b60006020820190508181036000830152612a36816129fa565b9050919050565b7f4f6e6c79207468652061646d696e2063616e20646f2074686973000000000000600082015250565b6000612a73601a83612092565b9150612a7e82612a3d565b602082019050919050565b60006020820190508181036000830152612aa281612a66565b9050919050565b6000606082019050612abe6000830186612379565b8181036020830152612ad081856120e7565b9050612adf6040830184612379565b949350505050565b7f4552433732313a2062616c616e636520717565727920666f7220746865207a6560008201527f726f206164647265737300000000000000000000000000000000000000000000602082015250565b6000612b43602a83612092565b9150612b4e82612ae7565b604082019050919050565b60006020820190508181036000830152612b7281612b36565b9050919050565b7f4e487b7100000000000000000000000000000000000000000000000000000000600052601160045260246000fd5b6000612bb38261226d565b9150612bbe8361226d565b92508260ff03821115612bd457612bd3612b79565b5b828201905092915050565b7f4552433732313a20617070726f766520746f2063616c6c657200000000000000600082015250565b6000612c15601983612092565b9150612c2082612bdf565b602082019050919050565b60006020820190508181036000830152612c4481612c08565b9050919050565b7f4552433732314d657461646174613a2055524920717565727920666f72206e6f60008201527f6e6578697374656e7420746f6b656e0000000000000000000000000000000000602082015250565b6000612ca7602f83612092565b9150612cb282612c4b565b604082019050919050565b60006020820190508181036000830152612cd681612c9a565b9050919050565b600081905092915050565b6000612cf382612087565b612cfd8185612cdd565b9350612d0d8185602086016120a3565b80840191505092915050565b6000612d258285612ce8565b9150612d318284612ce8565b91508190509392505050565b7f4e487b7100000000000000000000000000000000000000000000000000000000600052603260045260246000fd5b7f4552433732313a206f70657261746f7220717565727920666f72206e6f6e657860008201527f697374656e7420746f6b656e0000000000000000000000000000000000000000602082015250565b6000612dc8602c83612092565b9150612dd382612d6c565b604082019050919050565b60006020820190508181036000830152612df781612dbb565b9050919050565b7f4552433732313a207472616e73666572206f6620746f6b656e2074686174206960008201527f73206e6f74206f776e0000000000000000000000000000000000000000000000602082015250565b6000612e5a602983612092565b9150612e6582612dfe565b604082019050919050565b60006020820190508181036000830152612e8981612e4d565b9050919050565b7f4552433732313a207472616e7366657220746f20746865207a65726f2061646460008201527f7265737300000000000000000000000000000000000000000000000000000000602082015250565b6000612eec602483612092565b9150612ef782612e90565b604082019050919050565b60006020820190508181036000830152612f1b81612edf565b9050919050565b6000612f2d82612142565b9150612f3883612142565b925082821015612f4b57612f4a612b79565b5b828203905092915050565b6000612f6182612142565b9150612f6c83612142565b9250827fffffffffffffffffffffffffffffffffffffffffffffffffffffffffffffffff03821115612fa157612fa0612b79565b5b828201905092915050565b7f4552433732313a207472616e7366657220746f206e6f6e20455243373231526560008201527f63656976657220696d706c656d656e7465720000000000000000000000000000602082015250565b6000613008603283612092565b915061301382612fac565b604082019050919050565b6000602082019050818103600083015261303781612ffb565b9050919050565b600061304982612142565b91507fffffffffffffffffffffffffffffffffffffffffffffffffffffffffffffffff82141561307c5761307b612b79565b5b600182019050919050565b7f4e487b7100000000000000000000000000000000000000000000000000000000600052601260045260246000fd5b60006130c182612142565b91506130cc83612142565b9250826130dc576130db613087565b5b828204905092915050565b60006130f282612142565b91506130fd83612142565b92508261310d5761310c613087565b5b828206905092915050565b600081519050919050565b600082825260208201905092915050565b600061313f82613118565b6131498185613123565b93506131598185602086016120a3565b613162816120d6565b840191505092915050565b600060808201905061318260008301876121d7565b61318f60208301866121d7565b61319c6040830185612379565b81810360608301526131ae8184613134565b905095945050505050565b6000815190506131c881611ff8565b92915050565b6000602082840312156131e4576131e3611fc2565b5b60006131f2848285016131b9565b91505092915050565b7f4552433732313a206d696e7420746f20746865207a65726f2061646472657373600082015250565b6000613231602083612092565b915061323c826131fb565b602082019050919050565b6000602082019050818103600083015261326081613224565b9050919050565b7f4552433732313a20746f6b656e20616c7265616479206d696e74656400000000600082015250565b600061329d601c83612092565b91506132a882613267565b602082019050919050565b600060208201905081810360008301526132cc81613290565b905091905056fea2646970667358221220d74dc04537ef02605d89e23002002939a5803a32061c87c6d08d9a9c434a605964736f6c634300080a0033",
  "immutableReferences": {},
  "source": "// SPDX-License-Identifier: MIT\r\npragma solidity ^0.8.0;\r\n\r\nimport '@openzeppelin/contracts/token/ERC721/ERC721.sol';\r\nimport '@openzeppelin/contracts/utils/Counters.sol';\r\n\r\ncontract StartupHeroCreator is ERC721 {\r\n  using Counters for Counters.Counter;\r\n  Counters.Counter private _tokenIds;\r\n\r\n  struct attributes {\r\n    uint8 artist;\r\n    uint8 hacker;\r\n    uint8 hustler;\r\n    uint8 success;\r\n  }\r\n  mapping(address => attributes) public userStoredAttributes;    \r\n  mapping(address => uint256[]) private userOwnedTokens;\r\n\r\n  address public admin;\r\n\r\n  constructor() ERC721('Startup Hero', 'SUP') {\r\n    admin = msg.sender;\r\n  }\r\n\r\n  function mint(address to) onlyAdmin() external {\r\n    _tokenIds.increment();\r\n    uint256 newItemId = _tokenIds.current();\r\n    userOwnedTokens[msg.sender].push(newItemId);\r\n    _safeMint(to, newItemId);\r\n\r\n    string memory uri = tokenURI(newItemId);\r\n    uint256 time = block.timestamp;\r\n\r\n    userStoredAttributes[msg.sender].artist = 0;\r\n    userStoredAttributes[msg.sender].hacker = 0;\r\n    userStoredAttributes[msg.sender].hustler = 0;\r\n    userStoredAttributes[msg.sender].success = 0;\r\n    \r\n    emit NftMinted(newItemId, uri, time);\r\n  }\r\n\r\n  function burn(uint256 tokenId, uint8 _artist, uint8 _hacker, uint8 _hustler, uint8 _success) onlyAdmin() public {\r\n    userStoredAttributes[msg.sender].artist += _artist;\r\n    userStoredAttributes[msg.sender].hacker += _hacker;\r\n    userStoredAttributes[msg.sender].hustler += _hustler;\r\n    userStoredAttributes[msg.sender].success += _success;\r\n\r\n    _burn(tokenId);\r\n  }\r\n\r\n  function _baseURI() internal override pure returns (string memory) {\r\n    return 'http://localhost:5000/nft/';\r\n  }\r\n  \r\n  function getToken(uint256 index) public view returns (uint256) {\r\n      return userOwnedTokens[msg.sender][index];\r\n  }\r\n\r\n   function getAttributes() public view returns (attributes memory) {\r\n      return userStoredAttributes[msg.sender];\r\n  }\r\n\r\n  modifier onlyAdmin {\r\n      require(msg.sender == admin, \"Only the admin can do this\");\r\n      _;\r\n  }\r\n\r\n  event NftMinted(uint256 _tid, string _uri, uint256 _time);\r\n}",
  "sourcePath": "D:\\Projects\\ETB\\startupHero\\contracts\\StartupHeroCreator.sol",
  "compiler": {
    "name": "solc",
    "version": "0.8.10+commit.fc410830.Emscripten.clang"
  },
  "schemaVersion": "3.4.3",
  "updatedAt": "2021-11-11T16:26:33.216Z",
  "networkType": "ethereum",
  "devdoc": {
    "kind": "dev",
    "methods": {
      "approve(address,uint256)": {
        "details": "See {IERC721-approve}."
      },
      "balanceOf(address)": {
        "details": "See {IERC721-balanceOf}."
      },
      "getApproved(uint256)": {
        "details": "See {IERC721-getApproved}."
      },
      "isApprovedForAll(address,address)": {
        "details": "See {IERC721-isApprovedForAll}."
      },
      "name()": {
        "details": "See {IERC721Metadata-name}."
      },
      "ownerOf(uint256)": {
        "details": "See {IERC721-ownerOf}."
      },
      "safeTransferFrom(address,address,uint256)": {
        "details": "See {IERC721-safeTransferFrom}."
      },
      "safeTransferFrom(address,address,uint256,bytes)": {
        "details": "See {IERC721-safeTransferFrom}."
      },
      "setApprovalForAll(address,bool)": {
        "details": "See {IERC721-setApprovalForAll}."
      },
      "supportsInterface(bytes4)": {
        "details": "See {IERC165-supportsInterface}."
      },
      "symbol()": {
        "details": "See {IERC721Metadata-symbol}."
      },
      "tokenURI(uint256)": {
        "details": "See {IERC721Metadata-tokenURI}."
      },
      "transferFrom(address,address,uint256)": {
        "details": "See {IERC721-transferFrom}."
      }
    },
    "version": 1
  },
  "userdoc": {
    "kind": "user",
    "methods": {},
    "version": 1
  }
}