{
  "contractName": "StartupHeroCreator",
  "abi": [
    {
      "inputs": [],
      "stateMutability": "nonpayable",
      "type": "constructor"
    },
    {
      "anonymous": false,
      "inputs": [
        {
          "indexed": true,
          "internalType": "address",
          "name": "owner",
          "type": "address"
        },
        {
          "indexed": true,
          "internalType": "address",
          "name": "approved",
          "type": "address"
        },
        {
          "indexed": true,
          "internalType": "uint256",
          "name": "tokenId",
          "type": "uint256"
        }
      ],
      "name": "Approval",
      "type": "event"
    },
    {
      "anonymous": false,
      "inputs": [
        {
          "indexed": true,
          "internalType": "address",
          "name": "owner",
          "type": "address"
        },
        {
          "indexed": true,
          "internalType": "address",
          "name": "operator",
          "type": "address"
        },
        {
          "indexed": false,
          "internalType": "bool",
          "name": "approved",
          "type": "bool"
        }
      ],
      "name": "ApprovalForAll",
      "type": "event"
    },
    {
      "anonymous": false,
      "inputs": [
        {
          "indexed": false,
          "internalType": "uint256",
          "name": "_tid",
          "type": "uint256"
        },
        {
          "indexed": false,
          "internalType": "string",
          "name": "_uri",
          "type": "string"
        },
        {
          "indexed": false,
          "internalType": "uint256",
          "name": "_time",
          "type": "uint256"
        }
      ],
      "name": "NftMinted",
      "type": "event"
    },
    {
      "anonymous": false,
      "inputs": [
        {
          "indexed": true,
          "internalType": "address",
          "name": "from",
          "type": "address"
        },
        {
          "indexed": true,
          "internalType": "address",
          "name": "to",
          "type": "address"
        },
        {
          "indexed": true,
          "internalType": "uint256",
          "name": "tokenId",
          "type": "uint256"
        }
      ],
      "name": "Transfer",
      "type": "event"
    },
    {
      "inputs": [],
      "name": "admin",
      "outputs": [
        {
          "internalType": "address",
          "name": "",
          "type": "address"
        }
      ],
      "stateMutability": "view",
      "type": "function",
      "constant": true
    },
    {
      "inputs": [
        {
          "internalType": "address",
          "name": "to",
          "type": "address"
        },
        {
          "internalType": "uint256",
          "name": "tokenId",
          "type": "uint256"
        }
      ],
      "name": "approve",
      "outputs": [],
      "stateMutability": "nonpayable",
      "type": "function"
    },
    {
      "inputs": [
        {
          "internalType": "address",
          "name": "owner",
          "type": "address"
        }
      ],
      "name": "balanceOf",
      "outputs": [
        {
          "internalType": "uint256",
          "name": "",
          "type": "uint256"
        }
      ],
      "stateMutability": "view",
      "type": "function",
      "constant": true
    },
    {
      "inputs": [
        {
          "internalType": "uint256",
          "name": "tokenId",
          "type": "uint256"
        }
      ],
      "name": "getApproved",
      "outputs": [
        {
          "internalType": "address",
          "name": "",
          "type": "address"
        }
      ],
      "stateMutability": "view",
      "type": "function",
      "constant": true
    },
    {
      "inputs": [
        {
          "internalType": "address",
          "name": "owner",
          "type": "address"
        },
        {
          "internalType": "address",
          "name": "operator",
          "type": "address"
        }
      ],
      "name": "isApprovedForAll",
      "outputs": [
        {
          "internalType": "bool",
          "name": "",
          "type": "bool"
        }
      ],
      "stateMutability": "view",
      "type": "function",
      "constant": true
    },
    {
      "inputs": [],
      "name": "name",
      "outputs": [
        {
          "internalType": "string",
          "name": "",
          "type": "string"
        }
      ],
      "stateMutability": "view",
      "type": "function",
      "constant": true
    },
    {
      "inputs": [
        {
          "internalType": "uint256",
          "name": "tokenId",
          "type": "uint256"
        }
      ],
      "name": "ownerOf",
      "outputs": [
        {
          "internalType": "address",
          "name": "",
          "type": "address"
        }
      ],
      "stateMutability": "view",
      "type": "function",
      "constant": true
    },
    {
      "inputs": [
        {
          "internalType": "address",
          "name": "from",
          "type": "address"
        },
        {
          "internalType": "address",
          "name": "to",
          "type": "address"
        },
        {
          "internalType": "uint256",
          "name": "tokenId",
          "type": "uint256"
        }
      ],
      "name": "safeTransferFrom",
      "outputs": [],
      "stateMutability": "nonpayable",
      "type": "function"
    },
    {
      "inputs": [
        {
          "internalType": "address",
          "name": "from",
          "type": "address"
        },
        {
          "internalType": "address",
          "name": "to",
          "type": "address"
        },
        {
          "internalType": "uint256",
          "name": "tokenId",
          "type": "uint256"
        },
        {
          "internalType": "bytes",
          "name": "_data",
          "type": "bytes"
        }
      ],
      "name": "safeTransferFrom",
      "outputs": [],
      "stateMutability": "nonpayable",
      "type": "function"
    },
    {
      "inputs": [
        {
          "internalType": "address",
          "name": "operator",
          "type": "address"
        },
        {
          "internalType": "bool",
          "name": "approved",
          "type": "bool"
        }
      ],
      "name": "setApprovalForAll",
      "outputs": [],
      "stateMutability": "nonpayable",
      "type": "function"
    },
    {
      "inputs": [
        {
          "internalType": "bytes4",
          "name": "interfaceId",
          "type": "bytes4"
        }
      ],
      "name": "supportsInterface",
      "outputs": [
        {
          "internalType": "bool",
          "name": "",
          "type": "bool"
        }
      ],
      "stateMutability": "view",
      "type": "function",
      "constant": true
    },
    {
      "inputs": [],
      "name": "symbol",
      "outputs": [
        {
          "internalType": "string",
          "name": "",
          "type": "string"
        }
      ],
      "stateMutability": "view",
      "type": "function",
      "constant": true
    },
    {
      "inputs": [
        {
          "internalType": "uint256",
          "name": "tokenId",
          "type": "uint256"
        }
      ],
      "name": "tokenURI",
      "outputs": [
        {
          "internalType": "string",
          "name": "",
          "type": "string"
        }
      ],
      "stateMutability": "view",
      "type": "function",
      "constant": true
    },
    {
      "inputs": [
        {
          "internalType": "address",
          "name": "from",
          "type": "address"
        },
        {
          "internalType": "address",
          "name": "to",
          "type": "address"
        },
        {
          "internalType": "uint256",
          "name": "tokenId",
          "type": "uint256"
        }
      ],
      "name": "transferFrom",
      "outputs": [],
      "stateMutability": "nonpayable",
      "type": "function"
    },
    {
      "inputs": [
        {
          "internalType": "address",
          "name": "",
          "type": "address"
        }
      ],
      "name": "userStoredAttributes",
      "outputs": [
        {
          "internalType": "uint8",
          "name": "artist",
          "type": "uint8"
        },
        {
          "internalType": "uint8",
          "name": "hacker",
          "type": "uint8"
        },
        {
          "internalType": "uint8",
          "name": "hustler",
          "type": "uint8"
        },
        {
          "internalType": "uint8",
          "name": "success",
          "type": "uint8"
        }
      ],
      "stateMutability": "view",
      "type": "function",
      "constant": true
    },
    {
      "inputs": [
        {
          "internalType": "address",
          "name": "to",
          "type": "address"
        }
      ],
      "name": "mint",
      "outputs": [],
      "stateMutability": "nonpayable",
      "type": "function"
    },
    {
      "inputs": [
        {
          "internalType": "uint256",
          "name": "tokenId",
          "type": "uint256"
        },
        {
          "internalType": "uint8",
          "name": "_artist",
          "type": "uint8"
        },
        {
          "internalType": "uint8",
          "name": "_hacker",
          "type": "uint8"
        },
        {
          "internalType": "uint8",
          "name": "_hustler",
          "type": "uint8"
        },
        {
          "internalType": "uint8",
          "name": "_success",
          "type": "uint8"
        }
      ],
      "name": "burn",
      "outputs": [],
      "stateMutability": "nonpayable",
      "type": "function"
    },
    {
      "inputs": [
        {
          "internalType": "uint256",
          "name": "index",
          "type": "uint256"
        }
      ],
      "name": "getToken",
      "outputs": [
        {
          "internalType": "uint256",
          "name": "",
          "type": "uint256"
        }
      ],
      "stateMutability": "view",
      "type": "function",
      "constant": true
    }
  ],
  "bytecode": "0x60806040523480156200001157600080fd5b506040518060400160405280600c81526020017f53746172747570204865726f00000000000000000000000000000000000000008152506040518060400160405280600381526020017f5355500000000000000000000000000000000000000000000000000000000000815250816000908051906020019062000096929190620000f9565b508060019080519060200190620000af929190620000f9565b50505033600960006101000a81548173ffffffffffffffffffffffffffffffffffffffff021916908373ffffffffffffffffffffffffffffffffffffffff1602179055506200020e565b8280546200010790620001d8565b90600052602060002090601f0160209004810192826200012b576000855562000177565b82601f106200014657805160ff191683800117855562000177565b8280016001018555821562000177579182015b828111156200017657825182559160200191906001019062000159565b5b5090506200018691906200018a565b5090565b5b80821115620001a55760008160009055506001016200018b565b5090565b7f4e487b7100000000000000000000000000000000000000000000000000000000600052602260045260246000fd5b60006002820490506001821680620001f157607f821691505b60208210811415620002085762000207620001a9565b5b50919050565b613001806200021e6000396000f3fe608060405234801561001057600080fd5b50600436106101165760003560e01c806395d89b41116100a2578063c87b56dd11610071578063c87b56dd146102db578063c92ff41b1461030b578063e4b50cb81461033e578063e985e9c51461036e578063f851a4401461039e57610116565b806395d89b411461026957806396c71c0114610287578063a22cb465146102a3578063b88d4fde146102bf57610116565b806323b872dd116100e957806323b872dd146101b557806342842e0e146101d15780636352211e146101ed5780636a6278421461021d57806370a082311461023957610116565b806301ffc9a71461011b57806306fdde031461014b578063081812fc14610169578063095ea7b314610199575b600080fd5b61013560048036038101906101309190611d9b565b6103bc565b6040516101429190611de3565b60405180910390f35b61015361049e565b6040516101609190611e97565b60405180910390f35b610183600480360381019061017e9190611eef565b610530565b6040516101909190611f5d565b60405180910390f35b6101b360048036038101906101ae9190611fa4565b6105b5565b005b6101cf60048036038101906101ca9190611fe4565b6106cd565b005b6101eb60048036038101906101e69190611fe4565b61072d565b005b61020760048036038101906102029190611eef565b61074d565b6040516102149190611f5d565b60405180910390f35b61023760048036038101906102329190612037565b6107ff565b005b610253600480360381019061024e9190612037565b61096a565b6040516102609190612073565b60405180910390f35b610271610a22565b60405161027e9190611e97565b60405180910390f35b6102a1600480360381019061029c91906120c7565b610ab4565b005b6102bd60048036038101906102b8919061216e565b610d2c565b005b6102d960048036038101906102d491906122e3565b610ead565b005b6102f560048036038101906102f09190611eef565b610f0f565b6040516103029190611e97565b60405180910390f35b61032560048036038101906103209190612037565b610fb6565b6040516103359493929190612375565b60405180910390f35b61035860048036038101906103539190611eef565b61101a565b6040516103659190612073565b60405180910390f35b610388600480360381019061038391906123ba565b61107f565b6040516103959190611de3565b60405180910390f35b6103a6611113565b6040516103b39190611f5d565b60405180910390f35b60007f80ac58cd000000000000000000000000000000000000000000000000000000007bffffffffffffffffffffffffffffffffffffffffffffffffffffffff1916827bffffffffffffffffffffffffffffffffffffffffffffffffffffffff1916148061048757507f5b5e139f000000000000000000000000000000000000000000000000000000007bffffffffffffffffffffffffffffffffffffffffffffffffffffffff1916827bffffffffffffffffffffffffffffffffffffffffffffffffffffffff1916145b80610497575061049682611139565b5b9050919050565b6060600080546104ad90612429565b80601f01602080910402602001604051908101604052809291908181526020018280546104d990612429565b80156105265780601f106104fb57610100808354040283529160200191610526565b820191906000526020600020905b81548152906001019060200180831161050957829003601f168201915b5050505050905090565b600061053b826111a3565b61057a576040517f08c379a0000000000000000000000000000000000000000000000000000000008152600401610571906124cd565b60405180910390fd5b6004600083815260200190815260200160002060009054906101000a900473ffffffffffffffffffffffffffffffffffffffff169050919050565b60006105c08261074d565b90508073ffffffffffffffffffffffffffffffffffffffff168373ffffffffffffffffffffffffffffffffffffffff161415610631576040517f08c379a00000000000000000000000000000000000000000000000000000000081526004016106289061255f565b60405180910390fd5b8073ffffffffffffffffffffffffffffffffffffffff1661065061120f565b73ffffffffffffffffffffffffffffffffffffffff16148061067f575061067e8161067961120f565b61107f565b5b6106be576040517f08c379a00000000000000000000000000000000000000000000000000000000081526004016106b5906125f1565b60405180910390fd5b6106c88383611217565b505050565b6106de6106d861120f565b826112d0565b61071d576040517f08c379a000000000000000000000000000000000000000000000000000000000815260040161071490612683565b60405180910390fd5b6107288383836113ae565b505050565b61074883838360405180602001604052806000815250610ead565b505050565b6000806002600084815260200190815260200160002060009054906101000a900473ffffffffffffffffffffffffffffffffffffffff169050600073ffffffffffffffffffffffffffffffffffffffff168173ffffffffffffffffffffffffffffffffffffffff1614156107f6576040517f08c379a00000000000000000000000000000000000000000000000000000000081526004016107ed90612715565b60405180910390fd5b80915050919050565b600960009054906101000a900473ffffffffffffffffffffffffffffffffffffffff1673ffffffffffffffffffffffffffffffffffffffff163373ffffffffffffffffffffffffffffffffffffffff161461088f576040517f08c379a000000000000000000000000000000000000000000000000000000000815260040161088690612781565b60405180910390fd5b610899600661160a565b60006108a56006611620565b9050600860003373ffffffffffffffffffffffffffffffffffffffff1673ffffffffffffffffffffffffffffffffffffffff168152602001908152602001600020819080600181540180825580915050600190039060005260206000200160009091909190915055610917828261162e565b600061092282610f0f565b905060004290507fa31f79813114a256d7b25634d9e6bfb8efe7e057562207531f80839b7a16666183838360405161095c939291906127a1565b60405180910390a150505050565b60008073ffffffffffffffffffffffffffffffffffffffff168273ffffffffffffffffffffffffffffffffffffffff1614156109db576040517f08c379a00000000000000000000000000000000000000000000000000000000081526004016109d290612851565b60405180910390fd5b600360008373ffffffffffffffffffffffffffffffffffffffff1673ffffffffffffffffffffffffffffffffffffffff168152602001908152602001600020549050919050565b606060018054610a3190612429565b80601f0160208091040260200160405190810160405280929190818152602001828054610a5d90612429565b8015610aaa5780601f10610a7f57610100808354040283529160200191610aaa565b820191906000526020600020905b815481529060010190602001808311610a8d57829003601f168201915b5050505050905090565b600960009054906101000a900473ffffffffffffffffffffffffffffffffffffffff1673ffffffffffffffffffffffffffffffffffffffff163373ffffffffffffffffffffffffffffffffffffffff1614610b44576040517f08c379a0000000000000000000000000000000000000000000000000000000008152600401610b3b90612781565b60405180910390fd5b83600760003373ffffffffffffffffffffffffffffffffffffffff1673ffffffffffffffffffffffffffffffffffffffff16815260200190815260200160002060000160008282829054906101000a900460ff16610ba291906128a0565b92506101000a81548160ff021916908360ff16021790555082600760003373ffffffffffffffffffffffffffffffffffffffff1673ffffffffffffffffffffffffffffffffffffffff16815260200190815260200160002060000160018282829054906101000a900460ff16610c1891906128a0565b92506101000a81548160ff021916908360ff16021790555081600760003373ffffffffffffffffffffffffffffffffffffffff1673ffffffffffffffffffffffffffffffffffffffff16815260200190815260200160002060000160028282829054906101000a900460ff16610c8e91906128a0565b92506101000a81548160ff021916908360ff16021790555080600760003373ffffffffffffffffffffffffffffffffffffffff1673ffffffffffffffffffffffffffffffffffffffff16815260200190815260200160002060000160038282829054906101000a900460ff16610d0491906128a0565b92506101000a81548160ff021916908360ff160217905550610d258561164c565b5050505050565b610d3461120f565b73ffffffffffffffffffffffffffffffffffffffff168273ffffffffffffffffffffffffffffffffffffffff161415610da2576040517f08c379a0000000000000000000000000000000000000000000000000000000008152600401610d9990612923565b60405180910390fd5b8060056000610daf61120f565b73ffffffffffffffffffffffffffffffffffffffff1673ffffffffffffffffffffffffffffffffffffffff16815260200190815260200160002060008473ffffffffffffffffffffffffffffffffffffffff1673ffffffffffffffffffffffffffffffffffffffff16815260200190815260200160002060006101000a81548160ff0219169083151502179055508173ffffffffffffffffffffffffffffffffffffffff16610e5c61120f565b73ffffffffffffffffffffffffffffffffffffffff167f17307eab39ab6107e8899845ad3d59bd9653f200f220920489ca2b5937696c3183604051610ea19190611de3565b60405180910390a35050565b610ebe610eb861120f565b836112d0565b610efd576040517f08c379a0000000000000000000000000000000000000000000000000000000008152600401610ef490612683565b60405180910390fd5b610f098484848461175d565b50505050565b6060610f1a826111a3565b610f59576040517f08c379a0000000000000000000000000000000000000000000000000000000008152600401610f50906129b5565b60405180910390fd5b6000610f636117b9565b90506000815111610f835760405180602001604052806000815250610fae565b80610f8d846117f6565b604051602001610f9e929190612a11565b6040516020818303038152906040525b915050919050565b60076020528060005260406000206000915090508060000160009054906101000a900460ff16908060000160019054906101000a900460ff16908060000160029054906101000a900460ff16908060000160039054906101000a900460ff16905084565b6000600860003373ffffffffffffffffffffffffffffffffffffffff1673ffffffffffffffffffffffffffffffffffffffff168152602001908152602001600020828154811061106d5761106c612a35565b5b90600052602060002001549050919050565b6000600560008473ffffffffffffffffffffffffffffffffffffffff1673ffffffffffffffffffffffffffffffffffffffff16815260200190815260200160002060008373ffffffffffffffffffffffffffffffffffffffff1673ffffffffffffffffffffffffffffffffffffffff16815260200190815260200160002060009054906101000a900460ff16905092915050565b600960009054906101000a900473ffffffffffffffffffffffffffffffffffffffff1681565b60007f01ffc9a7000000000000000000000000000000000000000000000000000000007bffffffffffffffffffffffffffffffffffffffffffffffffffffffff1916827bffffffffffffffffffffffffffffffffffffffffffffffffffffffff1916149050919050565b60008073ffffffffffffffffffffffffffffffffffffffff166002600084815260200190815260200160002060009054906101000a900473ffffffffffffffffffffffffffffffffffffffff1673ffffffffffffffffffffffffffffffffffffffff1614159050919050565b600033905090565b816004600083815260200190815260200160002060006101000a81548173ffffffffffffffffffffffffffffffffffffffff021916908373ffffffffffffffffffffffffffffffffffffffff160217905550808273ffffffffffffffffffffffffffffffffffffffff1661128a8361074d565b73ffffffffffffffffffffffffffffffffffffffff167f8c5be1e5ebec7d5bd14f71427d1e84f3dd0314c0f7b2291e5b200ac8c7c3b92560405160405180910390a45050565b60006112db826111a3565b61131a576040517f08c379a000000000000000000000000000000000000000000000000000000000815260040161131190612ad6565b60405180910390fd5b60006113258361074d565b90508073ffffffffffffffffffffffffffffffffffffffff168473ffffffffffffffffffffffffffffffffffffffff16148061139457508373ffffffffffffffffffffffffffffffffffffffff1661137c84610530565b73ffffffffffffffffffffffffffffffffffffffff16145b806113a557506113a4818561107f565b5b91505092915050565b8273ffffffffffffffffffffffffffffffffffffffff166113ce8261074d565b73ffffffffffffffffffffffffffffffffffffffff1614611424576040517f08c379a000000000000000000000000000000000000000000000000000000000815260040161141b90612b68565b60405180910390fd5b600073ffffffffffffffffffffffffffffffffffffffff168273ffffffffffffffffffffffffffffffffffffffff161415611494576040517f08c379a000000000000000000000000000000000000000000000000000000000815260040161148b90612bfa565b60405180910390fd5b61149f838383611957565b6114aa600082611217565b6001600360008573ffffffffffffffffffffffffffffffffffffffff1673ffffffffffffffffffffffffffffffffffffffff16815260200190815260200160002060008282546114fa9190612c1a565b925050819055506001600360008473ffffffffffffffffffffffffffffffffffffffff1673ffffffffffffffffffffffffffffffffffffffff16815260200190815260200160002060008282546115519190612c4e565b92505081905550816002600083815260200190815260200160002060006101000a81548173ffffffffffffffffffffffffffffffffffffffff021916908373ffffffffffffffffffffffffffffffffffffffff160217905550808273ffffffffffffffffffffffffffffffffffffffff168473ffffffffffffffffffffffffffffffffffffffff167fddf252ad1be2c89b69c2b068fc378daa952ba7f163c4a11628f55a4df523b3ef60405160405180910390a4505050565b6001816000016000828254019250508190555050565b600081600001549050919050565b61164882826040518060200160405280600081525061195c565b5050565b60006116578261074d565b905061166581600084611957565b611670600083611217565b6001600360008373ffffffffffffffffffffffffffffffffffffffff1673ffffffffffffffffffffffffffffffffffffffff16815260200190815260200160002060008282546116c09190612c1a565b925050819055506002600083815260200190815260200160002060006101000a81549073ffffffffffffffffffffffffffffffffffffffff021916905581600073ffffffffffffffffffffffffffffffffffffffff168273ffffffffffffffffffffffffffffffffffffffff167fddf252ad1be2c89b69c2b068fc378daa952ba7f163c4a11628f55a4df523b3ef60405160405180910390a45050565b6117688484846113ae565b611774848484846119b7565b6117b3576040517f08c379a00000000000000000000000000000000000000000000000000000000081526004016117aa90612d16565b60405180910390fd5b50505050565b60606040518060400160405280601a81526020017f687474703a2f2f6c6f63616c686f73743a353030302f6e66742f000000000000815250905090565b6060600082141561183e576040518060400160405280600181526020017f30000000000000000000000000000000000000000000000000000000000000008152509050611952565b600082905060005b6000821461187057808061185990612d36565b915050600a826118699190612dae565b9150611846565b60008167ffffffffffffffff81111561188c5761188b6121b8565b5b6040519080825280601f01601f1916602001820160405280156118be5781602001600182028036833780820191505090505b5090505b6000851461194b576001826118d79190612c1a565b9150600a856118e69190612ddf565b60306118f29190612c4e565b60f81b81838151811061190857611907612a35565b5b60200101907effffffffffffffffffffffffffffffffffffffffffffffffffffffffffffff1916908160001a905350600a856119449190612dae565b94506118c2565b8093505050505b919050565b505050565b6119668383611b4e565b61197360008484846119b7565b6119b2576040517f08c379a00000000000000000000000000000000000000000000000000000000081526004016119a990612d16565b60405180910390fd5b505050565b60006119d88473ffffffffffffffffffffffffffffffffffffffff16611d1c565b15611b41578373ffffffffffffffffffffffffffffffffffffffff1663150b7a02611a0161120f565b8786866040518563ffffffff1660e01b8152600401611a239493929190612e65565b602060405180830381600087803b158015611a3d57600080fd5b505af1925050508015611a6e57506040513d601f19601f82011682018060405250810190611a6b9190612ec6565b60015b611af1573d8060008114611a9e576040519150601f19603f3d011682016040523d82523d6000602084013e611aa3565b606091505b50600081511415611ae9576040517f08c379a0000000000000000000000000000000000000000000000000000000008152600401611ae090612d16565b60405180910390fd5b805181602001fd5b63150b7a0260e01b7bffffffffffffffffffffffffffffffffffffffffffffffffffffffff1916817bffffffffffffffffffffffffffffffffffffffffffffffffffffffff191614915050611b46565b600190505b949350505050565b600073ffffffffffffffffffffffffffffffffffffffff168273ffffffffffffffffffffffffffffffffffffffff161415611bbe576040517f08c379a0000000000000000000000000000000000000000000000000000000008152600401611bb590612f3f565b60405180910390fd5b611bc7816111a3565b15611c07576040517f08c379a0000000000000000000000000000000000000000000000000000000008152600401611bfe90612fab565b60405180910390fd5b611c1360008383611957565b6001600360008473ffffffffffffffffffffffffffffffffffffffff1673ffffffffffffffffffffffffffffffffffffffff1681526020019081526020016000206000828254611c639190612c4e565b92505081905550816002600083815260200190815260200160002060006101000a81548173ffffffffffffffffffffffffffffffffffffffff021916908373ffffffffffffffffffffffffffffffffffffffff160217905550808273ffffffffffffffffffffffffffffffffffffffff16600073ffffffffffffffffffffffffffffffffffffffff167fddf252ad1be2c89b69c2b068fc378daa952ba7f163c4a11628f55a4df523b3ef60405160405180910390a45050565b600080823b905060008111915050919050565b6000604051905090565b600080fd5b600080fd5b60007fffffffff0000000000000000000000000000000000000000000000000000000082169050919050565b611d7881611d43565b8114611d8357600080fd5b50565b600081359050611d9581611d6f565b92915050565b600060208284031215611db157611db0611d39565b5b6000611dbf84828501611d86565b91505092915050565b60008115159050919050565b611ddd81611dc8565b82525050565b6000602082019050611df86000830184611dd4565b92915050565b600081519050919050565b600082825260208201905092915050565b60005b83811015611e38578082015181840152602081019050611e1d565b83811115611e47576000848401525b50505050565b6000601f19601f8301169050919050565b6000611e6982611dfe565b611e738185611e09565b9350611e83818560208601611e1a565b611e8c81611e4d565b840191505092915050565b60006020820190508181036000830152611eb18184611e5e565b905092915050565b6000819050919050565b611ecc81611eb9565b8114611ed757600080fd5b50565b600081359050611ee981611ec3565b92915050565b600060208284031215611f0557611f04611d39565b5b6000611f1384828501611eda565b91505092915050565b600073ffffffffffffffffffffffffffffffffffffffff82169050919050565b6000611f4782611f1c565b9050919050565b611f5781611f3c565b82525050565b6000602082019050611f726000830184611f4e565b92915050565b611f8181611f3c565b8114611f8c57600080fd5b50565b600081359050611f9e81611f78565b92915050565b60008060408385031215611fbb57611fba611d39565b5b6000611fc985828601611f8f565b9250506020611fda85828601611eda565b9150509250929050565b600080600060608486031215611ffd57611ffc611d39565b5b600061200b86828701611f8f565b935050602061201c86828701611f8f565b925050604061202d86828701611eda565b9150509250925092565b60006020828403121561204d5761204c611d39565b5b600061205b84828501611f8f565b91505092915050565b61206d81611eb9565b82525050565b60006020820190506120886000830184612064565b92915050565b600060ff82169050919050565b6120a48161208e565b81146120af57600080fd5b50565b6000813590506120c18161209b565b92915050565b600080600080600060a086880312156120e3576120e2611d39565b5b60006120f188828901611eda565b9550506020612102888289016120b2565b9450506040612113888289016120b2565b9350506060612124888289016120b2565b9250506080612135888289016120b2565b9150509295509295909350565b61214b81611dc8565b811461215657600080fd5b50565b60008135905061216881612142565b92915050565b6000806040838503121561218557612184611d39565b5b600061219385828601611f8f565b92505060206121a485828601612159565b9150509250929050565b600080fd5b600080fd5b7f4e487b7100000000000000000000000000000000000000000000000000000000600052604160045260246000fd5b6121f082611e4d565b810181811067ffffffffffffffff8211171561220f5761220e6121b8565b5b80604052505050565b6000612222611d2f565b905061222e82826121e7565b919050565b600067ffffffffffffffff82111561224e5761224d6121b8565b5b61225782611e4d565b9050602081019050919050565b82818337600083830152505050565b600061228661228184612233565b612218565b9050828152602081018484840111156122a2576122a16121b3565b5b6122ad848285612264565b509392505050565b600082601f8301126122ca576122c96121ae565b5b81356122da848260208601612273565b91505092915050565b600080600080608085870312156122fd576122fc611d39565b5b600061230b87828801611f8f565b945050602061231c87828801611f8f565b935050604061232d87828801611eda565b925050606085013567ffffffffffffffff81111561234e5761234d611d3e565b5b61235a878288016122b5565b91505092959194509250565b61236f8161208e565b82525050565b600060808201905061238a6000830187612366565b6123976020830186612366565b6123a46040830185612366565b6123b16060830184612366565b95945050505050565b600080604083850312156123d1576123d0611d39565b5b60006123df85828601611f8f565b92505060206123f085828601611f8f565b9150509250929050565b7f4e487b7100000000000000000000000000000000000000000000000000000000600052602260045260246000fd5b6000600282049050600182168061244157607f821691505b60208210811415612455576124546123fa565b5b50919050565b7f4552433732313a20617070726f76656420717565727920666f72206e6f6e657860008201527f697374656e7420746f6b656e0000000000000000000000000000000000000000602082015250565b60006124b7602c83611e09565b91506124c28261245b565b604082019050919050565b600060208201905081810360008301526124e6816124aa565b9050919050565b7f4552433732313a20617070726f76616c20746f2063757272656e74206f776e6560008201527f7200000000000000000000000000000000000000000000000000000000000000602082015250565b6000612549602183611e09565b9150612554826124ed565b604082019050919050565b600060208201905081810360008301526125788161253c565b9050919050565b7f4552433732313a20617070726f76652063616c6c6572206973206e6f74206f7760008201527f6e6572206e6f7220617070726f76656420666f7220616c6c0000000000000000602082015250565b60006125db603883611e09565b91506125e68261257f565b604082019050919050565b6000602082019050818103600083015261260a816125ce565b9050919050565b7f4552433732313a207472616e736665722063616c6c6572206973206e6f74206f60008201527f776e6572206e6f7220617070726f766564000000000000000000000000000000602082015250565b600061266d603183611e09565b915061267882612611565b604082019050919050565b6000602082019050818103600083015261269c81612660565b9050919050565b7f4552433732313a206f776e657220717565727920666f72206e6f6e657869737460008201527f656e7420746f6b656e0000000000000000000000000000000000000000000000602082015250565b60006126ff602983611e09565b915061270a826126a3565b604082019050919050565b6000602082019050818103600083015261272e816126f2565b9050919050565b7f4f6e6c79207468652061646d696e2063616e20646f2074686973000000000000600082015250565b600061276b601a83611e09565b915061277682612735565b602082019050919050565b6000602082019050818103600083015261279a8161275e565b9050919050565b60006060820190506127b66000830186612064565b81810360208301526127c88185611e5e565b90506127d76040830184612064565b949350505050565b7f4552433732313a2062616c616e636520717565727920666f7220746865207a6560008201527f726f206164647265737300000000000000000000000000000000000000000000602082015250565b600061283b602a83611e09565b9150612846826127df565b604082019050919050565b6000602082019050818103600083015261286a8161282e565b9050919050565b7f4e487b7100000000000000000000000000000000000000000000000000000000600052601160045260246000fd5b60006128ab8261208e565b91506128b68361208e565b92508260ff038211156128cc576128cb612871565b5b828201905092915050565b7f4552433732313a20617070726f766520746f2063616c6c657200000000000000600082015250565b600061290d601983611e09565b9150612918826128d7565b602082019050919050565b6000602082019050818103600083015261293c81612900565b9050919050565b7f4552433732314d657461646174613a2055524920717565727920666f72206e6f60008201527f6e6578697374656e7420746f6b656e0000000000000000000000000000000000602082015250565b600061299f602f83611e09565b91506129aa82612943565b604082019050919050565b600060208201905081810360008301526129ce81612992565b9050919050565b600081905092915050565b60006129eb82611dfe565b6129f581856129d5565b9350612a05818560208601611e1a565b80840191505092915050565b6000612a1d82856129e0565b9150612a2982846129e0565b91508190509392505050565b7f4e487b7100000000000000000000000000000000000000000000000000000000600052603260045260246000fd5b7f4552433732313a206f70657261746f7220717565727920666f72206e6f6e657860008201527f697374656e7420746f6b656e0000000000000000000000000000000000000000602082015250565b6000612ac0602c83611e09565b9150612acb82612a64565b604082019050919050565b60006020820190508181036000830152612aef81612ab3565b9050919050565b7f4552433732313a207472616e73666572206f6620746f6b656e2074686174206960008201527f73206e6f74206f776e0000000000000000000000000000000000000000000000602082015250565b6000612b52602983611e09565b9150612b5d82612af6565b604082019050919050565b60006020820190508181036000830152612b8181612b45565b9050919050565b7f4552433732313a207472616e7366657220746f20746865207a65726f2061646460008201527f7265737300000000000000000000000000000000000000000000000000000000602082015250565b6000612be4602483611e09565b9150612bef82612b88565b604082019050919050565b60006020820190508181036000830152612c1381612bd7565b9050919050565b6000612c2582611eb9565b9150612c3083611eb9565b925082821015612c4357612c42612871565b5b828203905092915050565b6000612c5982611eb9565b9150612c6483611eb9565b9250827fffffffffffffffffffffffffffffffffffffffffffffffffffffffffffffffff03821115612c9957612c98612871565b5b828201905092915050565b7f4552433732313a207472616e7366657220746f206e6f6e20455243373231526560008201527f63656976657220696d706c656d656e7465720000000000000000000000000000602082015250565b6000612d00603283611e09565b9150612d0b82612ca4565b604082019050919050565b60006020820190508181036000830152612d2f81612cf3565b9050919050565b6000612d4182611eb9565b91507fffffffffffffffffffffffffffffffffffffffffffffffffffffffffffffffff821415612d7457612d73612871565b5b600182019050919050565b7f4e487b7100000000000000000000000000000000000000000000000000000000600052601260045260246000fd5b6000612db982611eb9565b9150612dc483611eb9565b925082612dd457612dd3612d7f565b5b828204905092915050565b6000612dea82611eb9565b9150612df583611eb9565b925082612e0557612e04612d7f565b5b828206905092915050565b600081519050919050565b600082825260208201905092915050565b6000612e3782612e10565b612e418185612e1b565b9350612e51818560208601611e1a565b612e5a81611e4d565b840191505092915050565b6000608082019050612e7a6000830187611f4e565b612e876020830186611f4e565b612e946040830185612064565b8181036060830152612ea68184612e2c565b905095945050505050565b600081519050612ec081611d6f565b92915050565b600060208284031215612edc57612edb611d39565b5b6000612eea84828501612eb1565b91505092915050565b7f4552433732313a206d696e7420746f20746865207a65726f2061646472657373600082015250565b6000612f29602083611e09565b9150612f3482612ef3565b602082019050919050565b60006020820190508181036000830152612f5881612f1c565b9050919050565b7f4552433732313a20746f6b656e20616c7265616479206d696e74656400000000600082015250565b6000612f95601c83611e09565b9150612fa082612f5f565b602082019050919050565b60006020820190508181036000830152612fc481612f88565b905091905056fea2646970667358221220a5eb84675dbd443d11d3565a24852fcbc3a066c127143bb70762bff95f3736b064736f6c63430008090033",
  "immutableReferences": {},
  "source": "// SPDX-License-Identifier: MIT\r\npragma solidity ^0.8.0;\r\n\r\nimport '@openzeppelin/contracts/token/ERC721/ERC721.sol';\r\nimport '@openzeppelin/contracts/utils/Counters.sol';\r\n\r\ncontract StartupHeroCreator is ERC721 {\r\n  using Counters for Counters.Counter;\r\n  Counters.Counter private _tokenIds;\r\n\r\n  struct attributes {\r\n    uint8 artist;\r\n    uint8 hacker;\r\n    uint8 hustler;\r\n    uint8 success;\r\n  }\r\n  mapping(address => attributes) public userStoredAttributes;    \r\n  mapping(address => uint256[]) private userOwnedTokens;\r\n\r\n  address public admin;\r\n\r\n  constructor() ERC721('Startup Hero', 'SUP') {\r\n    admin = msg.sender;\r\n  }\r\n\r\n  function mint(address to) onlyAdmin() external {\r\n    _tokenIds.increment();\r\n    uint256 newItemId = _tokenIds.current();\r\n    userOwnedTokens[msg.sender].push(newItemId);\r\n    _safeMint(to, newItemId);\r\n\r\n    string memory uri = tokenURI(newItemId);\r\n    uint256 time = block.timestamp;\r\n    \r\n    emit NftMinted(newItemId, uri, time);\r\n  }\r\n\r\n\r\n\r\n  /**\r\n   * Merging 2 NFTs together creates a new one and sends\r\n   * The NFTs used in the process are sent back to the Contract\r\n  */\r\n  // function merge(address to, uint256 tid_1, uint256 tid_2) onlyAdmin() external {\r\n  //   _tokenIds.increment();\r\n  //   uint256 newItemId = _tokenIds.current();\r\n  //   userOwnedTokens[msg.sender].push(newItemId);\r\n  //   _safeMint(to, newItemId);\r\n\r\n  //   string memory uri = tokenURI(newItemId);\r\n  //   uint256 time = block.timestamp;\r\n\r\n  //   // Burn tokens used in merge\r\n  //   burn(tid_1);\r\n  //   burn(tid_2);\r\n    \r\n  //   emit NftMinted(newItemId, uri, time);\r\n  // }\r\n\r\n  function burn(uint256 tokenId, uint8 _artist, uint8 _hacker, uint8 _hustler, uint8 _success) onlyAdmin() public {\r\n    userStoredAttributes[msg.sender].artist += _artist;\r\n    userStoredAttributes[msg.sender].hacker += _hacker;\r\n    userStoredAttributes[msg.sender].hustler += _hustler;\r\n    userStoredAttributes[msg.sender].success += _success;\r\n    //delete userOwnedTokens[msg.sender][tokenId];\r\n\r\n    _burn(tokenId);\r\n  }\r\n\r\n  function _baseURI() internal override pure returns (string memory) {\r\n    return 'http://localhost:5000/nft/';\r\n  }\r\n  \r\n  function getToken(uint256 index) public view returns (uint256) {\r\n      return userOwnedTokens[msg.sender][index];\r\n  }\r\n\r\n  modifier onlyAdmin {\r\n      require(msg.sender == admin, \"Only the admin can do this\");\r\n      _;\r\n  }\r\n\r\n  event NftMinted(uint256 _tid, string _uri, uint256 _time);\r\n}",
  "sourcePath": "D:/Projects/ETB/startupHero/contracts/StartupHeroCreator.sol",
  "compiler": {
    "name": "solc",
    "version": "0.8.9+commit.e5eed63a.Emscripten.clang"
  },
  "schemaVersion": "3.3.2",
  "updatedAt": "2021-11-03T08:35:47.347Z",
  "networkType": "ethereum",
  "devdoc": {
    "kind": "dev",
    "methods": {
      "approve(address,uint256)": {
        "details": "See {IERC721-approve}."
      },
      "balanceOf(address)": {
        "details": "See {IERC721-balanceOf}."
      },
      "getApproved(uint256)": {
        "details": "See {IERC721-getApproved}."
      },
      "isApprovedForAll(address,address)": {
        "details": "See {IERC721-isApprovedForAll}."
      },
      "name()": {
        "details": "See {IERC721Metadata-name}."
      },
      "ownerOf(uint256)": {
        "details": "See {IERC721-ownerOf}."
      },
      "safeTransferFrom(address,address,uint256)": {
        "details": "See {IERC721-safeTransferFrom}."
      },
      "safeTransferFrom(address,address,uint256,bytes)": {
        "details": "See {IERC721-safeTransferFrom}."
      },
      "setApprovalForAll(address,bool)": {
        "details": "See {IERC721-setApprovalForAll}."
      },
      "supportsInterface(bytes4)": {
        "details": "See {IERC165-supportsInterface}."
      },
      "symbol()": {
        "details": "See {IERC721Metadata-symbol}."
      },
      "tokenURI(uint256)": {
        "details": "See {IERC721Metadata-tokenURI}."
      },
      "transferFrom(address,address,uint256)": {
        "details": "See {IERC721-transferFrom}."
      }
    },
    "version": 1
  },
  "userdoc": {
    "kind": "user",
    "methods": {
      "burn(uint256,uint8,uint8,uint8,uint8)": {
        "notice": "Merging 2 NFTs together creates a new one and sends The NFTs used in the process are sent back to the Contract"
      }
    },
    "version": 1
  }
}