{
  "_format": "hh-sol-artifact-1",
  "contractName": "StartupHeroCreator",
  "sourceName": "contracts/StartupHeroCreator.sol",
  "abi": [
    {
      "inputs": [],
      "stateMutability": "nonpayable",
      "type": "constructor"
    },
    {
      "anonymous": false,
      "inputs": [
        {
          "indexed": true,
          "internalType": "address",
          "name": "owner",
          "type": "address"
        },
        {
          "indexed": true,
          "internalType": "address",
          "name": "approved",
          "type": "address"
        },
        {
          "indexed": true,
          "internalType": "uint256",
          "name": "tokenId",
          "type": "uint256"
        }
      ],
      "name": "Approval",
      "type": "event"
    },
    {
      "anonymous": false,
      "inputs": [
        {
          "indexed": true,
          "internalType": "address",
          "name": "owner",
          "type": "address"
        },
        {
          "indexed": true,
          "internalType": "address",
          "name": "operator",
          "type": "address"
        },
        {
          "indexed": false,
          "internalType": "bool",
          "name": "approved",
          "type": "bool"
        }
      ],
      "name": "ApprovalForAll",
      "type": "event"
    },
    {
      "anonymous": false,
      "inputs": [
        {
          "indexed": false,
          "internalType": "uint256",
          "name": "_tid",
          "type": "uint256"
        },
        {
          "indexed": false,
          "internalType": "uint256",
          "name": "_current",
          "type": "uint256"
        },
        {
          "indexed": false,
          "internalType": "string",
          "name": "_uri",
          "type": "string"
        },
        {
          "indexed": false,
          "internalType": "uint256",
          "name": "_time",
          "type": "uint256"
        },
        {
          "indexed": false,
          "internalType": "bytes32",
          "name": "_note",
          "type": "bytes32"
        }
      ],
      "name": "NftMinted",
      "type": "event"
    },
    {
      "anonymous": false,
      "inputs": [
        {
          "indexed": false,
          "internalType": "string",
          "name": "_status",
          "type": "string"
        },
        {
          "indexed": false,
          "internalType": "uint256",
          "name": "_tid",
          "type": "uint256"
        },
        {
          "indexed": false,
          "internalType": "uint256",
          "name": "_current",
          "type": "uint256"
        },
        {
          "indexed": false,
          "internalType": "string",
          "name": "_uri",
          "type": "string"
        },
        {
          "indexed": false,
          "internalType": "uint256",
          "name": "_time",
          "type": "uint256"
        },
        {
          "indexed": false,
          "internalType": "bytes32",
          "name": "_note",
          "type": "bytes32"
        }
      ],
      "name": "NftStatus",
      "type": "event"
    },
    {
      "anonymous": false,
      "inputs": [
        {
          "indexed": true,
          "internalType": "address",
          "name": "from",
          "type": "address"
        },
        {
          "indexed": true,
          "internalType": "address",
          "name": "to",
          "type": "address"
        },
        {
          "indexed": true,
          "internalType": "uint256",
          "name": "tokenId",
          "type": "uint256"
        }
      ],
      "name": "Transfer",
      "type": "event"
    },
    {
      "inputs": [
        {
          "internalType": "address",
          "name": "newMember",
          "type": "address"
        },
        {
          "internalType": "string",
          "name": "newMemberName",
          "type": "string"
        }
      ],
      "name": "addToCollective",
      "outputs": [],
      "stateMutability": "nonpayable",
      "type": "function"
    },
    {
      "inputs": [],
      "name": "admin",
      "outputs": [
        {
          "internalType": "address",
          "name": "",
          "type": "address"
        }
      ],
      "stateMutability": "view",
      "type": "function"
    },
    {
      "inputs": [
        {
          "internalType": "address",
          "name": "to",
          "type": "address"
        },
        {
          "internalType": "uint256",
          "name": "tokenId",
          "type": "uint256"
        }
      ],
      "name": "approve",
      "outputs": [],
      "stateMutability": "nonpayable",
      "type": "function"
    },
    {
      "inputs": [
        {
          "internalType": "address",
          "name": "owner",
          "type": "address"
        }
      ],
      "name": "balanceOf",
      "outputs": [
        {
          "internalType": "uint256",
          "name": "",
          "type": "uint256"
        }
      ],
      "stateMutability": "view",
      "type": "function"
    },
    {
      "inputs": [
        {
          "internalType": "uint256",
          "name": "tokenId",
          "type": "uint256"
        },
        {
          "internalType": "uint8",
          "name": "_artist",
          "type": "uint8"
        },
        {
          "internalType": "uint8",
          "name": "_hacker",
          "type": "uint8"
        },
        {
          "internalType": "uint8",
          "name": "_hustler",
          "type": "uint8"
        },
        {
          "internalType": "uint8",
          "name": "_success",
          "type": "uint8"
        }
      ],
      "name": "burn",
      "outputs": [],
      "stateMutability": "nonpayable",
      "type": "function"
    },
    {
      "inputs": [],
      "name": "currentSeries",
      "outputs": [
        {
          "components": [
            {
              "internalType": "uint256",
              "name": "_value",
              "type": "uint256"
            }
          ],
          "internalType": "struct Counters.Counter",
          "name": "active",
          "type": "tuple"
        },
        {
          "components": [
            {
              "internalType": "uint256",
              "name": "_value",
              "type": "uint256"
            }
          ],
          "internalType": "struct Counters.Counter",
          "name": "count",
          "type": "tuple"
        }
      ],
      "stateMutability": "view",
      "type": "function"
    },
    {
      "inputs": [],
      "name": "currentSupply",
      "outputs": [
        {
          "internalType": "uint256",
          "name": "_value",
          "type": "uint256"
        }
      ],
      "stateMutability": "view",
      "type": "function"
    },
    {
      "inputs": [
        {
          "internalType": "uint256",
          "name": "tokenId",
          "type": "uint256"
        }
      ],
      "name": "getApproved",
      "outputs": [
        {
          "internalType": "address",
          "name": "",
          "type": "address"
        }
      ],
      "stateMutability": "view",
      "type": "function"
    },
    {
      "inputs": [],
      "name": "getAttributes",
      "outputs": [
        {
          "components": [
            {
              "internalType": "uint8",
              "name": "artist",
              "type": "uint8"
            },
            {
              "internalType": "uint8",
              "name": "hacker",
              "type": "uint8"
            },
            {
              "internalType": "uint8",
              "name": "hustler",
              "type": "uint8"
            },
            {
              "internalType": "uint8",
              "name": "success",
              "type": "uint8"
            }
          ],
          "internalType": "struct StartupHeroCreator.Attributes",
          "name": "",
          "type": "tuple"
        }
      ],
      "stateMutability": "view",
      "type": "function"
    },
    {
      "inputs": [
        {
          "internalType": "uint256",
          "name": "index",
          "type": "uint256"
        }
      ],
      "name": "getToken",
      "outputs": [
        {
          "internalType": "uint256",
          "name": "",
          "type": "uint256"
        }
      ],
      "stateMutability": "view",
      "type": "function"
    },
    {
      "inputs": [
        {
          "internalType": "address",
          "name": "owner",
          "type": "address"
        },
        {
          "internalType": "address",
          "name": "operator",
          "type": "address"
        }
      ],
      "name": "isApprovedForAll",
      "outputs": [
        {
          "internalType": "bool",
          "name": "",
          "type": "bool"
        }
      ],
      "stateMutability": "view",
      "type": "function"
    },
    {
      "inputs": [
        {
          "internalType": "address",
          "name": "to",
          "type": "address"
        },
        {
          "internalType": "uint256",
          "name": "tid",
          "type": "uint256"
        }
      ],
      "name": "merge",
      "outputs": [],
      "stateMutability": "nonpayable",
      "type": "function"
    },
    {
      "inputs": [
        {
          "internalType": "address",
          "name": "to",
          "type": "address"
        },
        {
          "internalType": "uint256",
          "name": "tid",
          "type": "uint256"
        }
      ],
      "name": "mint",
      "outputs": [],
      "stateMutability": "nonpayable",
      "type": "function"
    },
    {
      "inputs": [],
      "name": "name",
      "outputs": [
        {
          "internalType": "string",
          "name": "",
          "type": "string"
        }
      ],
      "stateMutability": "view",
      "type": "function"
    },
    {
      "inputs": [
        {
          "internalType": "uint256",
          "name": "tokenId",
          "type": "uint256"
        }
      ],
      "name": "ownerOf",
      "outputs": [
        {
          "internalType": "address",
          "name": "",
          "type": "address"
        }
      ],
      "stateMutability": "view",
      "type": "function"
    },
    {
      "inputs": [
        {
          "internalType": "address",
          "name": "from",
          "type": "address"
        },
        {
          "internalType": "address",
          "name": "to",
          "type": "address"
        },
        {
          "internalType": "uint256",
          "name": "tokenId",
          "type": "uint256"
        }
      ],
      "name": "safeTransferFrom",
      "outputs": [],
      "stateMutability": "nonpayable",
      "type": "function"
    },
    {
      "inputs": [
        {
          "internalType": "address",
          "name": "from",
          "type": "address"
        },
        {
          "internalType": "address",
          "name": "to",
          "type": "address"
        },
        {
          "internalType": "uint256",
          "name": "tokenId",
          "type": "uint256"
        },
        {
          "internalType": "bytes",
          "name": "_data",
          "type": "bytes"
        }
      ],
      "name": "safeTransferFrom",
      "outputs": [],
      "stateMutability": "nonpayable",
      "type": "function"
    },
    {
      "inputs": [
        {
          "internalType": "address",
          "name": "operator",
          "type": "address"
        },
        {
          "internalType": "bool",
          "name": "approved",
          "type": "bool"
        }
      ],
      "name": "setApprovalForAll",
      "outputs": [],
      "stateMutability": "nonpayable",
      "type": "function"
    },
    {
      "inputs": [
        {
          "internalType": "bytes4",
          "name": "interfaceId",
          "type": "bytes4"
        }
      ],
      "name": "supportsInterface",
      "outputs": [
        {
          "internalType": "bool",
          "name": "",
          "type": "bool"
        }
      ],
      "stateMutability": "view",
      "type": "function"
    },
    {
      "inputs": [],
      "name": "symbol",
      "outputs": [
        {
          "internalType": "string",
          "name": "",
          "type": "string"
        }
      ],
      "stateMutability": "view",
      "type": "function"
    },
    {
      "inputs": [
        {
          "internalType": "uint256",
          "name": "tokenId",
          "type": "uint256"
        }
      ],
      "name": "tokenURI",
      "outputs": [
        {
          "internalType": "string",
          "name": "",
          "type": "string"
        }
      ],
      "stateMutability": "view",
      "type": "function"
    },
    {
      "inputs": [],
      "name": "totalSupply",
      "outputs": [
        {
          "internalType": "uint256",
          "name": "",
          "type": "uint256"
        }
      ],
      "stateMutability": "view",
      "type": "function"
    },
    {
      "inputs": [
        {
          "internalType": "address",
          "name": "from",
          "type": "address"
        },
        {
          "internalType": "address",
          "name": "to",
          "type": "address"
        },
        {
          "internalType": "uint256",
          "name": "tokenId",
          "type": "uint256"
        }
      ],
      "name": "transferFrom",
      "outputs": [],
      "stateMutability": "nonpayable",
      "type": "function"
    }
  ],
  "bytecode": "0x60806040523480156200001157600080fd5b506040518060400160405280600c81526020017f53746172747570204865726f00000000000000000000000000000000000000008152506040518060400160405280600381526020017f53555000000000000000000000000000000000000000000000000000000000008152508160009080519060200190620000969291906200025f565b508060019080519060200190620000af9291906200025f565b50505033600760006101000a81548173ffffffffffffffffffffffffffffffffffffffff021916908373ffffffffffffffffffffffffffffffffffffffff1602179055506127106008819055506040518060400160405280600881526020017f54686520426f7373000000000000000000000000000000000000000000000000815250600e6000600760009054906101000a900473ffffffffffffffffffffffffffffffffffffffff1673ffffffffffffffffffffffffffffffffffffffff1673ffffffffffffffffffffffffffffffffffffffff1681526020019081526020016000206000019080519060200190620001ab9291906200025f565b506001600e6000600760009054906101000a900473ffffffffffffffffffffffffffffffffffffffff1673ffffffffffffffffffffffffffffffffffffffff1673ffffffffffffffffffffffffffffffffffffffff16815260200190815260200160002060020160006101000a81548160ff02191690831515021790555062000243600a6000016200024960201b620016c51760201c565b62000374565b6001816000016000828254019250508190555050565b8280546200026d906200030f565b90600052602060002090601f016020900481019282620002915760008555620002dd565b82601f10620002ac57805160ff1916838001178555620002dd565b82800160010185558215620002dd579182015b82811115620002dc578251825591602001919060010190620002bf565b5b509050620002ec9190620002f0565b5090565b5b808211156200030b576000816000905550600101620002f1565b5090565b600060028204905060018216806200032857607f821691505b602082108114156200033f576200033e62000345565b5b50919050565b7f4e487b7100000000000000000000000000000000000000000000000000000000600052602260045260246000fd5b613b4380620003846000396000f3fe608060405234801561001057600080fd5b506004361061014d5760003560e01c80636352211e116100c3578063b88d4fde1161007c578063b88d4fde1461038b578063c3f640bf146103a7578063c87b56dd146103c3578063e4b50cb8146103f3578063e985e9c514610423578063f851a440146104535761014d565b80636352211e146102b757806370a08231146102e7578063771282f61461031757806395d89b411461033557806396c71c0114610353578063a22cb4651461036f5761014d565b806317a4cf491161011557806317a4cf491461020a57806318160ddd1461022657806323b872dd1461024457806340c10f191461026057806342842e0e1461027c5780635caa0dec146102985761014d565b806301ffc9a71461015257806306fdde0314610182578063081812fc146101a0578063095ea7b3146101d0578063152583de146101ec575b600080fd5b61016c600480360381019061016791906128bf565b610471565b6040516101799190612e43565b60405180910390f35b61018a610553565b6040516101979190612e5e565b60405180910390f35b6101ba60048036038101906101b59190612911565b6105e5565b6040516101c79190612ddc565b60405180910390f35b6101ea60048036038101906101e59190612883565b61066a565b005b6101f4610782565b6040516102019190613158565b60405180910390f35b610224600480360381019061021f9190612883565b61084d565b005b61022e610a5d565b60405161023b919061319c565b60405180910390f35b61025e60048036038101906102599190612725565b610a63565b005b61027a60048036038101906102759190612883565b610ac3565b005b61029660048036038101906102919190612725565b610dcd565b005b6102a0610ded565b6040516102ae929190613173565b60405180910390f35b6102d160048036038101906102cc9190612911565b610e27565b6040516102de9190612ddc565b60405180910390f35b61030160048036038101906102fc91906126c0565b610ed9565b60405161030e919061319c565b60405180910390f35b61031f610f91565b60405161032c919061319c565b60405180910390f35b61033d610f9d565b60405161034a9190612e5e565b60405180910390f35b61036d6004803603810190610368919061293a565b61102f565b005b610389600480360381019061038491906127ef565b61131f565b005b6103a560048036038101906103a09190612774565b611335565b005b6103c160048036038101906103bc919061282b565b611397565b005b6103dd60048036038101906103d89190612911565b6114d9565b6040516103ea9190612e5e565b60405180910390f35b61040d60048036038101906104089190612911565b611580565b60405161041a919061319c565b60405180910390f35b61043d600480360381019061043891906126e9565b61160b565b60405161044a9190612e43565b60405180910390f35b61045b61169f565b6040516104689190612ddc565b60405180910390f35b60007f80ac58cd000000000000000000000000000000000000000000000000000000007bffffffffffffffffffffffffffffffffffffffffffffffffffffffff1916827bffffffffffffffffffffffffffffffffffffffffffffffffffffffff1916148061053c57507f5b5e139f000000000000000000000000000000000000000000000000000000007bffffffffffffffffffffffffffffffffffffffffffffffffffffffff1916827bffffffffffffffffffffffffffffffffffffffffffffffffffffffff1916145b8061054c575061054b826116db565b5b9050919050565b60606000805461056290613469565b80601f016020809104026020016040519081016040528092919081815260200182805461058e90613469565b80156105db5780601f106105b0576101008083540402835291602001916105db565b820191906000526020600020905b8154815290600101906020018083116105be57829003601f168201915b5050505050905090565b60006105f082611745565b61062f576040517f08c379a000000000000000000000000000000000000000000000000000000000815260040161062690613000565b60405180910390fd5b6004600083815260200190815260200160002060009054906101000a900473ffffffffffffffffffffffffffffffffffffffff169050919050565b600061067582610e27565b90508073ffffffffffffffffffffffffffffffffffffffff168373ffffffffffffffffffffffffffffffffffffffff1614156106e6576040517f08c379a00000000000000000000000000000000000000000000000000000000081526004016106dd90613040565b60405180910390fd5b8073ffffffffffffffffffffffffffffffffffffffff166107056117b1565b73ffffffffffffffffffffffffffffffffffffffff16148061073457506107338161072e6117b1565b61160b565b5b610773576040517f08c379a000000000000000000000000000000000000000000000000000000000815260040161076a90612f80565b60405180910390fd5b61077d83836117b9565b505050565b61078a6124b9565b600c60003373ffffffffffffffffffffffffffffffffffffffff1673ffffffffffffffffffffffffffffffffffffffff1681526020019081526020016000206040518060800160405290816000820160009054906101000a900460ff1660ff1660ff1681526020016000820160019054906101000a900460ff1660ff1660ff1681526020016000820160029054906101000a900460ff1660ff1660ff1681526020016000820160039054906101000a900460ff1660ff1660ff1681525050905090565b61085760066116c5565b6108618282611872565b600061086c826114d9565b90506000429050600061087f6006611890565b905060007f4d657267696e672068617320636f6d706c657465642e0000000000000000000090506000600c60003373ffffffffffffffffffffffffffffffffffffffff1673ffffffffffffffffffffffffffffffffffffffff16815260200190815260200160002060000160006101000a81548160ff021916908360ff1602179055506000600c60003373ffffffffffffffffffffffffffffffffffffffff1673ffffffffffffffffffffffffffffffffffffffff16815260200190815260200160002060000160016101000a81548160ff021916908360ff1602179055506000600c60003373ffffffffffffffffffffffffffffffffffffffff1673ffffffffffffffffffffffffffffffffffffffff16815260200190815260200160002060000160026101000a81548160ff021916908360ff1602179055506000600c60003373ffffffffffffffffffffffffffffffffffffffff1673ffffffffffffffffffffffffffffffffffffffff16815260200190815260200160002060000160036101000a81548160ff021916908360ff1602179055507f90cc54bb734fca00043377a7e3bd86f3d4bee273a12f901cf4f26d72755cbd118583868685604051610a4d9594939291906130eb565b60405180910390a1505050505050565b60085481565b610a74610a6e6117b1565b8261189e565b610ab3576040517f08c379a0000000000000000000000000000000000000000000000000000000008152600401610aaa90613060565b60405180910390fd5b610abe83838361197c565b505050565b600854610ad06009611890565b10610b10576040517f08c379a0000000000000000000000000000000000000000000000000000000008152600401610b0790612f40565b60405180910390fd5b610b1a60066116c5565b6000610b266006611890565b9050600d60003373ffffffffffffffffffffffffffffffffffffffff1673ffffffffffffffffffffffffffffffffffffffff168152602001908152602001600020829080600181540180825580915050600190039060005260206000200160009091909190915055610b9b600a6001016116c5565b6005610baa600a600101611890565b1115610bcb57610bbd600a6000016116c5565b610bca600a600101611be3565b5b6000600c60003373ffffffffffffffffffffffffffffffffffffffff1673ffffffffffffffffffffffffffffffffffffffff16815260200190815260200160002060000160006101000a81548160ff021916908360ff1602179055506000600c60003373ffffffffffffffffffffffffffffffffffffffff1673ffffffffffffffffffffffffffffffffffffffff16815260200190815260200160002060000160016101000a81548160ff021916908360ff1602179055506000600c60003373ffffffffffffffffffffffffffffffffffffffff1673ffffffffffffffffffffffffffffffffffffffff16815260200190815260200160002060000160026101000a81548160ff021916908360ff1602179055506000600c60003373ffffffffffffffffffffffffffffffffffffffff1673ffffffffffffffffffffffffffffffffffffffff16815260200190815260200160002060000160036101000a81548160ff021916908360ff160217905550610d4560096116c5565b610d4f8383611872565b6000610d5a836114d9565b9050600042905060007f4e465420686173206265656e206d696e7465642e00000000000000000000000090507fbc83ebe4fb5b526a6a44328b8cac55634e74844c44b866f58a44d21e19fc60bc8585858585604051610dbd9594939291906131b7565b60405180910390a1505050505050565b610de883838360405180602001604052806000815250611335565b505050565b600a806000016040518060200160405290816000820154815250509080600101604051806020016040529081600082015481525050905082565b6000806002600084815260200190815260200160002060009054906101000a900473ffffffffffffffffffffffffffffffffffffffff169050600073ffffffffffffffffffffffffffffffffffffffff168173ffffffffffffffffffffffffffffffffffffffff161415610ed0576040517f08c379a0000000000000000000000000000000000000000000000000000000008152600401610ec790612fc0565b60405180910390fd5b80915050919050565b60008073ffffffffffffffffffffffffffffffffffffffff168273ffffffffffffffffffffffffffffffffffffffff161415610f4a576040517f08c379a0000000000000000000000000000000000000000000000000000000008152600401610f4190612fa0565b60405180910390fd5b600360008373ffffffffffffffffffffffffffffffffffffffff1673ffffffffffffffffffffffffffffffffffffffff168152602001908152602001600020549050919050565b60098060000154905081565b606060018054610fac90613469565b80601f0160208091040260200160405190810160405280929190818152602001828054610fd890613469565b80156110255780601f10610ffa57610100808354040283529160200191611025565b820191906000526020600020905b81548152906001019060200180831161100857829003601f168201915b5050505050905090565b600760009054906101000a900473ffffffffffffffffffffffffffffffffffffffff1673ffffffffffffffffffffffffffffffffffffffff163373ffffffffffffffffffffffffffffffffffffffff16146110bf576040517f08c379a00000000000000000000000000000000000000000000000000000000081526004016110b690612e80565b60405180910390fd5b83600c60003373ffffffffffffffffffffffffffffffffffffffff1673ffffffffffffffffffffffffffffffffffffffff16815260200190815260200160002060000160008282829054906101000a900460ff1661111d9190613300565b92506101000a81548160ff021916908360ff16021790555082600c60003373ffffffffffffffffffffffffffffffffffffffff1673ffffffffffffffffffffffffffffffffffffffff16815260200190815260200160002060000160018282829054906101000a900460ff166111939190613300565b92506101000a81548160ff021916908360ff16021790555081600c60003373ffffffffffffffffffffffffffffffffffffffff1673ffffffffffffffffffffffffffffffffffffffff16815260200190815260200160002060000160028282829054906101000a900460ff166112099190613300565b92506101000a81548160ff021916908360ff16021790555080600c60003373ffffffffffffffffffffffffffffffffffffffff1673ffffffffffffffffffffffffffffffffffffffff16815260200190815260200160002060000160038282829054906101000a900460ff1661127f9190613300565b92506101000a81548160ff021916908360ff160217905550600042905060006112a86006611890565b905060007f5468697320746f6b656e20686173206265656e206275726e65642e000000000090506112d888611bf0565b7f90cc54bb734fca00043377a7e3bd86f3d4bee273a12f901cf4f26d72755cbd118883858460405161130d9493929190613080565b60405180910390a15050505050505050565b61133161132a6117b1565b8383611d0d565b5050565b6113466113406117b1565b8361189e565b611385576040517f08c379a000000000000000000000000000000000000000000000000000000000815260040161137c90613060565b60405180910390fd5b61139184848484611e7a565b50505050565b600760009054906101000a900473ffffffffffffffffffffffffffffffffffffffff1673ffffffffffffffffffffffffffffffffffffffff163373ffffffffffffffffffffffffffffffffffffffff1614611427576040517f08c379a000000000000000000000000000000000000000000000000000000000815260040161141e90612e80565b60405180910390fd5b8181600e60008673ffffffffffffffffffffffffffffffffffffffff1673ffffffffffffffffffffffffffffffffffffffff16815260200190815260200160002060000191906114789291906124ed565b506001600e60008573ffffffffffffffffffffffffffffffffffffffff1673ffffffffffffffffffffffffffffffffffffffff16815260200190815260200160002060020160006101000a81548160ff021916908315150217905550505050565b60606114e482611745565b611523576040517f08c379a000000000000000000000000000000000000000000000000000000000815260040161151a90613020565b60405180910390fd5b600061152d611ed6565b9050600081511161154d5760405180602001604052806000815250611578565b8061155784611f13565b604051602001611568929190612db8565b6040516020818303038152906040525b915050919050565b6000600d60003373ffffffffffffffffffffffffffffffffffffffff1673ffffffffffffffffffffffffffffffffffffffff16815260200190815260200160002082815481106115f9577f4e487b7100000000000000000000000000000000000000000000000000000000600052603260045260246000fd5b90600052602060002001549050919050565b6000600560008473ffffffffffffffffffffffffffffffffffffffff1673ffffffffffffffffffffffffffffffffffffffff16815260200190815260200160002060008373ffffffffffffffffffffffffffffffffffffffff1673ffffffffffffffffffffffffffffffffffffffff16815260200190815260200160002060009054906101000a900460ff16905092915050565b600760009054906101000a900473ffffffffffffffffffffffffffffffffffffffff1681565b6001816000016000828254019250508190555050565b60007f01ffc9a7000000000000000000000000000000000000000000000000000000007bffffffffffffffffffffffffffffffffffffffffffffffffffffffff1916827bffffffffffffffffffffffffffffffffffffffffffffffffffffffff1916149050919050565b60008073ffffffffffffffffffffffffffffffffffffffff166002600084815260200190815260200160002060009054906101000a900473ffffffffffffffffffffffffffffffffffffffff1673ffffffffffffffffffffffffffffffffffffffff1614159050919050565b600033905090565b816004600083815260200190815260200160002060006101000a81548173ffffffffffffffffffffffffffffffffffffffff021916908373ffffffffffffffffffffffffffffffffffffffff160217905550808273ffffffffffffffffffffffffffffffffffffffff1661182c83610e27565b73ffffffffffffffffffffffffffffffffffffffff167f8c5be1e5ebec7d5bd14f71427d1e84f3dd0314c0f7b2291e5b200ac8c7c3b92560405160405180910390a45050565b61188c8282604051806020016040528060008152506120c0565b5050565b600081600001549050919050565b60006118a982611745565b6118e8576040517f08c379a00000000000000000000000000000000000000000000000000000000081526004016118df90612f60565b60405180910390fd5b60006118f383610e27565b90508073ffffffffffffffffffffffffffffffffffffffff168473ffffffffffffffffffffffffffffffffffffffff16148061196257508373ffffffffffffffffffffffffffffffffffffffff1661194a846105e5565b73ffffffffffffffffffffffffffffffffffffffff16145b806119735750611972818561160b565b5b91505092915050565b8273ffffffffffffffffffffffffffffffffffffffff1661199c82610e27565b73ffffffffffffffffffffffffffffffffffffffff16146119f2576040517f08c379a00000000000000000000000000000000000000000000000000000000081526004016119e990612ec0565b60405180910390fd5b600073ffffffffffffffffffffffffffffffffffffffff168273ffffffffffffffffffffffffffffffffffffffff161415611a62576040517f08c379a0000000000000000000000000000000000000000000000000000000008152600401611a5990612f00565b60405180910390fd5b611a6d83838361211b565b611a786000826117b9565b6001600360008573ffffffffffffffffffffffffffffffffffffffff1673ffffffffffffffffffffffffffffffffffffffff1681526020019081526020016000206000828254611ac89190613368565b925050819055506001600360008473ffffffffffffffffffffffffffffffffffffffff1673ffffffffffffffffffffffffffffffffffffffff1681526020019081526020016000206000828254611b1f91906132aa565b92505081905550816002600083815260200190815260200160002060006101000a81548173ffffffffffffffffffffffffffffffffffffffff021916908373ffffffffffffffffffffffffffffffffffffffff160217905550808273ffffffffffffffffffffffffffffffffffffffff168473ffffffffffffffffffffffffffffffffffffffff167fddf252ad1be2c89b69c2b068fc378daa952ba7f163c4a11628f55a4df523b3ef60405160405180910390a4611bde838383612120565b505050565b6000816000018190555050565b6000611bfb82610e27565b9050611c098160008461211b565b611c146000836117b9565b6001600360008373ffffffffffffffffffffffffffffffffffffffff1673ffffffffffffffffffffffffffffffffffffffff1681526020019081526020016000206000828254611c649190613368565b925050819055506002600083815260200190815260200160002060006101000a81549073ffffffffffffffffffffffffffffffffffffffff021916905581600073ffffffffffffffffffffffffffffffffffffffff168273ffffffffffffffffffffffffffffffffffffffff167fddf252ad1be2c89b69c2b068fc378daa952ba7f163c4a11628f55a4df523b3ef60405160405180910390a4611d0981600084612120565b5050565b8173ffffffffffffffffffffffffffffffffffffffff168373ffffffffffffffffffffffffffffffffffffffff161415611d7c576040517f08c379a0000000000000000000000000000000000000000000000000000000008152600401611d7390612f20565b60405180910390fd5b80600560008573ffffffffffffffffffffffffffffffffffffffff1673ffffffffffffffffffffffffffffffffffffffff16815260200190815260200160002060008473ffffffffffffffffffffffffffffffffffffffff1673ffffffffffffffffffffffffffffffffffffffff16815260200190815260200160002060006101000a81548160ff0219169083151502179055508173ffffffffffffffffffffffffffffffffffffffff168373ffffffffffffffffffffffffffffffffffffffff167f17307eab39ab6107e8899845ad3d59bd9653f200f220920489ca2b5937696c3183604051611e6d9190612e43565b60405180910390a3505050565b611e8584848461197c565b611e9184848484612125565b611ed0576040517f08c379a0000000000000000000000000000000000000000000000000000000008152600401611ec790612ea0565b60405180910390fd5b50505050565b60606040518060400160405280601a81526020017f687474703a2f2f6c6f63616c686f73743a353030302f6e66742f000000000000815250905090565b60606000821415611f5b576040518060400160405280600181526020017f300000000000000000000000000000000000000000000000000000000000000081525090506120bb565b600082905060005b60008214611f8d578080611f76906134cc565b915050600a82611f869190613337565b9150611f63565b60008167ffffffffffffffff811115611fcf577f4e487b7100000000000000000000000000000000000000000000000000000000600052604160045260246000fd5b6040519080825280601f01601f1916602001820160405280156120015781602001600182028036833780820191505090505b5090505b600085146120b45760018261201a9190613368565b9150600a856120299190613515565b603061203591906132aa565b60f81b818381518110612071577f4e487b7100000000000000000000000000000000000000000000000000000000600052603260045260246000fd5b60200101907effffffffffffffffffffffffffffffffffffffffffffffffffffffffffffff1916908160001a905350600a856120ad9190613337565b9450612005565b8093505050505b919050565b6120ca83836122bc565b6120d76000848484612125565b612116576040517f08c379a000000000000000000000000000000000000000000000000000000000815260040161210d90612ea0565b60405180910390fd5b505050565b505050565b505050565b60006121468473ffffffffffffffffffffffffffffffffffffffff16612496565b156122af578373ffffffffffffffffffffffffffffffffffffffff1663150b7a0261216f6117b1565b8786866040518563ffffffff1660e01b81526004016121919493929190612df7565b602060405180830381600087803b1580156121ab57600080fd5b505af19250505080156121dc57506040513d601f19601f820116820180604052508101906121d991906128e8565b60015b61225f573d806000811461220c576040519150601f19603f3d011682016040523d82523d6000602084013e612211565b606091505b50600081511415612257576040517f08c379a000000000000000000000000000000000000000000000000000000000815260040161224e90612ea0565b60405180910390fd5b805181602001fd5b63150b7a0260e01b7bffffffffffffffffffffffffffffffffffffffffffffffffffffffff1916817bffffffffffffffffffffffffffffffffffffffffffffffffffffffff1916149150506122b4565b600190505b949350505050565b600073ffffffffffffffffffffffffffffffffffffffff168273ffffffffffffffffffffffffffffffffffffffff16141561232c576040517f08c379a000000000000000000000000000000000000000000000000000000000815260040161232390612fe0565b60405180910390fd5b61233581611745565b15612375576040517f08c379a000000000000000000000000000000000000000000000000000000000815260040161236c90612ee0565b60405180910390fd5b6123816000838361211b565b6001600360008473ffffffffffffffffffffffffffffffffffffffff1673ffffffffffffffffffffffffffffffffffffffff16815260200190815260200160002060008282546123d191906132aa565b92505081905550816002600083815260200190815260200160002060006101000a81548173ffffffffffffffffffffffffffffffffffffffff021916908373ffffffffffffffffffffffffffffffffffffffff160217905550808273ffffffffffffffffffffffffffffffffffffffff16600073ffffffffffffffffffffffffffffffffffffffff167fddf252ad1be2c89b69c2b068fc378daa952ba7f163c4a11628f55a4df523b3ef60405160405180910390a461249260008383612120565b5050565b6000808273ffffffffffffffffffffffffffffffffffffffff163b119050919050565b6040518060800160405280600060ff168152602001600060ff168152602001600060ff168152602001600060ff1681525090565b8280546124f990613469565b90600052602060002090601f01602090048101928261251b5760008555612562565b82601f1061253457803560ff1916838001178555612562565b82800160010185558215612562579182015b82811115612561578235825591602001919060010190612546565b5b50905061256f9190612573565b5090565b5b8082111561258c576000816000905550600101612574565b5090565b60006125a361259e84613236565b613211565b9050828152602081018484840111156125bb57600080fd5b6125c6848285613427565b509392505050565b6000813590506125dd81613a9a565b92915050565b6000813590506125f281613ab1565b92915050565b60008135905061260781613ac8565b92915050565b60008151905061261c81613ac8565b92915050565b600082601f83011261263357600080fd5b8135612643848260208601612590565b91505092915050565b60008083601f84011261265e57600080fd5b8235905067ffffffffffffffff81111561267757600080fd5b60208301915083600182028301111561268f57600080fd5b9250929050565b6000813590506126a581613adf565b92915050565b6000813590506126ba81613af6565b92915050565b6000602082840312156126d257600080fd5b60006126e0848285016125ce565b91505092915050565b600080604083850312156126fc57600080fd5b600061270a858286016125ce565b925050602061271b858286016125ce565b9150509250929050565b60008060006060848603121561273a57600080fd5b6000612748868287016125ce565b9350506020612759868287016125ce565b925050604061276a86828701612696565b9150509250925092565b6000806000806080858703121561278a57600080fd5b6000612798878288016125ce565b94505060206127a9878288016125ce565b93505060406127ba87828801612696565b925050606085013567ffffffffffffffff8111156127d757600080fd5b6127e387828801612622565b91505092959194509250565b6000806040838503121561280257600080fd5b6000612810858286016125ce565b9250506020612821858286016125e3565b9150509250929050565b60008060006040848603121561284057600080fd5b600061284e868287016125ce565b935050602084013567ffffffffffffffff81111561286b57600080fd5b6128778682870161264c565b92509250509250925092565b6000806040838503121561289657600080fd5b60006128a4858286016125ce565b92505060206128b585828601612696565b9150509250929050565b6000602082840312156128d157600080fd5b60006128df848285016125f8565b91505092915050565b6000602082840312156128fa57600080fd5b60006129088482850161260d565b91505092915050565b60006020828403121561292357600080fd5b600061293184828501612696565b91505092915050565b600080600080600060a0868803121561295257600080fd5b600061296088828901612696565b9550506020612971888289016126ab565b9450506040612982888289016126ab565b9350506060612993888289016126ab565b92505060806129a4888289016126ab565b9150509295509295909350565b6129ba8161339c565b82525050565b6129c9816133ae565b82525050565b6129d8816133ba565b82525050565b60006129e982613267565b6129f3818561327d565b9350612a03818560208601613436565b612a0c81613602565b840191505092915050565b6000612a2282613272565b612a2c818561328e565b9350612a3c818560208601613436565b612a4581613602565b840191505092915050565b6000612a5b82613272565b612a65818561329f565b9350612a75818560208601613436565b80840191505092915050565b6000612a8e601b8361328e565b9150612a9982613613565b602082019050919050565b6000612ab160328361328e565b9150612abc8261363c565b604082019050919050565b6000612ad460258361328e565b9150612adf8261368b565b604082019050919050565b6000612af7601c8361328e565b9150612b02826136da565b602082019050919050565b6000612b1a60248361328e565b9150612b2582613703565b604082019050919050565b6000612b3d60198361328e565b9150612b4882613752565b602082019050919050565b6000612b60601e8361328e565b9150612b6b8261377b565b602082019050919050565b6000612b83602c8361328e565b9150612b8e826137a4565b604082019050919050565b6000612ba660388361328e565b9150612bb1826137f3565b604082019050919050565b6000612bc9602a8361328e565b9150612bd482613842565b604082019050919050565b6000612bec60298361328e565b9150612bf782613891565b604082019050919050565b6000612c0f60208361328e565b9150612c1a826138e0565b602082019050919050565b6000612c32602c8361328e565b9150612c3d82613909565b604082019050919050565b6000612c55602f8361328e565b9150612c6082613958565b604082019050919050565b6000612c7860218361328e565b9150612c83826139a7565b604082019050919050565b6000612c9b60008361328e565b9150612ca6826139f6565b600082019050919050565b6000612cbe60318361328e565b9150612cc9826139f9565b604082019050919050565b6000612ce160048361328e565b9150612cec82613a48565b602082019050919050565b6000612d0460058361328e565b9150612d0f82613a71565b602082019050919050565b608082016000820151612d306000850182612da9565b506020820151612d436020850182612da9565b506040820151612d566040850182612da9565b506060820151612d696060850182612da9565b50505050565b602082016000820151612d856000850182612d8b565b50505050565b612d9481613410565b82525050565b612da381613410565b82525050565b612db28161341a565b82525050565b6000612dc48285612a50565b9150612dd08284612a50565b91508190509392505050565b6000602082019050612df160008301846129b1565b92915050565b6000608082019050612e0c60008301876129b1565b612e1960208301866129b1565b612e266040830185612d9a565b8181036060830152612e3881846129de565b905095945050505050565b6000602082019050612e5860008301846129c0565b92915050565b60006020820190508181036000830152612e788184612a17565b905092915050565b60006020820190508181036000830152612e9981612a81565b9050919050565b60006020820190508181036000830152612eb981612aa4565b9050919050565b60006020820190508181036000830152612ed981612ac7565b9050919050565b60006020820190508181036000830152612ef981612aea565b9050919050565b60006020820190508181036000830152612f1981612b0d565b9050919050565b60006020820190508181036000830152612f3981612b30565b9050919050565b60006020820190508181036000830152612f5981612b53565b9050919050565b60006020820190508181036000830152612f7981612b76565b9050919050565b60006020820190508181036000830152612f9981612b99565b9050919050565b60006020820190508181036000830152612fb981612bbc565b9050919050565b60006020820190508181036000830152612fd981612bdf565b9050919050565b60006020820190508181036000830152612ff981612c02565b9050919050565b6000602082019050818103600083015261301981612c25565b9050919050565b6000602082019050818103600083015261303981612c48565b9050919050565b6000602082019050818103600083015261305981612c6b565b9050919050565b6000602082019050818103600083015261307981612cb1565b9050919050565b600060c082019050818103600083015261309981612cd4565b90506130a86020830187612d9a565b6130b56040830186612d9a565b81810360608301526130c681612c8e565b90506130d56080830185612d9a565b6130e260a08301846129cf565b95945050505050565b600060c082019050818103600083015261310481612cf7565b90506131136020830188612d9a565b6131206040830187612d9a565b81810360608301526131328186612a17565b90506131416080830185612d9a565b61314e60a08301846129cf565b9695505050505050565b600060808201905061316d6000830184612d1a565b92915050565b60006040820190506131886000830185612d6f565b6131956020830184612d6f565b9392505050565b60006020820190506131b16000830184612d9a565b92915050565b600060a0820190506131cc6000830188612d9a565b6131d96020830187612d9a565b81810360408301526131eb8186612a17565b90506131fa6060830185612d9a565b61320760808301846129cf565b9695505050505050565b600061321b61322c565b9050613227828261349b565b919050565b6000604051905090565b600067ffffffffffffffff821115613251576132506135d3565b5b61325a82613602565b9050602081019050919050565b600081519050919050565b600081519050919050565b600082825260208201905092915050565b600082825260208201905092915050565b600081905092915050565b60006132b582613410565b91506132c083613410565b9250827fffffffffffffffffffffffffffffffffffffffffffffffffffffffffffffffff038211156132f5576132f4613546565b5b828201905092915050565b600061330b8261341a565b91506133168361341a565b92508260ff0382111561332c5761332b613546565b5b828201905092915050565b600061334282613410565b915061334d83613410565b92508261335d5761335c613575565b5b828204905092915050565b600061337382613410565b915061337e83613410565b92508282101561339157613390613546565b5b828203905092915050565b60006133a7826133f0565b9050919050565b60008115159050919050565b6000819050919050565b60007fffffffff0000000000000000000000000000000000000000000000000000000082169050919050565b600073ffffffffffffffffffffffffffffffffffffffff82169050919050565b6000819050919050565b600060ff82169050919050565b82818337600083830152505050565b60005b83811015613454578082015181840152602081019050613439565b83811115613463576000848401525b50505050565b6000600282049050600182168061348157607f821691505b60208210811415613495576134946135a4565b5b50919050565b6134a482613602565b810181811067ffffffffffffffff821117156134c3576134c26135d3565b5b80604052505050565b60006134d782613410565b91507fffffffffffffffffffffffffffffffffffffffffffffffffffffffffffffffff82141561350a57613509613546565b5b600182019050919050565b600061352082613410565b915061352b83613410565b92508261353b5761353a613575565b5b828206905092915050565b7f4e487b7100000000000000000000000000000000000000000000000000000000600052601160045260246000fd5b7f4e487b7100000000000000000000000000000000000000000000000000000000600052601260045260246000fd5b7f4e487b7100000000000000000000000000000000000000000000000000000000600052602260045260246000fd5b7f4e487b7100000000000000000000000000000000000000000000000000000000600052604160045260246000fd5b6000601f19601f8301169050919050565b7f4f6e6c79207468652061646d696e2063616e20646f20746869732e0000000000600082015250565b7f4552433732313a207472616e7366657220746f206e6f6e20455243373231526560008201527f63656976657220696d706c656d656e7465720000000000000000000000000000602082015250565b7f4552433732313a207472616e736665722066726f6d20696e636f72726563742060008201527f6f776e6572000000000000000000000000000000000000000000000000000000602082015250565b7f4552433732313a20746f6b656e20616c7265616479206d696e74656400000000600082015250565b7f4552433732313a207472616e7366657220746f20746865207a65726f2061646460008201527f7265737300000000000000000000000000000000000000000000000000000000602082015250565b7f4552433732313a20617070726f766520746f2063616c6c657200000000000000600082015250565b7f546f74616c20537570706c7920686173206265656e20726561636865642e0000600082015250565b7f4552433732313a206f70657261746f7220717565727920666f72206e6f6e657860008201527f697374656e7420746f6b656e0000000000000000000000000000000000000000602082015250565b7f4552433732313a20617070726f76652063616c6c6572206973206e6f74206f7760008201527f6e6572206e6f7220617070726f76656420666f7220616c6c0000000000000000602082015250565b7f4552433732313a2062616c616e636520717565727920666f7220746865207a6560008201527f726f206164647265737300000000000000000000000000000000000000000000602082015250565b7f4552433732313a206f776e657220717565727920666f72206e6f6e657869737460008201527f656e7420746f6b656e0000000000000000000000000000000000000000000000602082015250565b7f4552433732313a206d696e7420746f20746865207a65726f2061646472657373600082015250565b7f4552433732313a20617070726f76656420717565727920666f72206e6f6e657860008201527f697374656e7420746f6b656e0000000000000000000000000000000000000000602082015250565b7f4552433732314d657461646174613a2055524920717565727920666f72206e6f60008201527f6e6578697374656e7420746f6b656e0000000000000000000000000000000000602082015250565b7f4552433732313a20617070726f76616c20746f2063757272656e74206f776e6560008201527f7200000000000000000000000000000000000000000000000000000000000000602082015250565b50565b7f4552433732313a207472616e736665722063616c6c6572206973206e6f74206f60008201527f776e6572206e6f7220617070726f766564000000000000000000000000000000602082015250565b7f6275726e00000000000000000000000000000000000000000000000000000000600082015250565b7f6d65726765000000000000000000000000000000000000000000000000000000600082015250565b613aa38161339c565b8114613aae57600080fd5b50565b613aba816133ae565b8114613ac557600080fd5b50565b613ad1816133c4565b8114613adc57600080fd5b50565b613ae881613410565b8114613af357600080fd5b50565b613aff8161341a565b8114613b0a57600080fd5b5056fea26469706673582212209f6ead6c8e0c0de90a6d39e85024fc6151fd9b301797d99cddeec9696318c74f64736f6c63430008040033",
  "linkReferences": {},
  "deployedLinkReferences": {}
}