{
  "contractName": "StartupHeroCreator",
  "abi": [
    {
      "inputs": [],
      "stateMutability": "nonpayable",
      "type": "constructor"
    },
    {
      "anonymous": false,
      "inputs": [
        {
          "indexed": true,
          "internalType": "address",
          "name": "owner",
          "type": "address"
        },
        {
          "indexed": true,
          "internalType": "address",
          "name": "approved",
          "type": "address"
        },
        {
          "indexed": true,
          "internalType": "uint256",
          "name": "tokenId",
          "type": "uint256"
        }
      ],
      "name": "Approval",
      "type": "event"
    },
    {
      "anonymous": false,
      "inputs": [
        {
          "indexed": true,
          "internalType": "address",
          "name": "owner",
          "type": "address"
        },
        {
          "indexed": true,
          "internalType": "address",
          "name": "operator",
          "type": "address"
        },
        {
          "indexed": false,
          "internalType": "bool",
          "name": "approved",
          "type": "bool"
        }
      ],
      "name": "ApprovalForAll",
      "type": "event"
    },
    {
      "anonymous": false,
      "inputs": [
        {
          "indexed": false,
          "internalType": "uint256",
          "name": "_tid",
          "type": "uint256"
        },
        {
          "indexed": false,
          "internalType": "uint256",
          "name": "_current",
          "type": "uint256"
        },
        {
          "indexed": false,
          "internalType": "string",
          "name": "_uri",
          "type": "string"
        },
        {
          "indexed": false,
          "internalType": "uint256",
          "name": "_time",
          "type": "uint256"
        },
        {
          "indexed": false,
          "internalType": "bytes32",
          "name": "_note",
          "type": "bytes32"
        }
      ],
      "name": "NftMinted",
      "type": "event"
    },
    {
      "anonymous": false,
      "inputs": [
        {
          "indexed": false,
          "internalType": "string",
          "name": "_status",
          "type": "string"
        },
        {
          "indexed": false,
          "internalType": "uint256",
          "name": "_tid",
          "type": "uint256"
        },
        {
          "indexed": false,
          "internalType": "uint256",
          "name": "_current",
          "type": "uint256"
        },
        {
          "indexed": false,
          "internalType": "string",
          "name": "_uri",
          "type": "string"
        },
        {
          "indexed": false,
          "internalType": "uint256",
          "name": "_time",
          "type": "uint256"
        },
        {
          "indexed": false,
          "internalType": "bytes32",
          "name": "_note",
          "type": "bytes32"
        }
      ],
      "name": "NftStatus",
      "type": "event"
    },
    {
      "anonymous": false,
      "inputs": [
        {
          "indexed": true,
          "internalType": "address",
          "name": "from",
          "type": "address"
        },
        {
          "indexed": true,
          "internalType": "address",
          "name": "to",
          "type": "address"
        },
        {
          "indexed": true,
          "internalType": "uint256",
          "name": "tokenId",
          "type": "uint256"
        }
      ],
      "name": "Transfer",
      "type": "event"
    },
    {
      "inputs": [],
      "name": "admin",
      "outputs": [
        {
          "internalType": "address",
          "name": "",
          "type": "address"
        }
      ],
      "stateMutability": "view",
      "type": "function",
      "constant": true
    },
    {
      "inputs": [
        {
          "internalType": "address",
          "name": "to",
          "type": "address"
        },
        {
          "internalType": "uint256",
          "name": "tokenId",
          "type": "uint256"
        }
      ],
      "name": "approve",
      "outputs": [],
      "stateMutability": "nonpayable",
      "type": "function"
    },
    {
      "inputs": [
        {
          "internalType": "address",
          "name": "owner",
          "type": "address"
        }
      ],
      "name": "balanceOf",
      "outputs": [
        {
          "internalType": "uint256",
          "name": "",
          "type": "uint256"
        }
      ],
      "stateMutability": "view",
      "type": "function",
      "constant": true
    },
    {
      "inputs": [],
      "name": "currentSeries",
      "outputs": [
        {
          "components": [
            {
              "internalType": "uint256",
              "name": "_value",
              "type": "uint256"
            }
          ],
          "internalType": "struct Counters.Counter",
          "name": "active",
          "type": "tuple"
        },
        {
          "components": [
            {
              "internalType": "uint256",
              "name": "_value",
              "type": "uint256"
            }
          ],
          "internalType": "struct Counters.Counter",
          "name": "count",
          "type": "tuple"
        }
      ],
      "stateMutability": "view",
      "type": "function",
      "constant": true
    },
    {
      "inputs": [
        {
          "internalType": "uint256",
          "name": "tokenId",
          "type": "uint256"
        }
      ],
      "name": "getApproved",
      "outputs": [
        {
          "internalType": "address",
          "name": "",
          "type": "address"
        }
      ],
      "stateMutability": "view",
      "type": "function",
      "constant": true
    },
    {
      "inputs": [
        {
          "internalType": "address",
          "name": "owner",
          "type": "address"
        },
        {
          "internalType": "address",
          "name": "operator",
          "type": "address"
        }
      ],
      "name": "isApprovedForAll",
      "outputs": [
        {
          "internalType": "bool",
          "name": "",
          "type": "bool"
        }
      ],
      "stateMutability": "view",
      "type": "function",
      "constant": true
    },
    {
      "inputs": [],
      "name": "name",
      "outputs": [
        {
          "internalType": "string",
          "name": "",
          "type": "string"
        }
      ],
      "stateMutability": "view",
      "type": "function",
      "constant": true
    },
    {
      "inputs": [
        {
          "internalType": "uint256",
          "name": "tokenId",
          "type": "uint256"
        }
      ],
      "name": "ownerOf",
      "outputs": [
        {
          "internalType": "address",
          "name": "",
          "type": "address"
        }
      ],
      "stateMutability": "view",
      "type": "function",
      "constant": true
    },
    {
      "inputs": [
        {
          "internalType": "address",
          "name": "from",
          "type": "address"
        },
        {
          "internalType": "address",
          "name": "to",
          "type": "address"
        },
        {
          "internalType": "uint256",
          "name": "tokenId",
          "type": "uint256"
        }
      ],
      "name": "safeTransferFrom",
      "outputs": [],
      "stateMutability": "nonpayable",
      "type": "function"
    },
    {
      "inputs": [
        {
          "internalType": "address",
          "name": "from",
          "type": "address"
        },
        {
          "internalType": "address",
          "name": "to",
          "type": "address"
        },
        {
          "internalType": "uint256",
          "name": "tokenId",
          "type": "uint256"
        },
        {
          "internalType": "bytes",
          "name": "_data",
          "type": "bytes"
        }
      ],
      "name": "safeTransferFrom",
      "outputs": [],
      "stateMutability": "nonpayable",
      "type": "function"
    },
    {
      "inputs": [
        {
          "internalType": "address",
          "name": "operator",
          "type": "address"
        },
        {
          "internalType": "bool",
          "name": "approved",
          "type": "bool"
        }
      ],
      "name": "setApprovalForAll",
      "outputs": [],
      "stateMutability": "nonpayable",
      "type": "function"
    },
    {
      "inputs": [
        {
          "internalType": "bytes4",
          "name": "interfaceId",
          "type": "bytes4"
        }
      ],
      "name": "supportsInterface",
      "outputs": [
        {
          "internalType": "bool",
          "name": "",
          "type": "bool"
        }
      ],
      "stateMutability": "view",
      "type": "function",
      "constant": true
    },
    {
      "inputs": [],
      "name": "symbol",
      "outputs": [
        {
          "internalType": "string",
          "name": "",
          "type": "string"
        }
      ],
      "stateMutability": "view",
      "type": "function",
      "constant": true
    },
    {
      "inputs": [
        {
          "internalType": "uint256",
          "name": "tokenId",
          "type": "uint256"
        }
      ],
      "name": "tokenURI",
      "outputs": [
        {
          "internalType": "string",
          "name": "",
          "type": "string"
        }
      ],
      "stateMutability": "view",
      "type": "function",
      "constant": true
    },
    {
      "inputs": [
        {
          "internalType": "address",
          "name": "from",
          "type": "address"
        },
        {
          "internalType": "address",
          "name": "to",
          "type": "address"
        },
        {
          "internalType": "uint256",
          "name": "tokenId",
          "type": "uint256"
        }
      ],
      "name": "transferFrom",
      "outputs": [],
      "stateMutability": "nonpayable",
      "type": "function"
    },
    {
      "inputs": [
        {
          "internalType": "address",
          "name": "to",
          "type": "address"
        },
        {
          "internalType": "uint256",
          "name": "tid",
          "type": "uint256"
        }
      ],
      "name": "mint",
      "outputs": [],
      "stateMutability": "nonpayable",
      "type": "function"
    },
    {
      "inputs": [
        {
          "internalType": "address",
          "name": "to",
          "type": "address"
        },
        {
          "internalType": "uint256",
          "name": "tid",
          "type": "uint256"
        }
      ],
      "name": "merge",
      "outputs": [],
      "stateMutability": "nonpayable",
      "type": "function"
    },
    {
      "inputs": [
        {
          "internalType": "uint256",
          "name": "tokenId",
          "type": "uint256"
        },
        {
          "internalType": "uint8",
          "name": "_artist",
          "type": "uint8"
        },
        {
          "internalType": "uint8",
          "name": "_hacker",
          "type": "uint8"
        },
        {
          "internalType": "uint8",
          "name": "_hustler",
          "type": "uint8"
        },
        {
          "internalType": "uint8",
          "name": "_success",
          "type": "uint8"
        }
      ],
      "name": "burn",
      "outputs": [],
      "stateMutability": "nonpayable",
      "type": "function"
    },
    {
      "inputs": [
        {
          "internalType": "address",
          "name": "newMember",
          "type": "address"
        },
        {
          "internalType": "string",
          "name": "newMemberName",
          "type": "string"
        }
      ],
      "name": "addToCollective",
      "outputs": [],
      "stateMutability": "nonpayable",
      "type": "function"
    },
    {
      "inputs": [
        {
          "internalType": "uint256",
          "name": "index",
          "type": "uint256"
        }
      ],
      "name": "getToken",
      "outputs": [
        {
          "internalType": "uint256",
          "name": "",
          "type": "uint256"
        }
      ],
      "stateMutability": "view",
      "type": "function",
      "constant": true
    },
    {
      "inputs": [],
      "name": "getAttributes",
      "outputs": [
        {
          "components": [
            {
              "internalType": "uint8",
              "name": "artist",
              "type": "uint8"
            },
            {
              "internalType": "uint8",
              "name": "hacker",
              "type": "uint8"
            },
            {
              "internalType": "uint8",
              "name": "hustler",
              "type": "uint8"
            },
            {
              "internalType": "uint8",
              "name": "success",
              "type": "uint8"
            }
          ],
          "internalType": "struct StartupHeroCreator.Attributes",
          "name": "",
          "type": "tuple"
        }
      ],
      "stateMutability": "view",
      "type": "function",
      "constant": true
    }
  ],
  "bytecode": "0x60806040523480156200001157600080fd5b506040518060400160405280600c81526020017f53746172747570204865726f00000000000000000000000000000000000000008152506040518060400160405280600381526020017f535550000000000000000000000000000000000000000000000000000000000081525081600090805190602001906200009692919062000256565b508060019080519060200190620000af92919062000256565b50505033600760006101000a81548173ffffffffffffffffffffffffffffffffffffffff021916908373ffffffffffffffffffffffffffffffffffffffff1602179055506040518060400160405280600881526020017f54686520426f7373000000000000000000000000000000000000000000000000815250600c6000600760009054906101000a900473ffffffffffffffffffffffffffffffffffffffff1673ffffffffffffffffffffffffffffffffffffffff1673ffffffffffffffffffffffffffffffffffffffff1681526020019081526020016000206000019080519060200190620001a292919062000256565b506001600c6000600760009054906101000a900473ffffffffffffffffffffffffffffffffffffffff1673ffffffffffffffffffffffffffffffffffffffff1673ffffffffffffffffffffffffffffffffffffffff16815260200190815260200160002060020160006101000a81548160ff0219169083151502179055506200023a60086000016200024060201b6200174f1760201c565b6200036b565b6001816000016000828254019250508190555050565b828054620002649062000335565b90600052602060002090601f016020900481019282620002885760008555620002d4565b82601f10620002a357805160ff1916838001178555620002d4565b82800160010185558215620002d4579182015b82811115620002d3578251825591602001919060010190620002b6565b5b509050620002e39190620002e7565b5090565b5b8082111562000302576000816000905550600101620002e8565b5090565b7f4e487b7100000000000000000000000000000000000000000000000000000000600052602260045260246000fd5b600060028204905060018216806200034e57607f821691505b6020821081141562000365576200036462000306565b5b50919050565b6139f6806200037b6000396000f3fe608060405234801561001057600080fd5b50600436106101375760003560e01c80636352211e116100b8578063b88d4fde1161007c578063b88d4fde14610339578063c3f640bf14610355578063c87b56dd14610371578063e4b50cb8146103a1578063e985e9c5146103d1578063f851a4401461040157610137565b80636352211e1461028357806370a08231146102b357806395d89b41146102e357806396c71c0114610301578063a22cb4651461031d57610137565b806317a4cf49116100ff57806317a4cf49146101f457806323b872dd1461021057806340c10f191461022c57806342842e0e146102485780635caa0dec1461026457610137565b806301ffc9a71461013c57806306fdde031461016c578063081812fc1461018a578063095ea7b3146101ba578063152583de146101d6575b600080fd5b61015660048036038101906101519190612486565b61041f565b60405161016391906124ce565b60405180910390f35b610174610501565b6040516101819190612582565b60405180910390f35b6101a4600480360381019061019f91906125da565b610593565b6040516101b19190612648565b60405180910390f35b6101d460048036038101906101cf919061268f565b610618565b005b6101de610730565b6040516101eb9190612740565b60405180910390f35b61020e6004803603810190610209919061268f565b6107fb565b005b61022a6004803603810190610225919061275b565b610a0b565b005b6102466004803603810190610241919061268f565b610a6b565b005b610262600480360381019061025d919061275b565b610d1e565b005b61026c610d3e565b60405161027a9291906127d9565b60405180910390f35b61029d600480360381019061029891906125da565b610d78565b6040516102aa9190612648565b60405180910390f35b6102cd60048036038101906102c89190612802565b610e2a565b6040516102da919061283e565b60405180910390f35b6102eb610ee2565b6040516102f89190612582565b60405180910390f35b61031b60048036038101906103169190612885565b610f74565b005b6103376004803603810190610332919061292c565b611264565b005b610353600480360381019061034e9190612aa1565b6113e5565b005b61036f600480360381019061036a9190612b84565b611447565b005b61038b600480360381019061038691906125da565b611589565b6040516103989190612582565b60405180910390f35b6103bb60048036038101906103b691906125da565b611630565b6040516103c8919061283e565b60405180910390f35b6103eb60048036038101906103e69190612be4565b611695565b6040516103f891906124ce565b60405180910390f35b610409611729565b6040516104169190612648565b60405180910390f35b60007f80ac58cd000000000000000000000000000000000000000000000000000000007bffffffffffffffffffffffffffffffffffffffffffffffffffffffff1916827bffffffffffffffffffffffffffffffffffffffffffffffffffffffff191614806104ea57507f5b5e139f000000000000000000000000000000000000000000000000000000007bffffffffffffffffffffffffffffffffffffffffffffffffffffffff1916827bffffffffffffffffffffffffffffffffffffffffffffffffffffffff1916145b806104fa57506104f982611765565b5b9050919050565b60606000805461051090612c53565b80601f016020809104026020016040519081016040528092919081815260200182805461053c90612c53565b80156105895780601f1061055e57610100808354040283529160200191610589565b820191906000526020600020905b81548152906001019060200180831161056c57829003601f168201915b5050505050905090565b600061059e826117cf565b6105dd576040517f08c379a00000000000000000000000000000000000000000000000000000000081526004016105d490612cf7565b60405180910390fd5b6004600083815260200190815260200160002060009054906101000a900473ffffffffffffffffffffffffffffffffffffffff169050919050565b600061062382610d78565b90508073ffffffffffffffffffffffffffffffffffffffff168373ffffffffffffffffffffffffffffffffffffffff161415610694576040517f08c379a000000000000000000000000000000000000000000000000000000000815260040161068b90612d89565b60405180910390fd5b8073ffffffffffffffffffffffffffffffffffffffff166106b361183b565b73ffffffffffffffffffffffffffffffffffffffff1614806106e257506106e1816106dc61183b565b611695565b5b610721576040517f08c379a000000000000000000000000000000000000000000000000000000000815260040161071890612e1b565b60405180910390fd5b61072b8383611843565b505050565b610738612343565b600a60003373ffffffffffffffffffffffffffffffffffffffff1673ffffffffffffffffffffffffffffffffffffffff1681526020019081526020016000206040518060800160405290816000820160009054906101000a900460ff1660ff1660ff1681526020016000820160019054906101000a900460ff1660ff1660ff1681526020016000820160029054906101000a900460ff1660ff1660ff1681526020016000820160039054906101000a900460ff1660ff1660ff1681525050905090565b610805600661174f565b61080f82826118fc565b600061081a82611589565b90506000429050600061082d600661191a565b905060007f4d657267696e672068617320636f6d706c657465642e0000000000000000000090506000600a60003373ffffffffffffffffffffffffffffffffffffffff1673ffffffffffffffffffffffffffffffffffffffff16815260200190815260200160002060000160006101000a81548160ff021916908360ff1602179055506000600a60003373ffffffffffffffffffffffffffffffffffffffff1673ffffffffffffffffffffffffffffffffffffffff16815260200190815260200160002060000160016101000a81548160ff021916908360ff1602179055506000600a60003373ffffffffffffffffffffffffffffffffffffffff1673ffffffffffffffffffffffffffffffffffffffff16815260200190815260200160002060000160026101000a81548160ff021916908360ff1602179055506000600a60003373ffffffffffffffffffffffffffffffffffffffff1673ffffffffffffffffffffffffffffffffffffffff16815260200190815260200160002060000160036101000a81548160ff021916908360ff1602179055507f90cc54bb734fca00043377a7e3bd86f3d4bee273a12f901cf4f26d72755cbd1185838686856040516109fb959493929190612ea0565b60405180910390a1505050505050565b610a1c610a1661183b565b82611928565b610a5b576040517f08c379a0000000000000000000000000000000000000000000000000000000008152600401610a5290612f7f565b60405180910390fd5b610a66838383611a06565b505050565b610a75600661174f565b6000610a81600661191a565b9050600b60003373ffffffffffffffffffffffffffffffffffffffff1673ffffffffffffffffffffffffffffffffffffffff168152602001908152602001600020829080600181540180825580915050600190039060005260206000200160009091909190915055610af6600860010161174f565b6005610b05600860010161191a565b1115610b2657610b18600860000161174f565b610b256008600101611c62565b5b6000600a60003373ffffffffffffffffffffffffffffffffffffffff1673ffffffffffffffffffffffffffffffffffffffff16815260200190815260200160002060000160006101000a81548160ff021916908360ff1602179055506000600a60003373ffffffffffffffffffffffffffffffffffffffff1673ffffffffffffffffffffffffffffffffffffffff16815260200190815260200160002060000160016101000a81548160ff021916908360ff1602179055506000600a60003373ffffffffffffffffffffffffffffffffffffffff1673ffffffffffffffffffffffffffffffffffffffff16815260200190815260200160002060000160026101000a81548160ff021916908360ff1602179055506000600a60003373ffffffffffffffffffffffffffffffffffffffff1673ffffffffffffffffffffffffffffffffffffffff16815260200190815260200160002060000160036101000a81548160ff021916908360ff160217905550610ca083836118fc565b6000610cab83611589565b9050600042905060007f4e465420686173206265656e206d696e7465642e00000000000000000000000090507fbc83ebe4fb5b526a6a44328b8cac55634e74844c44b866f58a44d21e19fc60bc8585858585604051610d0e959493929190612f9f565b60405180910390a1505050505050565b610d39838383604051806020016040528060008152506113e5565b505050565b6008806000016040518060200160405290816000820154815250509080600101604051806020016040529081600082015481525050905082565b6000806002600084815260200190815260200160002060009054906101000a900473ffffffffffffffffffffffffffffffffffffffff169050600073ffffffffffffffffffffffffffffffffffffffff168173ffffffffffffffffffffffffffffffffffffffff161415610e21576040517f08c379a0000000000000000000000000000000000000000000000000000000008152600401610e189061306b565b60405180910390fd5b80915050919050565b60008073ffffffffffffffffffffffffffffffffffffffff168273ffffffffffffffffffffffffffffffffffffffff161415610e9b576040517f08c379a0000000000000000000000000000000000000000000000000000000008152600401610e92906130fd565b60405180910390fd5b600360008373ffffffffffffffffffffffffffffffffffffffff1673ffffffffffffffffffffffffffffffffffffffff168152602001908152602001600020549050919050565b606060018054610ef190612c53565b80601f0160208091040260200160405190810160405280929190818152602001828054610f1d90612c53565b8015610f6a5780601f10610f3f57610100808354040283529160200191610f6a565b820191906000526020600020905b815481529060010190602001808311610f4d57829003601f168201915b5050505050905090565b600760009054906101000a900473ffffffffffffffffffffffffffffffffffffffff1673ffffffffffffffffffffffffffffffffffffffff163373ffffffffffffffffffffffffffffffffffffffff1614611004576040517f08c379a0000000000000000000000000000000000000000000000000000000008152600401610ffb90613169565b60405180910390fd5b83600a60003373ffffffffffffffffffffffffffffffffffffffff1673ffffffffffffffffffffffffffffffffffffffff16815260200190815260200160002060000160008282829054906101000a900460ff1661106291906131b8565b92506101000a81548160ff021916908360ff16021790555082600a60003373ffffffffffffffffffffffffffffffffffffffff1673ffffffffffffffffffffffffffffffffffffffff16815260200190815260200160002060000160018282829054906101000a900460ff166110d891906131b8565b92506101000a81548160ff021916908360ff16021790555081600a60003373ffffffffffffffffffffffffffffffffffffffff1673ffffffffffffffffffffffffffffffffffffffff16815260200190815260200160002060000160028282829054906101000a900460ff1661114e91906131b8565b92506101000a81548160ff021916908360ff16021790555080600a60003373ffffffffffffffffffffffffffffffffffffffff1673ffffffffffffffffffffffffffffffffffffffff16815260200190815260200160002060000160038282829054906101000a900460ff166111c491906131b8565b92506101000a81548160ff021916908360ff160217905550600042905060006111ed600661191a565b905060007f5468697320746f6b656e20686173206265656e206275726e65642e0000000000905061121d88611c6f565b7f90cc54bb734fca00043377a7e3bd86f3d4bee273a12f901cf4f26d72755cbd11888385846040516112529493929190613261565b60405180910390a15050505050505050565b61126c61183b565b73ffffffffffffffffffffffffffffffffffffffff168273ffffffffffffffffffffffffffffffffffffffff1614156112da576040517f08c379a00000000000000000000000000000000000000000000000000000000081526004016112d190613318565b60405180910390fd5b80600560006112e761183b565b73ffffffffffffffffffffffffffffffffffffffff1673ffffffffffffffffffffffffffffffffffffffff16815260200190815260200160002060008473ffffffffffffffffffffffffffffffffffffffff1673ffffffffffffffffffffffffffffffffffffffff16815260200190815260200160002060006101000a81548160ff0219169083151502179055508173ffffffffffffffffffffffffffffffffffffffff1661139461183b565b73ffffffffffffffffffffffffffffffffffffffff167f17307eab39ab6107e8899845ad3d59bd9653f200f220920489ca2b5937696c31836040516113d991906124ce565b60405180910390a35050565b6113f66113f061183b565b83611928565b611435576040517f08c379a000000000000000000000000000000000000000000000000000000000815260040161142c90612f7f565b60405180910390fd5b61144184848484611d80565b50505050565b600760009054906101000a900473ffffffffffffffffffffffffffffffffffffffff1673ffffffffffffffffffffffffffffffffffffffff163373ffffffffffffffffffffffffffffffffffffffff16146114d7576040517f08c379a00000000000000000000000000000000000000000000000000000000081526004016114ce90613169565b60405180910390fd5b8181600c60008673ffffffffffffffffffffffffffffffffffffffff1673ffffffffffffffffffffffffffffffffffffffff1681526020019081526020016000206000019190611528929190612377565b506001600c60008573ffffffffffffffffffffffffffffffffffffffff1673ffffffffffffffffffffffffffffffffffffffff16815260200190815260200160002060020160006101000a81548160ff021916908315150217905550505050565b6060611594826117cf565b6115d3576040517f08c379a00000000000000000000000000000000000000000000000000000000081526004016115ca906133aa565b60405180910390fd5b60006115dd611ddc565b905060008151116115fd5760405180602001604052806000815250611628565b8061160784611e19565b604051602001611618929190613406565b6040516020818303038152906040525b915050919050565b6000600b60003373ffffffffffffffffffffffffffffffffffffffff1673ffffffffffffffffffffffffffffffffffffffff16815260200190815260200160002082815481106116835761168261342a565b5b90600052602060002001549050919050565b6000600560008473ffffffffffffffffffffffffffffffffffffffff1673ffffffffffffffffffffffffffffffffffffffff16815260200190815260200160002060008373ffffffffffffffffffffffffffffffffffffffff1673ffffffffffffffffffffffffffffffffffffffff16815260200190815260200160002060009054906101000a900460ff16905092915050565b600760009054906101000a900473ffffffffffffffffffffffffffffffffffffffff1681565b6001816000016000828254019250508190555050565b60007f01ffc9a7000000000000000000000000000000000000000000000000000000007bffffffffffffffffffffffffffffffffffffffffffffffffffffffff1916827bffffffffffffffffffffffffffffffffffffffffffffffffffffffff1916149050919050565b60008073ffffffffffffffffffffffffffffffffffffffff166002600084815260200190815260200160002060009054906101000a900473ffffffffffffffffffffffffffffffffffffffff1673ffffffffffffffffffffffffffffffffffffffff1614159050919050565b600033905090565b816004600083815260200190815260200160002060006101000a81548173ffffffffffffffffffffffffffffffffffffffff021916908373ffffffffffffffffffffffffffffffffffffffff160217905550808273ffffffffffffffffffffffffffffffffffffffff166118b683610d78565b73ffffffffffffffffffffffffffffffffffffffff167f8c5be1e5ebec7d5bd14f71427d1e84f3dd0314c0f7b2291e5b200ac8c7c3b92560405160405180910390a45050565b611916828260405180602001604052806000815250611f7a565b5050565b600081600001549050919050565b6000611933826117cf565b611972576040517f08c379a0000000000000000000000000000000000000000000000000000000008152600401611969906134cb565b60405180910390fd5b600061197d83610d78565b90508073ffffffffffffffffffffffffffffffffffffffff168473ffffffffffffffffffffffffffffffffffffffff1614806119ec57508373ffffffffffffffffffffffffffffffffffffffff166119d484610593565b73ffffffffffffffffffffffffffffffffffffffff16145b806119fd57506119fc8185611695565b5b91505092915050565b8273ffffffffffffffffffffffffffffffffffffffff16611a2682610d78565b73ffffffffffffffffffffffffffffffffffffffff1614611a7c576040517f08c379a0000000000000000000000000000000000000000000000000000000008152600401611a739061355d565b60405180910390fd5b600073ffffffffffffffffffffffffffffffffffffffff168273ffffffffffffffffffffffffffffffffffffffff161415611aec576040517f08c379a0000000000000000000000000000000000000000000000000000000008152600401611ae3906135ef565b60405180910390fd5b611af7838383611fd5565b611b02600082611843565b6001600360008573ffffffffffffffffffffffffffffffffffffffff1673ffffffffffffffffffffffffffffffffffffffff1681526020019081526020016000206000828254611b52919061360f565b925050819055506001600360008473ffffffffffffffffffffffffffffffffffffffff1673ffffffffffffffffffffffffffffffffffffffff1681526020019081526020016000206000828254611ba99190613643565b92505081905550816002600083815260200190815260200160002060006101000a81548173ffffffffffffffffffffffffffffffffffffffff021916908373ffffffffffffffffffffffffffffffffffffffff160217905550808273ffffffffffffffffffffffffffffffffffffffff168473ffffffffffffffffffffffffffffffffffffffff167fddf252ad1be2c89b69c2b068fc378daa952ba7f163c4a11628f55a4df523b3ef60405160405180910390a4505050565b6000816000018190555050565b6000611c7a82610d78565b9050611c8881600084611fd5565b611c93600083611843565b6001600360008373ffffffffffffffffffffffffffffffffffffffff1673ffffffffffffffffffffffffffffffffffffffff1681526020019081526020016000206000828254611ce3919061360f565b925050819055506002600083815260200190815260200160002060006101000a81549073ffffffffffffffffffffffffffffffffffffffff021916905581600073ffffffffffffffffffffffffffffffffffffffff168273ffffffffffffffffffffffffffffffffffffffff167fddf252ad1be2c89b69c2b068fc378daa952ba7f163c4a11628f55a4df523b3ef60405160405180910390a45050565b611d8b848484611a06565b611d9784848484611fda565b611dd6576040517f08c379a0000000000000000000000000000000000000000000000000000000008152600401611dcd9061370b565b60405180910390fd5b50505050565b60606040518060400160405280601a81526020017f687474703a2f2f6c6f63616c686f73743a353030302f6e66742f000000000000815250905090565b60606000821415611e61576040518060400160405280600181526020017f30000000000000000000000000000000000000000000000000000000000000008152509050611f75565b600082905060005b60008214611e93578080611e7c9061372b565b915050600a82611e8c91906137a3565b9150611e69565b60008167ffffffffffffffff811115611eaf57611eae612976565b5b6040519080825280601f01601f191660200182016040528015611ee15781602001600182028036833780820191505090505b5090505b60008514611f6e57600182611efa919061360f565b9150600a85611f0991906137d4565b6030611f159190613643565b60f81b818381518110611f2b57611f2a61342a565b5b60200101907effffffffffffffffffffffffffffffffffffffffffffffffffffffffffffff1916908160001a905350600a85611f6791906137a3565b9450611ee5565b8093505050505b919050565b611f848383612162565b611f916000848484611fda565b611fd0576040517f08c379a0000000000000000000000000000000000000000000000000000000008152600401611fc79061370b565b60405180910390fd5b505050565b505050565b6000611ffb8473ffffffffffffffffffffffffffffffffffffffff16612330565b15612155578373ffffffffffffffffffffffffffffffffffffffff1663150b7a0261202461183b565b8786866040518563ffffffff1660e01b8152600401612046949392919061385a565b6020604051808303816000875af192505050801561208257506040513d601f19601f8201168201806040525081019061207f91906138bb565b60015b612105573d80600081146120b2576040519150601f19603f3d011682016040523d82523d6000602084013e6120b7565b606091505b506000815114156120fd576040517f08c379a00000000000000000000000000000000000000000000000000000000081526004016120f49061370b565b60405180910390fd5b805181602001fd5b63150b7a0260e01b7bffffffffffffffffffffffffffffffffffffffffffffffffffffffff1916817bffffffffffffffffffffffffffffffffffffffffffffffffffffffff19161491505061215a565b600190505b949350505050565b600073ffffffffffffffffffffffffffffffffffffffff168273ffffffffffffffffffffffffffffffffffffffff1614156121d2576040517f08c379a00000000000000000000000000000000000000000000000000000000081526004016121c990613934565b60405180910390fd5b6121db816117cf565b1561221b576040517f08c379a0000000000000000000000000000000000000000000000000000000008152600401612212906139a0565b60405180910390fd5b61222760008383611fd5565b6001600360008473ffffffffffffffffffffffffffffffffffffffff1673ffffffffffffffffffffffffffffffffffffffff16815260200190815260200160002060008282546122779190613643565b92505081905550816002600083815260200190815260200160002060006101000a81548173ffffffffffffffffffffffffffffffffffffffff021916908373ffffffffffffffffffffffffffffffffffffffff160217905550808273ffffffffffffffffffffffffffffffffffffffff16600073ffffffffffffffffffffffffffffffffffffffff167fddf252ad1be2c89b69c2b068fc378daa952ba7f163c4a11628f55a4df523b3ef60405160405180910390a45050565b600080823b905060008111915050919050565b6040518060800160405280600060ff168152602001600060ff168152602001600060ff168152602001600060ff1681525090565b82805461238390612c53565b90600052602060002090601f0160209004810192826123a557600085556123ec565b82601f106123be57803560ff19168380011785556123ec565b828001600101855582156123ec579182015b828111156123eb5782358255916020019190600101906123d0565b5b5090506123f991906123fd565b5090565b5b808211156124165760008160009055506001016123fe565b5090565b6000604051905090565b600080fd5b600080fd5b60007fffffffff0000000000000000000000000000000000000000000000000000000082169050919050565b6124638161242e565b811461246e57600080fd5b50565b6000813590506124808161245a565b92915050565b60006020828403121561249c5761249b612424565b5b60006124aa84828501612471565b91505092915050565b60008115159050919050565b6124c8816124b3565b82525050565b60006020820190506124e360008301846124bf565b92915050565b600081519050919050565b600082825260208201905092915050565b60005b83811015612523578082015181840152602081019050612508565b83811115612532576000848401525b50505050565b6000601f19601f8301169050919050565b6000612554826124e9565b61255e81856124f4565b935061256e818560208601612505565b61257781612538565b840191505092915050565b6000602082019050818103600083015261259c8184612549565b905092915050565b6000819050919050565b6125b7816125a4565b81146125c257600080fd5b50565b6000813590506125d4816125ae565b92915050565b6000602082840312156125f0576125ef612424565b5b60006125fe848285016125c5565b91505092915050565b600073ffffffffffffffffffffffffffffffffffffffff82169050919050565b600061263282612607565b9050919050565b61264281612627565b82525050565b600060208201905061265d6000830184612639565b92915050565b61266c81612627565b811461267757600080fd5b50565b60008135905061268981612663565b92915050565b600080604083850312156126a6576126a5612424565b5b60006126b48582860161267a565b92505060206126c5858286016125c5565b9150509250929050565b600060ff82169050919050565b6126e5816126cf565b82525050565b60808201600082015161270160008501826126dc565b50602082015161271460208501826126dc565b50604082015161272760408501826126dc565b50606082015161273a60608501826126dc565b50505050565b600060808201905061275560008301846126eb565b92915050565b60008060006060848603121561277457612773612424565b5b60006127828682870161267a565b93505060206127938682870161267a565b92505060406127a4868287016125c5565b9150509250925092565b6127b7816125a4565b82525050565b6020820160008201516127d360008501826127ae565b50505050565b60006040820190506127ee60008301856127bd565b6127fb60208301846127bd565b9392505050565b60006020828403121561281857612817612424565b5b60006128268482850161267a565b91505092915050565b612838816125a4565b82525050565b6000602082019050612853600083018461282f565b92915050565b612862816126cf565b811461286d57600080fd5b50565b60008135905061287f81612859565b92915050565b600080600080600060a086880312156128a1576128a0612424565b5b60006128af888289016125c5565b95505060206128c088828901612870565b94505060406128d188828901612870565b93505060606128e288828901612870565b92505060806128f388828901612870565b9150509295509295909350565b612909816124b3565b811461291457600080fd5b50565b60008135905061292681612900565b92915050565b6000806040838503121561294357612942612424565b5b60006129518582860161267a565b925050602061296285828601612917565b9150509250929050565b600080fd5b600080fd5b7f4e487b7100000000000000000000000000000000000000000000000000000000600052604160045260246000fd5b6129ae82612538565b810181811067ffffffffffffffff821117156129cd576129cc612976565b5b80604052505050565b60006129e061241a565b90506129ec82826129a5565b919050565b600067ffffffffffffffff821115612a0c57612a0b612976565b5b612a1582612538565b9050602081019050919050565b82818337600083830152505050565b6000612a44612a3f846129f1565b6129d6565b905082815260208101848484011115612a6057612a5f612971565b5b612a6b848285612a22565b509392505050565b600082601f830112612a8857612a8761296c565b5b8135612a98848260208601612a31565b91505092915050565b60008060008060808587031215612abb57612aba612424565b5b6000612ac98782880161267a565b9450506020612ada8782880161267a565b9350506040612aeb878288016125c5565b925050606085013567ffffffffffffffff811115612b0c57612b0b612429565b5b612b1887828801612a73565b91505092959194509250565b600080fd5b600080fd5b60008083601f840112612b4457612b4361296c565b5b8235905067ffffffffffffffff811115612b6157612b60612b24565b5b602083019150836001820283011115612b7d57612b7c612b29565b5b9250929050565b600080600060408486031215612b9d57612b9c612424565b5b6000612bab8682870161267a565b935050602084013567ffffffffffffffff811115612bcc57612bcb612429565b5b612bd886828701612b2e565b92509250509250925092565b60008060408385031215612bfb57612bfa612424565b5b6000612c098582860161267a565b9250506020612c1a8582860161267a565b9150509250929050565b7f4e487b7100000000000000000000000000000000000000000000000000000000600052602260045260246000fd5b60006002820490506001821680612c6b57607f821691505b60208210811415612c7f57612c7e612c24565b5b50919050565b7f4552433732313a20617070726f76656420717565727920666f72206e6f6e657860008201527f697374656e7420746f6b656e0000000000000000000000000000000000000000602082015250565b6000612ce1602c836124f4565b9150612cec82612c85565b604082019050919050565b60006020820190508181036000830152612d1081612cd4565b9050919050565b7f4552433732313a20617070726f76616c20746f2063757272656e74206f776e6560008201527f7200000000000000000000000000000000000000000000000000000000000000602082015250565b6000612d736021836124f4565b9150612d7e82612d17565b604082019050919050565b60006020820190508181036000830152612da281612d66565b9050919050565b7f4552433732313a20617070726f76652063616c6c6572206973206e6f74206f7760008201527f6e6572206e6f7220617070726f76656420666f7220616c6c0000000000000000602082015250565b6000612e056038836124f4565b9150612e1082612da9565b604082019050919050565b60006020820190508181036000830152612e3481612df8565b9050919050565b7f6d65726765000000000000000000000000000000000000000000000000000000600082015250565b6000612e716005836124f4565b9150612e7c82612e3b565b602082019050919050565b6000819050919050565b612e9a81612e87565b82525050565b600060c0820190508181036000830152612eb981612e64565b9050612ec8602083018861282f565b612ed5604083018761282f565b8181036060830152612ee78186612549565b9050612ef6608083018561282f565b612f0360a0830184612e91565b9695505050505050565b7f4552433732313a207472616e736665722063616c6c6572206973206e6f74206f60008201527f776e6572206e6f7220617070726f766564000000000000000000000000000000602082015250565b6000612f696031836124f4565b9150612f7482612f0d565b604082019050919050565b60006020820190508181036000830152612f9881612f5c565b9050919050565b600060a082019050612fb4600083018861282f565b612fc1602083018761282f565b8181036040830152612fd38186612549565b9050612fe2606083018561282f565b612fef6080830184612e91565b9695505050505050565b7f4552433732313a206f776e657220717565727920666f72206e6f6e657869737460008201527f656e7420746f6b656e0000000000000000000000000000000000000000000000602082015250565b60006130556029836124f4565b915061306082612ff9565b604082019050919050565b6000602082019050818103600083015261308481613048565b9050919050565b7f4552433732313a2062616c616e636520717565727920666f7220746865207a6560008201527f726f206164647265737300000000000000000000000000000000000000000000602082015250565b60006130e7602a836124f4565b91506130f28261308b565b604082019050919050565b60006020820190508181036000830152613116816130da565b9050919050565b7f4f6e6c79207468652061646d696e2063616e20646f2074686973000000000000600082015250565b6000613153601a836124f4565b915061315e8261311d565b602082019050919050565b6000602082019050818103600083015261318281613146565b9050919050565b7f4e487b7100000000000000000000000000000000000000000000000000000000600052601160045260246000fd5b60006131c3826126cf565b91506131ce836126cf565b92508260ff038211156131e4576131e3613189565b5b828201905092915050565b7f6275726e00000000000000000000000000000000000000000000000000000000600082015250565b60006132256004836124f4565b9150613230826131ef565b602082019050919050565b50565b600061324b6000836124f4565b91506132568261323b565b600082019050919050565b600060c082019050818103600083015261327a81613218565b9050613289602083018761282f565b613296604083018661282f565b81810360608301526132a78161323e565b90506132b6608083018561282f565b6132c360a0830184612e91565b95945050505050565b7f4552433732313a20617070726f766520746f2063616c6c657200000000000000600082015250565b60006133026019836124f4565b915061330d826132cc565b602082019050919050565b60006020820190508181036000830152613331816132f5565b9050919050565b7f4552433732314d657461646174613a2055524920717565727920666f72206e6f60008201527f6e6578697374656e7420746f6b656e0000000000000000000000000000000000602082015250565b6000613394602f836124f4565b915061339f82613338565b604082019050919050565b600060208201905081810360008301526133c381613387565b9050919050565b600081905092915050565b60006133e0826124e9565b6133ea81856133ca565b93506133fa818560208601612505565b80840191505092915050565b600061341282856133d5565b915061341e82846133d5565b91508190509392505050565b7f4e487b7100000000000000000000000000000000000000000000000000000000600052603260045260246000fd5b7f4552433732313a206f70657261746f7220717565727920666f72206e6f6e657860008201527f697374656e7420746f6b656e0000000000000000000000000000000000000000602082015250565b60006134b5602c836124f4565b91506134c082613459565b604082019050919050565b600060208201905081810360008301526134e4816134a8565b9050919050565b7f4552433732313a207472616e73666572206f6620746f6b656e2074686174206960008201527f73206e6f74206f776e0000000000000000000000000000000000000000000000602082015250565b60006135476029836124f4565b9150613552826134eb565b604082019050919050565b600060208201905081810360008301526135768161353a565b9050919050565b7f4552433732313a207472616e7366657220746f20746865207a65726f2061646460008201527f7265737300000000000000000000000000000000000000000000000000000000602082015250565b60006135d96024836124f4565b91506135e48261357d565b604082019050919050565b60006020820190508181036000830152613608816135cc565b9050919050565b600061361a826125a4565b9150613625836125a4565b92508282101561363857613637613189565b5b828203905092915050565b600061364e826125a4565b9150613659836125a4565b9250827fffffffffffffffffffffffffffffffffffffffffffffffffffffffffffffffff0382111561368e5761368d613189565b5b828201905092915050565b7f4552433732313a207472616e7366657220746f206e6f6e20455243373231526560008201527f63656976657220696d706c656d656e7465720000000000000000000000000000602082015250565b60006136f56032836124f4565b915061370082613699565b604082019050919050565b60006020820190508181036000830152613724816136e8565b9050919050565b6000613736826125a4565b91507fffffffffffffffffffffffffffffffffffffffffffffffffffffffffffffffff82141561376957613768613189565b5b600182019050919050565b7f4e487b7100000000000000000000000000000000000000000000000000000000600052601260045260246000fd5b60006137ae826125a4565b91506137b9836125a4565b9250826137c9576137c8613774565b5b828204905092915050565b60006137df826125a4565b91506137ea836125a4565b9250826137fa576137f9613774565b5b828206905092915050565b600081519050919050565b600082825260208201905092915050565b600061382c82613805565b6138368185613810565b9350613846818560208601612505565b61384f81612538565b840191505092915050565b600060808201905061386f6000830187612639565b61387c6020830186612639565b613889604083018561282f565b818103606083015261389b8184613821565b905095945050505050565b6000815190506138b58161245a565b92915050565b6000602082840312156138d1576138d0612424565b5b60006138df848285016138a6565b91505092915050565b7f4552433732313a206d696e7420746f20746865207a65726f2061646472657373600082015250565b600061391e6020836124f4565b9150613929826138e8565b602082019050919050565b6000602082019050818103600083015261394d81613911565b9050919050565b7f4552433732313a20746f6b656e20616c7265616479206d696e74656400000000600082015250565b600061398a601c836124f4565b915061399582613954565b602082019050919050565b600060208201905081810360008301526139b98161397d565b905091905056fea2646970667358221220feaab5cc600de89988351fdbf54f62cf8046447a619eb745f37d8e73e791a5e364736f6c634300080a0033",
  "immutableReferences": {},
  "source": "// SPDX-License-Identifier: MIT\r\npragma solidity ^0.8.0;\r\n\r\nimport '@openzeppelin/contracts/token/ERC721/ERC721.sol';\r\nimport '@openzeppelin/contracts/utils/Counters.sol';\r\n\r\n// kept for testing in Remix\r\n// import 'https://github.com/OpenZeppelin/openzeppelin-contracts/blob/master/contracts/token/ERC721/ERC721.sol';\r\n// import 'https://github.com/OpenZeppelin/openzeppelin-contracts/blob/master/contracts/utils/Counters.sol';\r\n\r\n\r\n\r\ncontract StartupHeroCreator is ERC721 {\r\n  using Counters for Counters.Counter;\r\n  Counters.Counter private _indexNumber;\r\n \r\n  /**\r\n   * Global State Variables\r\n   */\r\n  address public admin;\r\n  \r\n  /**\r\n   * Struct Types\r\n   */\r\n\r\n  // attributes of a startup hero\r\n  struct Attributes {\r\n    uint8 artist;\r\n    uint8 hacker;\r\n    uint8 hustler;\r\n    uint8 success;\r\n  }\r\n  \r\n  struct Member {\r\n    string name;\r\n    uint256 balance;\r\n    bool membership;\r\n  }\r\n  \r\n  struct Series {\r\n      Counters.Counter active;\r\n      Counters.Counter count;\r\n  }\r\n  \r\n  Series public currentSeries;\r\n  \r\n  mapping(address => Attributes) private userStoredAttributes;    \r\n  mapping(address => uint256[]) private _userOwnedTokens;\r\n  mapping(address => Member) private _collective;\r\n  \r\n  constructor() ERC721('Startup Hero', 'SUP') {\r\n    admin = msg.sender;\r\n    \r\n    // Make the Admin the first member of the collective\r\n    _collective[admin].name = \"The Boss\";\r\n    _collective[admin].membership = true;\r\n    \r\n    // Define initial series\r\n    currentSeries.active.increment();\r\n  }\r\n  \r\n  /**\r\n   * MODIFIERS\r\n   */\r\n   // Admins Only\r\n  modifier onlyAdmin {\r\n    require(msg.sender == admin, \"Only the admin can do this\");\r\n    _;\r\n  }\r\n  \r\n  // Collective Members Only\r\n  modifier collectiveMember {\r\n    require(_collective[msg.sender].membership == true, 'User is not a member');\r\n    _;\r\n  }\r\n  \r\n  \r\n  \r\n  \r\n  /**\r\n   * EVENTS\r\n   */\r\n  event NftMinted(uint256 _tid, uint256 _current, string _uri, uint256 _time, bytes32 _note);\r\n  event NftStatus(string _status, uint256 _tid, uint256 _current, string _uri, uint256 _time, bytes32 _note);\r\n \r\n  \r\n  \r\n  /**\r\n   * FUNCTIONS\r\n   */\r\n   \r\n  /**\r\n   * Mint an NFT\r\n   * \r\n   * Only a member of the collective can mint\r\n   * \r\n   */\r\n  function mint(address to, uint256 tid) external {\r\n    _indexNumber.increment();\r\n    uint256 current = _indexNumber.current();\r\n    _userOwnedTokens[msg.sender].push(tid);\r\n    \r\n    currentSeries.count.increment();\r\n    \r\n    if( currentSeries.count.current() > 5) {\r\n        // increase to next series level\r\n        currentSeries.active.increment();\r\n        // reset minted NFT count\r\n        currentSeries.count.reset();\r\n    }\r\n    \r\n    userStoredAttributes[msg.sender].artist = 0;\r\n    userStoredAttributes[msg.sender].hacker = 0;\r\n    userStoredAttributes[msg.sender].hustler = 0;\r\n    userStoredAttributes[msg.sender].success = 0;\r\n    \r\n    _safeMint(to, tid);\r\n    \r\n    string memory uri = tokenURI(tid);\r\n    uint256 time = block.timestamp;\r\n    bytes32 note = \"NFT has been minted.\";\r\n    \r\n    emit NftMinted(tid, current, uri, time, note);\r\n  }\r\n  \r\n  /**\r\n   * Merge two(2) NFTs\r\n   * \r\n   * Any holder of an NFT can Merge\r\n   * \r\n   */\r\n   function merge(address to, uint256 tid) external {\r\n    _indexNumber.increment();\r\n    _safeMint(to, tid);\r\n\r\n    string memory uri = tokenURI(tid);\r\n    uint256 time = block.timestamp;\r\n    uint256 current = _indexNumber.current();\r\n    bytes32 note = \"Merging has completed.\";\r\n\r\n    userStoredAttributes[msg.sender].artist = 0;\r\n    userStoredAttributes[msg.sender].hacker = 0;\r\n    userStoredAttributes[msg.sender].hustler = 0;\r\n    userStoredAttributes[msg.sender].success = 0;\r\n    \r\n    emit NftStatus(\"merge\", tid, current, uri, time, note);\r\n  }\r\n  \r\n\r\n  /**\r\n   * Burn an NFT\r\n   * \r\n   * Any holder of an NFT can burn\r\n   * \r\n   */\r\n  function burn(uint256 tokenId, uint8 _artist, uint8 _hacker, uint8 _hustler, uint8 _success) onlyAdmin() public {\r\n    userStoredAttributes[msg.sender].artist += _artist;\r\n    userStoredAttributes[msg.sender].hacker += _hacker;\r\n    userStoredAttributes[msg.sender].hustler += _hustler;\r\n    userStoredAttributes[msg.sender].success += _success;\r\n    uint256 time = block.timestamp;\r\n    uint256 current = _indexNumber.current();\r\n    bytes32 note = \"This token has been burned.\";\r\n    \r\n    _burn(tokenId);\r\n    \r\n    emit NftStatus(\"burn\", tokenId, current, \"\", time, note);\r\n  }\r\n  \r\n  /**\r\n   * Add User to Collective\r\n   * \r\n   * Admin can add a user to the collective\r\n   * \r\n   */\r\n  function addToCollective(address newMember, string calldata newMemberName) onlyAdmin() public {\r\n    _collective[newMember].name = newMemberName;\r\n    _collective[newMember].membership = true;\r\n  }\r\n\r\n  /**\r\n   * Define the URI to use for storing the NFT JSON\r\n   */\r\n  function _baseURI() internal override pure returns (string memory) {\r\n    return 'http://localhost:5000/nft/';\r\n  }\r\n  \r\n  /**\r\n   * Get a specific token owned by the User\r\n   */\r\n  function getToken(uint256 index) public view returns (uint256) {\r\n    return _userOwnedTokens[msg.sender][index];\r\n  }\r\n\r\n  /**\r\n   * Retrieve available attributes that may be applied as part of tehe Burn Bonus\r\n   */\r\n  function getAttributes() public view returns (Attributes memory) {\r\n    return userStoredAttributes[msg.sender];\r\n  }\r\n  \r\n  \r\n}",
  "sourcePath": "D:\\Projects\\ETB\\startupHero\\contracts\\StartupHeroCreator.sol",
  "compiler": {
    "name": "solc",
    "version": "0.8.10+commit.fc410830.Emscripten.clang"
  },
  "schemaVersion": "3.4.3",
  "updatedAt": "2021-11-16T03:26:46.881Z",
  "networkType": "ethereum",
  "devdoc": {
    "kind": "dev",
    "methods": {
      "approve(address,uint256)": {
        "details": "See {IERC721-approve}."
      },
      "balanceOf(address)": {
        "details": "See {IERC721-balanceOf}."
      },
      "getApproved(uint256)": {
        "details": "See {IERC721-getApproved}."
      },
      "isApprovedForAll(address,address)": {
        "details": "See {IERC721-isApprovedForAll}."
      },
      "name()": {
        "details": "See {IERC721Metadata-name}."
      },
      "ownerOf(uint256)": {
        "details": "See {IERC721-ownerOf}."
      },
      "safeTransferFrom(address,address,uint256)": {
        "details": "See {IERC721-safeTransferFrom}."
      },
      "safeTransferFrom(address,address,uint256,bytes)": {
        "details": "See {IERC721-safeTransferFrom}."
      },
      "setApprovalForAll(address,bool)": {
        "details": "See {IERC721-setApprovalForAll}."
      },
      "supportsInterface(bytes4)": {
        "details": "See {IERC165-supportsInterface}."
      },
      "symbol()": {
        "details": "See {IERC721Metadata-symbol}."
      },
      "tokenURI(uint256)": {
        "details": "See {IERC721Metadata-tokenURI}."
      },
      "transferFrom(address,address,uint256)": {
        "details": "See {IERC721-transferFrom}."
      }
    },
    "version": 1
  },
  "userdoc": {
    "events": {
      "NftMinted(uint256,uint256,string,uint256,bytes32)": {
        "notice": "EVENTS"
      }
    },
    "kind": "user",
    "methods": {
      "addToCollective(address,string)": {
        "notice": "Add User to Collective  Admin can add a user to the collective "
      },
      "admin()": {
        "notice": "Global State Variables"
      },
      "burn(uint256,uint8,uint8,uint8,uint8)": {
        "notice": "Burn an NFT  Any holder of an NFT can burn "
      },
      "getAttributes()": {
        "notice": "Retrieve available attributes that may be applied as part of tehe Burn Bonus"
      },
      "getToken(uint256)": {
        "notice": "Get a specific token owned by the User"
      },
      "merge(address,uint256)": {
        "notice": "Merge two(2) NFTs  Any holder of an NFT can Merge "
      },
      "mint(address,uint256)": {
        "notice": "Mint an NFT  Only a member of the collective can mint "
      }
    },
    "version": 1
  }
}