{
  "contractName": "StartupHeroCreator",
  "abi": [
    {
      "inputs": [],
      "stateMutability": "nonpayable",
      "type": "constructor"
    },
    {
      "anonymous": false,
      "inputs": [
        {
          "indexed": true,
          "internalType": "address",
          "name": "owner",
          "type": "address"
        },
        {
          "indexed": true,
          "internalType": "address",
          "name": "approved",
          "type": "address"
        },
        {
          "indexed": true,
          "internalType": "uint256",
          "name": "tokenId",
          "type": "uint256"
        }
      ],
      "name": "Approval",
      "type": "event"
    },
    {
      "anonymous": false,
      "inputs": [
        {
          "indexed": true,
          "internalType": "address",
          "name": "owner",
          "type": "address"
        },
        {
          "indexed": true,
          "internalType": "address",
          "name": "operator",
          "type": "address"
        },
        {
          "indexed": false,
          "internalType": "bool",
          "name": "approved",
          "type": "bool"
        }
      ],
      "name": "ApprovalForAll",
      "type": "event"
    },
    {
      "anonymous": false,
      "inputs": [
        {
          "indexed": false,
          "internalType": "uint256",
          "name": "_tid",
          "type": "uint256"
        },
        {
          "indexed": false,
          "internalType": "string",
          "name": "_uri",
          "type": "string"
        },
        {
          "indexed": false,
          "internalType": "uint256",
          "name": "_time",
          "type": "uint256"
        }
      ],
      "name": "NftMinted",
      "type": "event"
    },
    {
      "anonymous": false,
      "inputs": [
        {
          "indexed": true,
          "internalType": "address",
          "name": "from",
          "type": "address"
        },
        {
          "indexed": true,
          "internalType": "address",
          "name": "to",
          "type": "address"
        },
        {
          "indexed": true,
          "internalType": "uint256",
          "name": "tokenId",
          "type": "uint256"
        }
      ],
      "name": "Transfer",
      "type": "event"
    },
    {
      "inputs": [],
      "name": "admin",
      "outputs": [
        {
          "internalType": "address",
          "name": "",
          "type": "address"
        }
      ],
      "stateMutability": "view",
      "type": "function",
      "constant": true
    },
    {
      "inputs": [
        {
          "internalType": "address",
          "name": "to",
          "type": "address"
        },
        {
          "internalType": "uint256",
          "name": "tokenId",
          "type": "uint256"
        }
      ],
      "name": "approve",
      "outputs": [],
      "stateMutability": "nonpayable",
      "type": "function"
    },
    {
      "inputs": [
        {
          "internalType": "address",
          "name": "owner",
          "type": "address"
        }
      ],
      "name": "balanceOf",
      "outputs": [
        {
          "internalType": "uint256",
          "name": "",
          "type": "uint256"
        }
      ],
      "stateMutability": "view",
      "type": "function",
      "constant": true
    },
    {
      "inputs": [
        {
          "internalType": "uint256",
          "name": "tokenId",
          "type": "uint256"
        }
      ],
      "name": "getApproved",
      "outputs": [
        {
          "internalType": "address",
          "name": "",
          "type": "address"
        }
      ],
      "stateMutability": "view",
      "type": "function",
      "constant": true
    },
    {
      "inputs": [
        {
          "internalType": "address",
          "name": "owner",
          "type": "address"
        },
        {
          "internalType": "address",
          "name": "operator",
          "type": "address"
        }
      ],
      "name": "isApprovedForAll",
      "outputs": [
        {
          "internalType": "bool",
          "name": "",
          "type": "bool"
        }
      ],
      "stateMutability": "view",
      "type": "function",
      "constant": true
    },
    {
      "inputs": [],
      "name": "name",
      "outputs": [
        {
          "internalType": "string",
          "name": "",
          "type": "string"
        }
      ],
      "stateMutability": "view",
      "type": "function",
      "constant": true
    },
    {
      "inputs": [
        {
          "internalType": "uint256",
          "name": "tokenId",
          "type": "uint256"
        }
      ],
      "name": "ownerOf",
      "outputs": [
        {
          "internalType": "address",
          "name": "",
          "type": "address"
        }
      ],
      "stateMutability": "view",
      "type": "function",
      "constant": true
    },
    {
      "inputs": [
        {
          "internalType": "address",
          "name": "from",
          "type": "address"
        },
        {
          "internalType": "address",
          "name": "to",
          "type": "address"
        },
        {
          "internalType": "uint256",
          "name": "tokenId",
          "type": "uint256"
        }
      ],
      "name": "safeTransferFrom",
      "outputs": [],
      "stateMutability": "nonpayable",
      "type": "function"
    },
    {
      "inputs": [
        {
          "internalType": "address",
          "name": "from",
          "type": "address"
        },
        {
          "internalType": "address",
          "name": "to",
          "type": "address"
        },
        {
          "internalType": "uint256",
          "name": "tokenId",
          "type": "uint256"
        },
        {
          "internalType": "bytes",
          "name": "_data",
          "type": "bytes"
        }
      ],
      "name": "safeTransferFrom",
      "outputs": [],
      "stateMutability": "nonpayable",
      "type": "function"
    },
    {
      "inputs": [
        {
          "internalType": "address",
          "name": "operator",
          "type": "address"
        },
        {
          "internalType": "bool",
          "name": "approved",
          "type": "bool"
        }
      ],
      "name": "setApprovalForAll",
      "outputs": [],
      "stateMutability": "nonpayable",
      "type": "function"
    },
    {
      "inputs": [
        {
          "internalType": "bytes4",
          "name": "interfaceId",
          "type": "bytes4"
        }
      ],
      "name": "supportsInterface",
      "outputs": [
        {
          "internalType": "bool",
          "name": "",
          "type": "bool"
        }
      ],
      "stateMutability": "view",
      "type": "function",
      "constant": true
    },
    {
      "inputs": [],
      "name": "symbol",
      "outputs": [
        {
          "internalType": "string",
          "name": "",
          "type": "string"
        }
      ],
      "stateMutability": "view",
      "type": "function",
      "constant": true
    },
    {
      "inputs": [
        {
          "internalType": "uint256",
          "name": "tokenId",
          "type": "uint256"
        }
      ],
      "name": "tokenURI",
      "outputs": [
        {
          "internalType": "string",
          "name": "",
          "type": "string"
        }
      ],
      "stateMutability": "view",
      "type": "function",
      "constant": true
    },
    {
      "inputs": [
        {
          "internalType": "address",
          "name": "from",
          "type": "address"
        },
        {
          "internalType": "address",
          "name": "to",
          "type": "address"
        },
        {
          "internalType": "uint256",
          "name": "tokenId",
          "type": "uint256"
        }
      ],
      "name": "transferFrom",
      "outputs": [],
      "stateMutability": "nonpayable",
      "type": "function"
    },
    {
      "inputs": [
        {
          "internalType": "address",
          "name": "to",
          "type": "address"
        }
      ],
      "name": "mint",
      "outputs": [],
      "stateMutability": "nonpayable",
      "type": "function"
    },
    {
      "inputs": [
        {
          "internalType": "address",
          "name": "to",
          "type": "address"
        },
        {
          "internalType": "uint256",
          "name": "tid_1",
          "type": "uint256"
        },
        {
          "internalType": "uint256",
          "name": "tid_2",
          "type": "uint256"
        }
      ],
      "name": "merge",
      "outputs": [],
      "stateMutability": "nonpayable",
      "type": "function"
    },
    {
      "inputs": [
        {
          "internalType": "uint256",
          "name": "tokenId",
          "type": "uint256"
        }
      ],
      "name": "burn",
      "outputs": [],
      "stateMutability": "nonpayable",
      "type": "function"
    },
    {
      "inputs": [
        {
          "internalType": "uint256",
          "name": "index",
          "type": "uint256"
        }
      ],
      "name": "getToken",
      "outputs": [
        {
          "internalType": "uint256",
          "name": "",
          "type": "uint256"
        }
      ],
      "stateMutability": "view",
      "type": "function",
      "constant": true
    }
  ],
  "bytecode": "0x60806040523480156200001157600080fd5b506040518060400160405280600c81526020017f53746172747570204865726f00000000000000000000000000000000000000008152506040518060400160405280600381526020017f5355500000000000000000000000000000000000000000000000000000000000815250816000908051906020019062000096929190620000f9565b508060019080519060200190620000af929190620000f9565b50505033600860006101000a81548173ffffffffffffffffffffffffffffffffffffffff021916908373ffffffffffffffffffffffffffffffffffffffff1602179055506200020e565b8280546200010790620001d8565b90600052602060002090601f0160209004810192826200012b576000855562000177565b82601f106200014657805160ff191683800117855562000177565b8280016001018555821562000177579182015b828111156200017657825182559160200191906001019062000159565b5b5090506200018691906200018a565b5090565b5b80821115620001a55760008160009055506001016200018b565b5090565b7f4e487b7100000000000000000000000000000000000000000000000000000000600052602260045260246000fd5b60006002820490506001821680620001f157607f821691505b60208210811415620002085762000207620001a9565b5b50919050565b612dc0806200021e6000396000f3fe608060405234801561001057600080fd5b50600436106101165760003560e01c80636a627842116100a2578063b88d4fde11610071578063b88d4fde146102db578063c87b56dd146102f7578063e4b50cb814610327578063e985e9c514610357578063f851a4401461038757610116565b80636a6278421461025557806370a082311461027157806395d89b41146102a1578063a22cb465146102bf57610116565b806323b872dd116100e957806323b872dd146101b557806342842e0e146101d157806342966c68146101ed578063463dcf0a146102095780636352211e1461022557610116565b806301ffc9a71461011b57806306fdde031461014b578063081812fc14610169578063095ea7b314610199575b600080fd5b61013560048036038101906101309190611c46565b6103a5565b6040516101429190611c8e565b60405180910390f35b610153610487565b6040516101609190611d42565b60405180910390f35b610183600480360381019061017e9190611d9a565b610519565b6040516101909190611e08565b60405180910390f35b6101b360048036038101906101ae9190611e4f565b61059e565b005b6101cf60048036038101906101ca9190611e8f565b6106b6565b005b6101eb60048036038101906101e69190611e8f565b610716565b005b61020760048036038101906102029190611d9a565b610736565b005b610223600480360381019061021e9190611ee2565b610755565b005b61023f600480360381019061023a9190611d9a565b6108d4565b60405161024c9190611e08565b60405180910390f35b61026f600480360381019061026a9190611f35565b610986565b005b61028b60048036038101906102869190611f35565b610af1565b6040516102989190611f71565b60405180910390f35b6102a9610ba9565b6040516102b69190611d42565b60405180910390f35b6102d960048036038101906102d49190611fb8565b610c3b565b005b6102f560048036038101906102f0919061212d565b610dbc565b005b610311600480360381019061030c9190611d9a565b610e1e565b60405161031e9190611d42565b60405180910390f35b610341600480360381019061033c9190611d9a565b610ec5565b60405161034e9190611f71565b60405180910390f35b610371600480360381019061036c91906121b0565b610f2a565b60405161037e9190611c8e565b60405180910390f35b61038f610fbe565b60405161039c9190611e08565b60405180910390f35b60007f80ac58cd000000000000000000000000000000000000000000000000000000007bffffffffffffffffffffffffffffffffffffffffffffffffffffffff1916827bffffffffffffffffffffffffffffffffffffffffffffffffffffffff1916148061047057507f5b5e139f000000000000000000000000000000000000000000000000000000007bffffffffffffffffffffffffffffffffffffffffffffffffffffffff1916827bffffffffffffffffffffffffffffffffffffffffffffffffffffffff1916145b80610480575061047f82610fe4565b5b9050919050565b6060600080546104969061221f565b80601f01602080910402602001604051908101604052809291908181526020018280546104c29061221f565b801561050f5780601f106104e45761010080835404028352916020019161050f565b820191906000526020600020905b8154815290600101906020018083116104f257829003601f168201915b5050505050905090565b60006105248261104e565b610563576040517f08c379a000000000000000000000000000000000000000000000000000000000815260040161055a906122c3565b60405180910390fd5b6004600083815260200190815260200160002060009054906101000a900473ffffffffffffffffffffffffffffffffffffffff169050919050565b60006105a9826108d4565b90508073ffffffffffffffffffffffffffffffffffffffff168373ffffffffffffffffffffffffffffffffffffffff16141561061a576040517f08c379a000000000000000000000000000000000000000000000000000000000815260040161061190612355565b60405180910390fd5b8073ffffffffffffffffffffffffffffffffffffffff166106396110ba565b73ffffffffffffffffffffffffffffffffffffffff1614806106685750610667816106626110ba565b610f2a565b5b6106a7576040517f08c379a000000000000000000000000000000000000000000000000000000000815260040161069e906123e7565b60405180910390fd5b6106b183836110c2565b505050565b6106c76106c16110ba565b8261117b565b610706576040517f08c379a00000000000000000000000000000000000000000000000000000000081526004016106fd90612479565b60405180910390fd5b610711838383611259565b505050565b61073183838360405180602001604052806000815250610dbc565b505050565b610740338261117b565b61074957600080fd5b610752816114b5565b50565b600860009054906101000a900473ffffffffffffffffffffffffffffffffffffffff1673ffffffffffffffffffffffffffffffffffffffff163373ffffffffffffffffffffffffffffffffffffffff16146107e5576040517f08c379a00000000000000000000000000000000000000000000000000000000081526004016107dc906124e5565b60405180910390fd5b6107ef60066115c6565b60006107fb60066115dc565b9050600760003373ffffffffffffffffffffffffffffffffffffffff1673ffffffffffffffffffffffffffffffffffffffff16815260200190815260200160002081908060018154018082558091505060019003906000526020600020016000909190919091505561086d84826115ea565b600061087882610e1e565b9050600042905061088885610736565b61089184610736565b7fa31f79813114a256d7b25634d9e6bfb8efe7e057562207531f80839b7a1666618383836040516108c493929190612505565b60405180910390a1505050505050565b6000806002600084815260200190815260200160002060009054906101000a900473ffffffffffffffffffffffffffffffffffffffff169050600073ffffffffffffffffffffffffffffffffffffffff168173ffffffffffffffffffffffffffffffffffffffff16141561097d576040517f08c379a0000000000000000000000000000000000000000000000000000000008152600401610974906125b5565b60405180910390fd5b80915050919050565b600860009054906101000a900473ffffffffffffffffffffffffffffffffffffffff1673ffffffffffffffffffffffffffffffffffffffff163373ffffffffffffffffffffffffffffffffffffffff1614610a16576040517f08c379a0000000000000000000000000000000000000000000000000000000008152600401610a0d906124e5565b60405180910390fd5b610a2060066115c6565b6000610a2c60066115dc565b9050600760003373ffffffffffffffffffffffffffffffffffffffff1673ffffffffffffffffffffffffffffffffffffffff168152602001908152602001600020819080600181540180825580915050600190039060005260206000200160009091909190915055610a9e82826115ea565b6000610aa982610e1e565b905060004290507fa31f79813114a256d7b25634d9e6bfb8efe7e057562207531f80839b7a166661838383604051610ae393929190612505565b60405180910390a150505050565b60008073ffffffffffffffffffffffffffffffffffffffff168273ffffffffffffffffffffffffffffffffffffffff161415610b62576040517f08c379a0000000000000000000000000000000000000000000000000000000008152600401610b5990612647565b60405180910390fd5b600360008373ffffffffffffffffffffffffffffffffffffffff1673ffffffffffffffffffffffffffffffffffffffff168152602001908152602001600020549050919050565b606060018054610bb89061221f565b80601f0160208091040260200160405190810160405280929190818152602001828054610be49061221f565b8015610c315780601f10610c0657610100808354040283529160200191610c31565b820191906000526020600020905b815481529060010190602001808311610c1457829003601f168201915b5050505050905090565b610c436110ba565b73ffffffffffffffffffffffffffffffffffffffff168273ffffffffffffffffffffffffffffffffffffffff161415610cb1576040517f08c379a0000000000000000000000000000000000000000000000000000000008152600401610ca8906126b3565b60405180910390fd5b8060056000610cbe6110ba565b73ffffffffffffffffffffffffffffffffffffffff1673ffffffffffffffffffffffffffffffffffffffff16815260200190815260200160002060008473ffffffffffffffffffffffffffffffffffffffff1673ffffffffffffffffffffffffffffffffffffffff16815260200190815260200160002060006101000a81548160ff0219169083151502179055508173ffffffffffffffffffffffffffffffffffffffff16610d6b6110ba565b73ffffffffffffffffffffffffffffffffffffffff167f17307eab39ab6107e8899845ad3d59bd9653f200f220920489ca2b5937696c3183604051610db09190611c8e565b60405180910390a35050565b610dcd610dc76110ba565b8361117b565b610e0c576040517f08c379a0000000000000000000000000000000000000000000000000000000008152600401610e0390612479565b60405180910390fd5b610e1884848484611608565b50505050565b6060610e298261104e565b610e68576040517f08c379a0000000000000000000000000000000000000000000000000000000008152600401610e5f90612745565b60405180910390fd5b6000610e72611664565b90506000815111610e925760405180602001604052806000815250610ebd565b80610e9c846116a1565b604051602001610ead9291906127a1565b6040516020818303038152906040525b915050919050565b6000600760003373ffffffffffffffffffffffffffffffffffffffff1673ffffffffffffffffffffffffffffffffffffffff1681526020019081526020016000208281548110610f1857610f176127c5565b5b90600052602060002001549050919050565b6000600560008473ffffffffffffffffffffffffffffffffffffffff1673ffffffffffffffffffffffffffffffffffffffff16815260200190815260200160002060008373ffffffffffffffffffffffffffffffffffffffff1673ffffffffffffffffffffffffffffffffffffffff16815260200190815260200160002060009054906101000a900460ff16905092915050565b600860009054906101000a900473ffffffffffffffffffffffffffffffffffffffff1681565b60007f01ffc9a7000000000000000000000000000000000000000000000000000000007bffffffffffffffffffffffffffffffffffffffffffffffffffffffff1916827bffffffffffffffffffffffffffffffffffffffffffffffffffffffff1916149050919050565b60008073ffffffffffffffffffffffffffffffffffffffff166002600084815260200190815260200160002060009054906101000a900473ffffffffffffffffffffffffffffffffffffffff1673ffffffffffffffffffffffffffffffffffffffff1614159050919050565b600033905090565b816004600083815260200190815260200160002060006101000a81548173ffffffffffffffffffffffffffffffffffffffff021916908373ffffffffffffffffffffffffffffffffffffffff160217905550808273ffffffffffffffffffffffffffffffffffffffff16611135836108d4565b73ffffffffffffffffffffffffffffffffffffffff167f8c5be1e5ebec7d5bd14f71427d1e84f3dd0314c0f7b2291e5b200ac8c7c3b92560405160405180910390a45050565b60006111868261104e565b6111c5576040517f08c379a00000000000000000000000000000000000000000000000000000000081526004016111bc90612866565b60405180910390fd5b60006111d0836108d4565b90508073ffffffffffffffffffffffffffffffffffffffff168473ffffffffffffffffffffffffffffffffffffffff16148061123f57508373ffffffffffffffffffffffffffffffffffffffff1661122784610519565b73ffffffffffffffffffffffffffffffffffffffff16145b80611250575061124f8185610f2a565b5b91505092915050565b8273ffffffffffffffffffffffffffffffffffffffff16611279826108d4565b73ffffffffffffffffffffffffffffffffffffffff16146112cf576040517f08c379a00000000000000000000000000000000000000000000000000000000081526004016112c6906128f8565b60405180910390fd5b600073ffffffffffffffffffffffffffffffffffffffff168273ffffffffffffffffffffffffffffffffffffffff16141561133f576040517f08c379a00000000000000000000000000000000000000000000000000000000081526004016113369061298a565b60405180910390fd5b61134a838383611802565b6113556000826110c2565b6001600360008573ffffffffffffffffffffffffffffffffffffffff1673ffffffffffffffffffffffffffffffffffffffff16815260200190815260200160002060008282546113a591906129d9565b925050819055506001600360008473ffffffffffffffffffffffffffffffffffffffff1673ffffffffffffffffffffffffffffffffffffffff16815260200190815260200160002060008282546113fc9190612a0d565b92505081905550816002600083815260200190815260200160002060006101000a81548173ffffffffffffffffffffffffffffffffffffffff021916908373ffffffffffffffffffffffffffffffffffffffff160217905550808273ffffffffffffffffffffffffffffffffffffffff168473ffffffffffffffffffffffffffffffffffffffff167fddf252ad1be2c89b69c2b068fc378daa952ba7f163c4a11628f55a4df523b3ef60405160405180910390a4505050565b60006114c0826108d4565b90506114ce81600084611802565b6114d96000836110c2565b6001600360008373ffffffffffffffffffffffffffffffffffffffff1673ffffffffffffffffffffffffffffffffffffffff168152602001908152602001600020600082825461152991906129d9565b925050819055506002600083815260200190815260200160002060006101000a81549073ffffffffffffffffffffffffffffffffffffffff021916905581600073ffffffffffffffffffffffffffffffffffffffff168273ffffffffffffffffffffffffffffffffffffffff167fddf252ad1be2c89b69c2b068fc378daa952ba7f163c4a11628f55a4df523b3ef60405160405180910390a45050565b6001816000016000828254019250508190555050565b600081600001549050919050565b611604828260405180602001604052806000815250611807565b5050565b611613848484611259565b61161f84848484611862565b61165e576040517f08c379a000000000000000000000000000000000000000000000000000000000815260040161165590612ad5565b60405180910390fd5b50505050565b60606040518060400160405280601a81526020017f687474703a2f2f6c6f63616c686f73743a353030302f6e66742f000000000000815250905090565b606060008214156116e9576040518060400160405280600181526020017f300000000000000000000000000000000000000000000000000000000000000081525090506117fd565b600082905060005b6000821461171b57808061170490612af5565b915050600a826117149190612b6d565b91506116f1565b60008167ffffffffffffffff81111561173757611736612002565b5b6040519080825280601f01601f1916602001820160405280156117695781602001600182028036833780820191505090505b5090505b600085146117f65760018261178291906129d9565b9150600a856117919190612b9e565b603061179d9190612a0d565b60f81b8183815181106117b3576117b26127c5565b5b60200101907effffffffffffffffffffffffffffffffffffffffffffffffffffffffffffff1916908160001a905350600a856117ef9190612b6d565b945061176d565b8093505050505b919050565b505050565b61181183836119f9565b61181e6000848484611862565b61185d576040517f08c379a000000000000000000000000000000000000000000000000000000000815260040161185490612ad5565b60405180910390fd5b505050565b60006118838473ffffffffffffffffffffffffffffffffffffffff16611bc7565b156119ec578373ffffffffffffffffffffffffffffffffffffffff1663150b7a026118ac6110ba565b8786866040518563ffffffff1660e01b81526004016118ce9493929190612c24565b602060405180830381600087803b1580156118e857600080fd5b505af192505050801561191957506040513d601f19601f820116820180604052508101906119169190612c85565b60015b61199c573d8060008114611949576040519150601f19603f3d011682016040523d82523d6000602084013e61194e565b606091505b50600081511415611994576040517f08c379a000000000000000000000000000000000000000000000000000000000815260040161198b90612ad5565b60405180910390fd5b805181602001fd5b63150b7a0260e01b7bffffffffffffffffffffffffffffffffffffffffffffffffffffffff1916817bffffffffffffffffffffffffffffffffffffffffffffffffffffffff1916149150506119f1565b600190505b949350505050565b600073ffffffffffffffffffffffffffffffffffffffff168273ffffffffffffffffffffffffffffffffffffffff161415611a69576040517f08c379a0000000000000000000000000000000000000000000000000000000008152600401611a6090612cfe565b60405180910390fd5b611a728161104e565b15611ab2576040517f08c379a0000000000000000000000000000000000000000000000000000000008152600401611aa990612d6a565b60405180910390fd5b611abe60008383611802565b6001600360008473ffffffffffffffffffffffffffffffffffffffff1673ffffffffffffffffffffffffffffffffffffffff1681526020019081526020016000206000828254611b0e9190612a0d565b92505081905550816002600083815260200190815260200160002060006101000a81548173ffffffffffffffffffffffffffffffffffffffff021916908373ffffffffffffffffffffffffffffffffffffffff160217905550808273ffffffffffffffffffffffffffffffffffffffff16600073ffffffffffffffffffffffffffffffffffffffff167fddf252ad1be2c89b69c2b068fc378daa952ba7f163c4a11628f55a4df523b3ef60405160405180910390a45050565b600080823b905060008111915050919050565b6000604051905090565b600080fd5b600080fd5b60007fffffffff0000000000000000000000000000000000000000000000000000000082169050919050565b611c2381611bee565b8114611c2e57600080fd5b50565b600081359050611c4081611c1a565b92915050565b600060208284031215611c5c57611c5b611be4565b5b6000611c6a84828501611c31565b91505092915050565b60008115159050919050565b611c8881611c73565b82525050565b6000602082019050611ca36000830184611c7f565b92915050565b600081519050919050565b600082825260208201905092915050565b60005b83811015611ce3578082015181840152602081019050611cc8565b83811115611cf2576000848401525b50505050565b6000601f19601f8301169050919050565b6000611d1482611ca9565b611d1e8185611cb4565b9350611d2e818560208601611cc5565b611d3781611cf8565b840191505092915050565b60006020820190508181036000830152611d5c8184611d09565b905092915050565b6000819050919050565b611d7781611d64565b8114611d8257600080fd5b50565b600081359050611d9481611d6e565b92915050565b600060208284031215611db057611daf611be4565b5b6000611dbe84828501611d85565b91505092915050565b600073ffffffffffffffffffffffffffffffffffffffff82169050919050565b6000611df282611dc7565b9050919050565b611e0281611de7565b82525050565b6000602082019050611e1d6000830184611df9565b92915050565b611e2c81611de7565b8114611e3757600080fd5b50565b600081359050611e4981611e23565b92915050565b60008060408385031215611e6657611e65611be4565b5b6000611e7485828601611e3a565b9250506020611e8585828601611d85565b9150509250929050565b600080600060608486031215611ea857611ea7611be4565b5b6000611eb686828701611e3a565b9350506020611ec786828701611e3a565b9250506040611ed886828701611d85565b9150509250925092565b600080600060608486031215611efb57611efa611be4565b5b6000611f0986828701611e3a565b9350506020611f1a86828701611d85565b9250506040611f2b86828701611d85565b9150509250925092565b600060208284031215611f4b57611f4a611be4565b5b6000611f5984828501611e3a565b91505092915050565b611f6b81611d64565b82525050565b6000602082019050611f866000830184611f62565b92915050565b611f9581611c73565b8114611fa057600080fd5b50565b600081359050611fb281611f8c565b92915050565b60008060408385031215611fcf57611fce611be4565b5b6000611fdd85828601611e3a565b9250506020611fee85828601611fa3565b9150509250929050565b600080fd5b600080fd5b7f4e487b7100000000000000000000000000000000000000000000000000000000600052604160045260246000fd5b61203a82611cf8565b810181811067ffffffffffffffff8211171561205957612058612002565b5b80604052505050565b600061206c611bda565b90506120788282612031565b919050565b600067ffffffffffffffff82111561209857612097612002565b5b6120a182611cf8565b9050602081019050919050565b82818337600083830152505050565b60006120d06120cb8461207d565b612062565b9050828152602081018484840111156120ec576120eb611ffd565b5b6120f78482856120ae565b509392505050565b600082601f83011261211457612113611ff8565b5b81356121248482602086016120bd565b91505092915050565b6000806000806080858703121561214757612146611be4565b5b600061215587828801611e3a565b945050602061216687828801611e3a565b935050604061217787828801611d85565b925050606085013567ffffffffffffffff81111561219857612197611be9565b5b6121a4878288016120ff565b91505092959194509250565b600080604083850312156121c7576121c6611be4565b5b60006121d585828601611e3a565b92505060206121e685828601611e3a565b9150509250929050565b7f4e487b7100000000000000000000000000000000000000000000000000000000600052602260045260246000fd5b6000600282049050600182168061223757607f821691505b6020821081141561224b5761224a6121f0565b5b50919050565b7f4552433732313a20617070726f76656420717565727920666f72206e6f6e657860008201527f697374656e7420746f6b656e0000000000000000000000000000000000000000602082015250565b60006122ad602c83611cb4565b91506122b882612251565b604082019050919050565b600060208201905081810360008301526122dc816122a0565b9050919050565b7f4552433732313a20617070726f76616c20746f2063757272656e74206f776e6560008201527f7200000000000000000000000000000000000000000000000000000000000000602082015250565b600061233f602183611cb4565b915061234a826122e3565b604082019050919050565b6000602082019050818103600083015261236e81612332565b9050919050565b7f4552433732313a20617070726f76652063616c6c6572206973206e6f74206f7760008201527f6e6572206e6f7220617070726f76656420666f7220616c6c0000000000000000602082015250565b60006123d1603883611cb4565b91506123dc82612375565b604082019050919050565b60006020820190508181036000830152612400816123c4565b9050919050565b7f4552433732313a207472616e736665722063616c6c6572206973206e6f74206f60008201527f776e6572206e6f7220617070726f766564000000000000000000000000000000602082015250565b6000612463603183611cb4565b915061246e82612407565b604082019050919050565b6000602082019050818103600083015261249281612456565b9050919050565b7f4f6e6c79207468652061646d696e2063616e20646f2074686973000000000000600082015250565b60006124cf601a83611cb4565b91506124da82612499565b602082019050919050565b600060208201905081810360008301526124fe816124c2565b9050919050565b600060608201905061251a6000830186611f62565b818103602083015261252c8185611d09565b905061253b6040830184611f62565b949350505050565b7f4552433732313a206f776e657220717565727920666f72206e6f6e657869737460008201527f656e7420746f6b656e0000000000000000000000000000000000000000000000602082015250565b600061259f602983611cb4565b91506125aa82612543565b604082019050919050565b600060208201905081810360008301526125ce81612592565b9050919050565b7f4552433732313a2062616c616e636520717565727920666f7220746865207a6560008201527f726f206164647265737300000000000000000000000000000000000000000000602082015250565b6000612631602a83611cb4565b915061263c826125d5565b604082019050919050565b6000602082019050818103600083015261266081612624565b9050919050565b7f4552433732313a20617070726f766520746f2063616c6c657200000000000000600082015250565b600061269d601983611cb4565b91506126a882612667565b602082019050919050565b600060208201905081810360008301526126cc81612690565b9050919050565b7f4552433732314d657461646174613a2055524920717565727920666f72206e6f60008201527f6e6578697374656e7420746f6b656e0000000000000000000000000000000000602082015250565b600061272f602f83611cb4565b915061273a826126d3565b604082019050919050565b6000602082019050818103600083015261275e81612722565b9050919050565b600081905092915050565b600061277b82611ca9565b6127858185612765565b9350612795818560208601611cc5565b80840191505092915050565b60006127ad8285612770565b91506127b98284612770565b91508190509392505050565b7f4e487b7100000000000000000000000000000000000000000000000000000000600052603260045260246000fd5b7f4552433732313a206f70657261746f7220717565727920666f72206e6f6e657860008201527f697374656e7420746f6b656e0000000000000000000000000000000000000000602082015250565b6000612850602c83611cb4565b915061285b826127f4565b604082019050919050565b6000602082019050818103600083015261287f81612843565b9050919050565b7f4552433732313a207472616e73666572206f6620746f6b656e2074686174206960008201527f73206e6f74206f776e0000000000000000000000000000000000000000000000602082015250565b60006128e2602983611cb4565b91506128ed82612886565b604082019050919050565b60006020820190508181036000830152612911816128d5565b9050919050565b7f4552433732313a207472616e7366657220746f20746865207a65726f2061646460008201527f7265737300000000000000000000000000000000000000000000000000000000602082015250565b6000612974602483611cb4565b915061297f82612918565b604082019050919050565b600060208201905081810360008301526129a381612967565b9050919050565b7f4e487b7100000000000000000000000000000000000000000000000000000000600052601160045260246000fd5b60006129e482611d64565b91506129ef83611d64565b925082821015612a0257612a016129aa565b5b828203905092915050565b6000612a1882611d64565b9150612a2383611d64565b9250827fffffffffffffffffffffffffffffffffffffffffffffffffffffffffffffffff03821115612a5857612a576129aa565b5b828201905092915050565b7f4552433732313a207472616e7366657220746f206e6f6e20455243373231526560008201527f63656976657220696d706c656d656e7465720000000000000000000000000000602082015250565b6000612abf603283611cb4565b9150612aca82612a63565b604082019050919050565b60006020820190508181036000830152612aee81612ab2565b9050919050565b6000612b0082611d64565b91507fffffffffffffffffffffffffffffffffffffffffffffffffffffffffffffffff821415612b3357612b326129aa565b5b600182019050919050565b7f4e487b7100000000000000000000000000000000000000000000000000000000600052601260045260246000fd5b6000612b7882611d64565b9150612b8383611d64565b925082612b9357612b92612b3e565b5b828204905092915050565b6000612ba982611d64565b9150612bb483611d64565b925082612bc457612bc3612b3e565b5b828206905092915050565b600081519050919050565b600082825260208201905092915050565b6000612bf682612bcf565b612c008185612bda565b9350612c10818560208601611cc5565b612c1981611cf8565b840191505092915050565b6000608082019050612c396000830187611df9565b612c466020830186611df9565b612c536040830185611f62565b8181036060830152612c658184612beb565b905095945050505050565b600081519050612c7f81611c1a565b92915050565b600060208284031215612c9b57612c9a611be4565b5b6000612ca984828501612c70565b91505092915050565b7f4552433732313a206d696e7420746f20746865207a65726f2061646472657373600082015250565b6000612ce8602083611cb4565b9150612cf382612cb2565b602082019050919050565b60006020820190508181036000830152612d1781612cdb565b9050919050565b7f4552433732313a20746f6b656e20616c7265616479206d696e74656400000000600082015250565b6000612d54601c83611cb4565b9150612d5f82612d1e565b602082019050919050565b60006020820190508181036000830152612d8381612d47565b905091905056fea26469706673582212201bf71ac23c466fc011fb501d4c499e624c3333851ac79574ea19727be4f4968c64736f6c63430008090033",
  "immutableReferences": {},
  "source": "// SPDX-License-Identifier: MIT\r\npragma solidity ^0.8.0;\r\n\r\nimport '@openzeppelin/contracts/token/ERC721/ERC721.sol';\r\nimport '@openzeppelin/contracts/utils/Counters.sol';\r\n\r\ncontract StartupHeroCreator is ERC721 {\r\n  using Counters for Counters.Counter;\r\n  Counters.Counter private _tokenIds;\r\n    \r\n  mapping(address => uint256[]) private userOwnedTokens;\r\n  address public admin;\r\n\r\n  constructor() ERC721('Startup Hero', 'SUP') {\r\n    admin = msg.sender;\r\n  }\r\n\r\n  function mint(address to) onlyAdmin() external {\r\n    _tokenIds.increment();\r\n    uint256 newItemId = _tokenIds.current();\r\n    userOwnedTokens[msg.sender].push(newItemId);\r\n    _safeMint(to, newItemId);\r\n\r\n    string memory uri = tokenURI(newItemId);\r\n    uint256 time = block.timestamp;\r\n    \r\n    emit NftMinted(newItemId, uri, time);\r\n  }\r\n\r\n\r\n\r\n  /**\r\n   * Merging 2 NFTs together creates a new one and sends\r\n   * The NFTs used in the process are sent back to the Contract\r\n  */\r\n  function merge(address to, uint256 tid_1, uint256 tid_2) onlyAdmin() external {\r\n    _tokenIds.increment();\r\n    uint256 newItemId = _tokenIds.current();\r\n    userOwnedTokens[msg.sender].push(newItemId);\r\n    _safeMint(to, newItemId);\r\n\r\n    string memory uri = tokenURI(newItemId);\r\n    uint256 time = block.timestamp;\r\n\r\n    // Burn tokens used in merge\r\n    burn(tid_1);\r\n    burn(tid_2);\r\n    \r\n    emit NftMinted(newItemId, uri, time);\r\n  }\r\n\r\n  function burn(uint256 tokenId)\r\n    public\r\n  {\r\n    require(_isApprovedOrOwner(msg.sender, tokenId));\r\n    _burn(tokenId);\r\n  }\r\n\r\n  function _baseURI() internal override pure returns (string memory) {\r\n    return 'http://localhost:5000/nft/';\r\n  }\r\n  \r\n  function getToken(uint256 index) public view returns (uint256) {\r\n      return userOwnedTokens[msg.sender][index];\r\n  }\r\n\r\n  modifier onlyAdmin {\r\n      require(msg.sender == admin, \"Only the admin can do this\");\r\n      _;\r\n  }\r\n\r\n  event NftMinted(uint256 _tid, string _uri, uint256 _time);\r\n}",
  "sourcePath": "D:/Projects/ETB/startupHero/contracts/StartupHeroCreator.sol",
  "compiler": {
    "name": "solc",
    "version": "0.8.9+commit.e5eed63a.Emscripten.clang"
  },
  "schemaVersion": "3.3.2",
  "updatedAt": "2021-11-02T16:10:22.173Z",
  "networkType": "ethereum",
  "devdoc": {
    "kind": "dev",
    "methods": {
      "approve(address,uint256)": {
        "details": "See {IERC721-approve}."
      },
      "balanceOf(address)": {
        "details": "See {IERC721-balanceOf}."
      },
      "getApproved(uint256)": {
        "details": "See {IERC721-getApproved}."
      },
      "isApprovedForAll(address,address)": {
        "details": "See {IERC721-isApprovedForAll}."
      },
      "name()": {
        "details": "See {IERC721Metadata-name}."
      },
      "ownerOf(uint256)": {
        "details": "See {IERC721-ownerOf}."
      },
      "safeTransferFrom(address,address,uint256)": {
        "details": "See {IERC721-safeTransferFrom}."
      },
      "safeTransferFrom(address,address,uint256,bytes)": {
        "details": "See {IERC721-safeTransferFrom}."
      },
      "setApprovalForAll(address,bool)": {
        "details": "See {IERC721-setApprovalForAll}."
      },
      "supportsInterface(bytes4)": {
        "details": "See {IERC165-supportsInterface}."
      },
      "symbol()": {
        "details": "See {IERC721Metadata-symbol}."
      },
      "tokenURI(uint256)": {
        "details": "See {IERC721Metadata-tokenURI}."
      },
      "transferFrom(address,address,uint256)": {
        "details": "See {IERC721-transferFrom}."
      }
    },
    "version": 1
  },
  "userdoc": {
    "kind": "user",
    "methods": {
      "merge(address,uint256,uint256)": {
        "notice": "Merging 2 NFTs together creates a new one and sends The NFTs used in the process are sent back to the Contract"
      }
    },
    "version": 1
  }
}