{
  "contractName": "StartupHeroCreator",
  "abi": [
    {
      "inputs": [],
      "stateMutability": "nonpayable",
      "type": "constructor"
    },
    {
      "anonymous": false,
      "inputs": [
        {
          "indexed": true,
          "internalType": "address",
          "name": "owner",
          "type": "address"
        },
        {
          "indexed": true,
          "internalType": "address",
          "name": "approved",
          "type": "address"
        },
        {
          "indexed": true,
          "internalType": "uint256",
          "name": "tokenId",
          "type": "uint256"
        }
      ],
      "name": "Approval",
      "type": "event"
    },
    {
      "anonymous": false,
      "inputs": [
        {
          "indexed": true,
          "internalType": "address",
          "name": "owner",
          "type": "address"
        },
        {
          "indexed": true,
          "internalType": "address",
          "name": "operator",
          "type": "address"
        },
        {
          "indexed": false,
          "internalType": "bool",
          "name": "approved",
          "type": "bool"
        }
      ],
      "name": "ApprovalForAll",
      "type": "event"
    },
    {
      "anonymous": false,
      "inputs": [
        {
          "indexed": false,
          "internalType": "uint256",
          "name": "_tid",
          "type": "uint256"
        },
        {
          "indexed": false,
          "internalType": "string",
          "name": "_uri",
          "type": "string"
        },
        {
          "indexed": false,
          "internalType": "uint256",
          "name": "_time",
          "type": "uint256"
        }
      ],
      "name": "NftMinted",
      "type": "event"
    },
    {
      "anonymous": false,
      "inputs": [
        {
          "indexed": true,
          "internalType": "address",
          "name": "from",
          "type": "address"
        },
        {
          "indexed": true,
          "internalType": "address",
          "name": "to",
          "type": "address"
        },
        {
          "indexed": true,
          "internalType": "uint256",
          "name": "tokenId",
          "type": "uint256"
        }
      ],
      "name": "Transfer",
      "type": "event"
    },
    {
      "inputs": [],
      "name": "admin",
      "outputs": [
        {
          "internalType": "address",
          "name": "",
          "type": "address"
        }
      ],
      "stateMutability": "view",
      "type": "function",
      "constant": true
    },
    {
      "inputs": [
        {
          "internalType": "address",
          "name": "to",
          "type": "address"
        },
        {
          "internalType": "uint256",
          "name": "tokenId",
          "type": "uint256"
        }
      ],
      "name": "approve",
      "outputs": [],
      "stateMutability": "nonpayable",
      "type": "function"
    },
    {
      "inputs": [
        {
          "internalType": "address",
          "name": "owner",
          "type": "address"
        }
      ],
      "name": "balanceOf",
      "outputs": [
        {
          "internalType": "uint256",
          "name": "",
          "type": "uint256"
        }
      ],
      "stateMutability": "view",
      "type": "function",
      "constant": true
    },
    {
      "inputs": [
        {
          "internalType": "uint256",
          "name": "tokenId",
          "type": "uint256"
        }
      ],
      "name": "getApproved",
      "outputs": [
        {
          "internalType": "address",
          "name": "",
          "type": "address"
        }
      ],
      "stateMutability": "view",
      "type": "function",
      "constant": true
    },
    {
      "inputs": [
        {
          "internalType": "address",
          "name": "owner",
          "type": "address"
        },
        {
          "internalType": "address",
          "name": "operator",
          "type": "address"
        }
      ],
      "name": "isApprovedForAll",
      "outputs": [
        {
          "internalType": "bool",
          "name": "",
          "type": "bool"
        }
      ],
      "stateMutability": "view",
      "type": "function",
      "constant": true
    },
    {
      "inputs": [],
      "name": "name",
      "outputs": [
        {
          "internalType": "string",
          "name": "",
          "type": "string"
        }
      ],
      "stateMutability": "view",
      "type": "function",
      "constant": true
    },
    {
      "inputs": [
        {
          "internalType": "uint256",
          "name": "tokenId",
          "type": "uint256"
        }
      ],
      "name": "ownerOf",
      "outputs": [
        {
          "internalType": "address",
          "name": "",
          "type": "address"
        }
      ],
      "stateMutability": "view",
      "type": "function",
      "constant": true
    },
    {
      "inputs": [
        {
          "internalType": "address",
          "name": "from",
          "type": "address"
        },
        {
          "internalType": "address",
          "name": "to",
          "type": "address"
        },
        {
          "internalType": "uint256",
          "name": "tokenId",
          "type": "uint256"
        }
      ],
      "name": "safeTransferFrom",
      "outputs": [],
      "stateMutability": "nonpayable",
      "type": "function"
    },
    {
      "inputs": [
        {
          "internalType": "address",
          "name": "from",
          "type": "address"
        },
        {
          "internalType": "address",
          "name": "to",
          "type": "address"
        },
        {
          "internalType": "uint256",
          "name": "tokenId",
          "type": "uint256"
        },
        {
          "internalType": "bytes",
          "name": "_data",
          "type": "bytes"
        }
      ],
      "name": "safeTransferFrom",
      "outputs": [],
      "stateMutability": "nonpayable",
      "type": "function"
    },
    {
      "inputs": [
        {
          "internalType": "address",
          "name": "operator",
          "type": "address"
        },
        {
          "internalType": "bool",
          "name": "approved",
          "type": "bool"
        }
      ],
      "name": "setApprovalForAll",
      "outputs": [],
      "stateMutability": "nonpayable",
      "type": "function"
    },
    {
      "inputs": [
        {
          "internalType": "bytes4",
          "name": "interfaceId",
          "type": "bytes4"
        }
      ],
      "name": "supportsInterface",
      "outputs": [
        {
          "internalType": "bool",
          "name": "",
          "type": "bool"
        }
      ],
      "stateMutability": "view",
      "type": "function",
      "constant": true
    },
    {
      "inputs": [],
      "name": "symbol",
      "outputs": [
        {
          "internalType": "string",
          "name": "",
          "type": "string"
        }
      ],
      "stateMutability": "view",
      "type": "function",
      "constant": true
    },
    {
      "inputs": [
        {
          "internalType": "uint256",
          "name": "tokenId",
          "type": "uint256"
        }
      ],
      "name": "tokenURI",
      "outputs": [
        {
          "internalType": "string",
          "name": "",
          "type": "string"
        }
      ],
      "stateMutability": "view",
      "type": "function",
      "constant": true
    },
    {
      "inputs": [
        {
          "internalType": "address",
          "name": "from",
          "type": "address"
        },
        {
          "internalType": "address",
          "name": "to",
          "type": "address"
        },
        {
          "internalType": "uint256",
          "name": "tokenId",
          "type": "uint256"
        }
      ],
      "name": "transferFrom",
      "outputs": [],
      "stateMutability": "nonpayable",
      "type": "function"
    },
    {
      "inputs": [
        {
          "internalType": "address",
          "name": "to",
          "type": "address"
        }
      ],
      "name": "mint",
      "outputs": [],
      "stateMutability": "nonpayable",
      "type": "function"
    },
    {
      "inputs": [
        {
          "internalType": "uint256",
          "name": "index",
          "type": "uint256"
        }
      ],
      "name": "getToken",
      "outputs": [
        {
          "internalType": "uint256",
          "name": "",
          "type": "uint256"
        }
      ],
      "stateMutability": "view",
      "type": "function",
      "constant": true
    }
  ],
  "bytecode": "0x60806040523480156200001157600080fd5b506040518060400160405280600c81526020017f53746172747570204865726f00000000000000000000000000000000000000008152506040518060400160405280600381526020017f5355500000000000000000000000000000000000000000000000000000000000815250816000908051906020019062000096929190620000f9565b508060019080519060200190620000af929190620000f9565b50505033600860006101000a81548173ffffffffffffffffffffffffffffffffffffffff021916908373ffffffffffffffffffffffffffffffffffffffff1602179055506200020e565b8280546200010790620001d8565b90600052602060002090601f0160209004810192826200012b576000855562000177565b82601f106200014657805160ff191683800117855562000177565b8280016001018555821562000177579182015b828111156200017657825182559160200191906001019062000159565b5b5090506200018691906200018a565b5090565b5b80821115620001a55760008160009055506001016200018b565b5090565b7f4e487b7100000000000000000000000000000000000000000000000000000000600052602260045260246000fd5b60006002820490506001821680620001f157607f821691505b60208210811415620002085762000207620001a9565b5b50919050565b612a70806200021e6000396000f3fe608060405234801561001057600080fd5b50600436106101005760003560e01c806370a0823111610097578063c87b56dd11610066578063c87b56dd146102a9578063e4b50cb8146102d9578063e985e9c514610309578063f851a4401461033957610100565b806370a082311461022357806395d89b4114610253578063a22cb46514610271578063b88d4fde1461028d57610100565b806323b872dd116100d357806323b872dd1461019f57806342842e0e146101bb5780636352211e146101d75780636a6278421461020757610100565b806301ffc9a71461010557806306fdde0314610135578063081812fc14610153578063095ea7b314610183575b600080fd5b61011f600480360381019061011a9190611949565b610357565b60405161012c9190611991565b60405180910390f35b61013d610439565b60405161014a9190611a45565b60405180910390f35b61016d60048036038101906101689190611a9d565b6104cb565b60405161017a9190611b0b565b60405180910390f35b61019d60048036038101906101989190611b52565b610550565b005b6101b960048036038101906101b49190611b92565b610668565b005b6101d560048036038101906101d09190611b92565b6106c8565b005b6101f160048036038101906101ec9190611a9d565b6106e8565b6040516101fe9190611b0b565b60405180910390f35b610221600480360381019061021c9190611be5565b61079a565b005b61023d60048036038101906102389190611be5565b610905565b60405161024a9190611c21565b60405180910390f35b61025b6109bd565b6040516102689190611a45565b60405180910390f35b61028b60048036038101906102869190611c68565b610a4f565b005b6102a760048036038101906102a29190611ddd565b610bd0565b005b6102c360048036038101906102be9190611a9d565b610c32565b6040516102d09190611a45565b60405180910390f35b6102f360048036038101906102ee9190611a9d565b610cd9565b6040516103009190611c21565b60405180910390f35b610323600480360381019061031e9190611e60565b610d3e565b6040516103309190611991565b60405180910390f35b610341610dd2565b60405161034e9190611b0b565b60405180910390f35b60007f80ac58cd000000000000000000000000000000000000000000000000000000007bffffffffffffffffffffffffffffffffffffffffffffffffffffffff1916827bffffffffffffffffffffffffffffffffffffffffffffffffffffffff1916148061042257507f5b5e139f000000000000000000000000000000000000000000000000000000007bffffffffffffffffffffffffffffffffffffffffffffffffffffffff1916827bffffffffffffffffffffffffffffffffffffffffffffffffffffffff1916145b80610432575061043182610df8565b5b9050919050565b60606000805461044890611ecf565b80601f016020809104026020016040519081016040528092919081815260200182805461047490611ecf565b80156104c15780601f10610496576101008083540402835291602001916104c1565b820191906000526020600020905b8154815290600101906020018083116104a457829003601f168201915b5050505050905090565b60006104d682610e62565b610515576040517f08c379a000000000000000000000000000000000000000000000000000000000815260040161050c90611f73565b60405180910390fd5b6004600083815260200190815260200160002060009054906101000a900473ffffffffffffffffffffffffffffffffffffffff169050919050565b600061055b826106e8565b90508073ffffffffffffffffffffffffffffffffffffffff168373ffffffffffffffffffffffffffffffffffffffff1614156105cc576040517f08c379a00000000000000000000000000000000000000000000000000000000081526004016105c390612005565b60405180910390fd5b8073ffffffffffffffffffffffffffffffffffffffff166105eb610ece565b73ffffffffffffffffffffffffffffffffffffffff16148061061a575061061981610614610ece565b610d3e565b5b610659576040517f08c379a000000000000000000000000000000000000000000000000000000000815260040161065090612097565b60405180910390fd5b6106638383610ed6565b505050565b610679610673610ece565b82610f8f565b6106b8576040517f08c379a00000000000000000000000000000000000000000000000000000000081526004016106af90612129565b60405180910390fd5b6106c383838361106d565b505050565b6106e383838360405180602001604052806000815250610bd0565b505050565b6000806002600084815260200190815260200160002060009054906101000a900473ffffffffffffffffffffffffffffffffffffffff169050600073ffffffffffffffffffffffffffffffffffffffff168173ffffffffffffffffffffffffffffffffffffffff161415610791576040517f08c379a0000000000000000000000000000000000000000000000000000000008152600401610788906121bb565b60405180910390fd5b80915050919050565b600860009054906101000a900473ffffffffffffffffffffffffffffffffffffffff1673ffffffffffffffffffffffffffffffffffffffff163373ffffffffffffffffffffffffffffffffffffffff161461082a576040517f08c379a000000000000000000000000000000000000000000000000000000000815260040161082190612227565b60405180910390fd5b61083460066112c9565b600061084060066112df565b9050600760003373ffffffffffffffffffffffffffffffffffffffff1673ffffffffffffffffffffffffffffffffffffffff1681526020019081526020016000208190806001815401808255809150506001900390600052602060002001600090919091909150556108b282826112ed565b60006108bd82610c32565b905060004290507fa31f79813114a256d7b25634d9e6bfb8efe7e057562207531f80839b7a1666618383836040516108f793929190612247565b60405180910390a150505050565b60008073ffffffffffffffffffffffffffffffffffffffff168273ffffffffffffffffffffffffffffffffffffffff161415610976576040517f08c379a000000000000000000000000000000000000000000000000000000000815260040161096d906122f7565b60405180910390fd5b600360008373ffffffffffffffffffffffffffffffffffffffff1673ffffffffffffffffffffffffffffffffffffffff168152602001908152602001600020549050919050565b6060600180546109cc90611ecf565b80601f01602080910402602001604051908101604052809291908181526020018280546109f890611ecf565b8015610a455780601f10610a1a57610100808354040283529160200191610a45565b820191906000526020600020905b815481529060010190602001808311610a2857829003601f168201915b5050505050905090565b610a57610ece565b73ffffffffffffffffffffffffffffffffffffffff168273ffffffffffffffffffffffffffffffffffffffff161415610ac5576040517f08c379a0000000000000000000000000000000000000000000000000000000008152600401610abc90612363565b60405180910390fd5b8060056000610ad2610ece565b73ffffffffffffffffffffffffffffffffffffffff1673ffffffffffffffffffffffffffffffffffffffff16815260200190815260200160002060008473ffffffffffffffffffffffffffffffffffffffff1673ffffffffffffffffffffffffffffffffffffffff16815260200190815260200160002060006101000a81548160ff0219169083151502179055508173ffffffffffffffffffffffffffffffffffffffff16610b7f610ece565b73ffffffffffffffffffffffffffffffffffffffff167f17307eab39ab6107e8899845ad3d59bd9653f200f220920489ca2b5937696c3183604051610bc49190611991565b60405180910390a35050565b610be1610bdb610ece565b83610f8f565b610c20576040517f08c379a0000000000000000000000000000000000000000000000000000000008152600401610c1790612129565b60405180910390fd5b610c2c8484848461130b565b50505050565b6060610c3d82610e62565b610c7c576040517f08c379a0000000000000000000000000000000000000000000000000000000008152600401610c73906123f5565b60405180910390fd5b6000610c86611367565b90506000815111610ca65760405180602001604052806000815250610cd1565b80610cb0846113a4565b604051602001610cc1929190612451565b6040516020818303038152906040525b915050919050565b6000600760003373ffffffffffffffffffffffffffffffffffffffff1673ffffffffffffffffffffffffffffffffffffffff1681526020019081526020016000208281548110610d2c57610d2b612475565b5b90600052602060002001549050919050565b6000600560008473ffffffffffffffffffffffffffffffffffffffff1673ffffffffffffffffffffffffffffffffffffffff16815260200190815260200160002060008373ffffffffffffffffffffffffffffffffffffffff1673ffffffffffffffffffffffffffffffffffffffff16815260200190815260200160002060009054906101000a900460ff16905092915050565b600860009054906101000a900473ffffffffffffffffffffffffffffffffffffffff1681565b60007f01ffc9a7000000000000000000000000000000000000000000000000000000007bffffffffffffffffffffffffffffffffffffffffffffffffffffffff1916827bffffffffffffffffffffffffffffffffffffffffffffffffffffffff1916149050919050565b60008073ffffffffffffffffffffffffffffffffffffffff166002600084815260200190815260200160002060009054906101000a900473ffffffffffffffffffffffffffffffffffffffff1673ffffffffffffffffffffffffffffffffffffffff1614159050919050565b600033905090565b816004600083815260200190815260200160002060006101000a81548173ffffffffffffffffffffffffffffffffffffffff021916908373ffffffffffffffffffffffffffffffffffffffff160217905550808273ffffffffffffffffffffffffffffffffffffffff16610f49836106e8565b73ffffffffffffffffffffffffffffffffffffffff167f8c5be1e5ebec7d5bd14f71427d1e84f3dd0314c0f7b2291e5b200ac8c7c3b92560405160405180910390a45050565b6000610f9a82610e62565b610fd9576040517f08c379a0000000000000000000000000000000000000000000000000000000008152600401610fd090612516565b60405180910390fd5b6000610fe4836106e8565b90508073ffffffffffffffffffffffffffffffffffffffff168473ffffffffffffffffffffffffffffffffffffffff16148061105357508373ffffffffffffffffffffffffffffffffffffffff1661103b846104cb565b73ffffffffffffffffffffffffffffffffffffffff16145b8061106457506110638185610d3e565b5b91505092915050565b8273ffffffffffffffffffffffffffffffffffffffff1661108d826106e8565b73ffffffffffffffffffffffffffffffffffffffff16146110e3576040517f08c379a00000000000000000000000000000000000000000000000000000000081526004016110da906125a8565b60405180910390fd5b600073ffffffffffffffffffffffffffffffffffffffff168273ffffffffffffffffffffffffffffffffffffffff161415611153576040517f08c379a000000000000000000000000000000000000000000000000000000000815260040161114a9061263a565b60405180910390fd5b61115e838383611505565b611169600082610ed6565b6001600360008573ffffffffffffffffffffffffffffffffffffffff1673ffffffffffffffffffffffffffffffffffffffff16815260200190815260200160002060008282546111b99190612689565b925050819055506001600360008473ffffffffffffffffffffffffffffffffffffffff1673ffffffffffffffffffffffffffffffffffffffff168152602001908152602001600020600082825461121091906126bd565b92505081905550816002600083815260200190815260200160002060006101000a81548173ffffffffffffffffffffffffffffffffffffffff021916908373ffffffffffffffffffffffffffffffffffffffff160217905550808273ffffffffffffffffffffffffffffffffffffffff168473ffffffffffffffffffffffffffffffffffffffff167fddf252ad1be2c89b69c2b068fc378daa952ba7f163c4a11628f55a4df523b3ef60405160405180910390a4505050565b6001816000016000828254019250508190555050565b600081600001549050919050565b61130782826040518060200160405280600081525061150a565b5050565b61131684848461106d565b61132284848484611565565b611361576040517f08c379a000000000000000000000000000000000000000000000000000000000815260040161135890612785565b60405180910390fd5b50505050565b60606040518060400160405280601a81526020017f687474703a2f2f6c6f63616c686f73743a353030302f6e66742f000000000000815250905090565b606060008214156113ec576040518060400160405280600181526020017f30000000000000000000000000000000000000000000000000000000000000008152509050611500565b600082905060005b6000821461141e578080611407906127a5565b915050600a82611417919061281d565b91506113f4565b60008167ffffffffffffffff81111561143a57611439611cb2565b5b6040519080825280601f01601f19166020018201604052801561146c5781602001600182028036833780820191505090505b5090505b600085146114f9576001826114859190612689565b9150600a85611494919061284e565b60306114a091906126bd565b60f81b8183815181106114b6576114b5612475565b5b60200101907effffffffffffffffffffffffffffffffffffffffffffffffffffffffffffff1916908160001a905350600a856114f2919061281d565b9450611470565b8093505050505b919050565b505050565b61151483836116fc565b6115216000848484611565565b611560576040517f08c379a000000000000000000000000000000000000000000000000000000000815260040161155790612785565b60405180910390fd5b505050565b60006115868473ffffffffffffffffffffffffffffffffffffffff166118ca565b156116ef578373ffffffffffffffffffffffffffffffffffffffff1663150b7a026115af610ece565b8786866040518563ffffffff1660e01b81526004016115d194939291906128d4565b602060405180830381600087803b1580156115eb57600080fd5b505af192505050801561161c57506040513d601f19601f820116820180604052508101906116199190612935565b60015b61169f573d806000811461164c576040519150601f19603f3d011682016040523d82523d6000602084013e611651565b606091505b50600081511415611697576040517f08c379a000000000000000000000000000000000000000000000000000000000815260040161168e90612785565b60405180910390fd5b805181602001fd5b63150b7a0260e01b7bffffffffffffffffffffffffffffffffffffffffffffffffffffffff1916817bffffffffffffffffffffffffffffffffffffffffffffffffffffffff1916149150506116f4565b600190505b949350505050565b600073ffffffffffffffffffffffffffffffffffffffff168273ffffffffffffffffffffffffffffffffffffffff16141561176c576040517f08c379a0000000000000000000000000000000000000000000000000000000008152600401611763906129ae565b60405180910390fd5b61177581610e62565b156117b5576040517f08c379a00000000000000000000000000000000000000000000000000000000081526004016117ac90612a1a565b60405180910390fd5b6117c160008383611505565b6001600360008473ffffffffffffffffffffffffffffffffffffffff1673ffffffffffffffffffffffffffffffffffffffff168152602001908152602001600020600082825461181191906126bd565b92505081905550816002600083815260200190815260200160002060006101000a81548173ffffffffffffffffffffffffffffffffffffffff021916908373ffffffffffffffffffffffffffffffffffffffff160217905550808273ffffffffffffffffffffffffffffffffffffffff16600073ffffffffffffffffffffffffffffffffffffffff167fddf252ad1be2c89b69c2b068fc378daa952ba7f163c4a11628f55a4df523b3ef60405160405180910390a45050565b600080823b905060008111915050919050565b6000604051905090565b600080fd5b600080fd5b60007fffffffff0000000000000000000000000000000000000000000000000000000082169050919050565b611926816118f1565b811461193157600080fd5b50565b6000813590506119438161191d565b92915050565b60006020828403121561195f5761195e6118e7565b5b600061196d84828501611934565b91505092915050565b60008115159050919050565b61198b81611976565b82525050565b60006020820190506119a66000830184611982565b92915050565b600081519050919050565b600082825260208201905092915050565b60005b838110156119e65780820151818401526020810190506119cb565b838111156119f5576000848401525b50505050565b6000601f19601f8301169050919050565b6000611a17826119ac565b611a2181856119b7565b9350611a318185602086016119c8565b611a3a816119fb565b840191505092915050565b60006020820190508181036000830152611a5f8184611a0c565b905092915050565b6000819050919050565b611a7a81611a67565b8114611a8557600080fd5b50565b600081359050611a9781611a71565b92915050565b600060208284031215611ab357611ab26118e7565b5b6000611ac184828501611a88565b91505092915050565b600073ffffffffffffffffffffffffffffffffffffffff82169050919050565b6000611af582611aca565b9050919050565b611b0581611aea565b82525050565b6000602082019050611b206000830184611afc565b92915050565b611b2f81611aea565b8114611b3a57600080fd5b50565b600081359050611b4c81611b26565b92915050565b60008060408385031215611b6957611b686118e7565b5b6000611b7785828601611b3d565b9250506020611b8885828601611a88565b9150509250929050565b600080600060608486031215611bab57611baa6118e7565b5b6000611bb986828701611b3d565b9350506020611bca86828701611b3d565b9250506040611bdb86828701611a88565b9150509250925092565b600060208284031215611bfb57611bfa6118e7565b5b6000611c0984828501611b3d565b91505092915050565b611c1b81611a67565b82525050565b6000602082019050611c366000830184611c12565b92915050565b611c4581611976565b8114611c5057600080fd5b50565b600081359050611c6281611c3c565b92915050565b60008060408385031215611c7f57611c7e6118e7565b5b6000611c8d85828601611b3d565b9250506020611c9e85828601611c53565b9150509250929050565b600080fd5b600080fd5b7f4e487b7100000000000000000000000000000000000000000000000000000000600052604160045260246000fd5b611cea826119fb565b810181811067ffffffffffffffff82111715611d0957611d08611cb2565b5b80604052505050565b6000611d1c6118dd565b9050611d288282611ce1565b919050565b600067ffffffffffffffff821115611d4857611d47611cb2565b5b611d51826119fb565b9050602081019050919050565b82818337600083830152505050565b6000611d80611d7b84611d2d565b611d12565b905082815260208101848484011115611d9c57611d9b611cad565b5b611da7848285611d5e565b509392505050565b600082601f830112611dc457611dc3611ca8565b5b8135611dd4848260208601611d6d565b91505092915050565b60008060008060808587031215611df757611df66118e7565b5b6000611e0587828801611b3d565b9450506020611e1687828801611b3d565b9350506040611e2787828801611a88565b925050606085013567ffffffffffffffff811115611e4857611e476118ec565b5b611e5487828801611daf565b91505092959194509250565b60008060408385031215611e7757611e766118e7565b5b6000611e8585828601611b3d565b9250506020611e9685828601611b3d565b9150509250929050565b7f4e487b7100000000000000000000000000000000000000000000000000000000600052602260045260246000fd5b60006002820490506001821680611ee757607f821691505b60208210811415611efb57611efa611ea0565b5b50919050565b7f4552433732313a20617070726f76656420717565727920666f72206e6f6e657860008201527f697374656e7420746f6b656e0000000000000000000000000000000000000000602082015250565b6000611f5d602c836119b7565b9150611f6882611f01565b604082019050919050565b60006020820190508181036000830152611f8c81611f50565b9050919050565b7f4552433732313a20617070726f76616c20746f2063757272656e74206f776e6560008201527f7200000000000000000000000000000000000000000000000000000000000000602082015250565b6000611fef6021836119b7565b9150611ffa82611f93565b604082019050919050565b6000602082019050818103600083015261201e81611fe2565b9050919050565b7f4552433732313a20617070726f76652063616c6c6572206973206e6f74206f7760008201527f6e6572206e6f7220617070726f76656420666f7220616c6c0000000000000000602082015250565b60006120816038836119b7565b915061208c82612025565b604082019050919050565b600060208201905081810360008301526120b081612074565b9050919050565b7f4552433732313a207472616e736665722063616c6c6572206973206e6f74206f60008201527f776e6572206e6f7220617070726f766564000000000000000000000000000000602082015250565b60006121136031836119b7565b915061211e826120b7565b604082019050919050565b6000602082019050818103600083015261214281612106565b9050919050565b7f4552433732313a206f776e657220717565727920666f72206e6f6e657869737460008201527f656e7420746f6b656e0000000000000000000000000000000000000000000000602082015250565b60006121a56029836119b7565b91506121b082612149565b604082019050919050565b600060208201905081810360008301526121d481612198565b9050919050565b7f6f6e6c792061646d696e00000000000000000000000000000000000000000000600082015250565b6000612211600a836119b7565b915061221c826121db565b602082019050919050565b6000602082019050818103600083015261224081612204565b9050919050565b600060608201905061225c6000830186611c12565b818103602083015261226e8185611a0c565b905061227d6040830184611c12565b949350505050565b7f4552433732313a2062616c616e636520717565727920666f7220746865207a6560008201527f726f206164647265737300000000000000000000000000000000000000000000602082015250565b60006122e1602a836119b7565b91506122ec82612285565b604082019050919050565b60006020820190508181036000830152612310816122d4565b9050919050565b7f4552433732313a20617070726f766520746f2063616c6c657200000000000000600082015250565b600061234d6019836119b7565b915061235882612317565b602082019050919050565b6000602082019050818103600083015261237c81612340565b9050919050565b7f4552433732314d657461646174613a2055524920717565727920666f72206e6f60008201527f6e6578697374656e7420746f6b656e0000000000000000000000000000000000602082015250565b60006123df602f836119b7565b91506123ea82612383565b604082019050919050565b6000602082019050818103600083015261240e816123d2565b9050919050565b600081905092915050565b600061242b826119ac565b6124358185612415565b93506124458185602086016119c8565b80840191505092915050565b600061245d8285612420565b91506124698284612420565b91508190509392505050565b7f4e487b7100000000000000000000000000000000000000000000000000000000600052603260045260246000fd5b7f4552433732313a206f70657261746f7220717565727920666f72206e6f6e657860008201527f697374656e7420746f6b656e0000000000000000000000000000000000000000602082015250565b6000612500602c836119b7565b915061250b826124a4565b604082019050919050565b6000602082019050818103600083015261252f816124f3565b9050919050565b7f4552433732313a207472616e73666572206f6620746f6b656e2074686174206960008201527f73206e6f74206f776e0000000000000000000000000000000000000000000000602082015250565b60006125926029836119b7565b915061259d82612536565b604082019050919050565b600060208201905081810360008301526125c181612585565b9050919050565b7f4552433732313a207472616e7366657220746f20746865207a65726f2061646460008201527f7265737300000000000000000000000000000000000000000000000000000000602082015250565b60006126246024836119b7565b915061262f826125c8565b604082019050919050565b6000602082019050818103600083015261265381612617565b9050919050565b7f4e487b7100000000000000000000000000000000000000000000000000000000600052601160045260246000fd5b600061269482611a67565b915061269f83611a67565b9250828210156126b2576126b161265a565b5b828203905092915050565b60006126c882611a67565b91506126d383611a67565b9250827fffffffffffffffffffffffffffffffffffffffffffffffffffffffffffffffff038211156127085761270761265a565b5b828201905092915050565b7f4552433732313a207472616e7366657220746f206e6f6e20455243373231526560008201527f63656976657220696d706c656d656e7465720000000000000000000000000000602082015250565b600061276f6032836119b7565b915061277a82612713565b604082019050919050565b6000602082019050818103600083015261279e81612762565b9050919050565b60006127b082611a67565b91507fffffffffffffffffffffffffffffffffffffffffffffffffffffffffffffffff8214156127e3576127e261265a565b5b600182019050919050565b7f4e487b7100000000000000000000000000000000000000000000000000000000600052601260045260246000fd5b600061282882611a67565b915061283383611a67565b925082612843576128426127ee565b5b828204905092915050565b600061285982611a67565b915061286483611a67565b925082612874576128736127ee565b5b828206905092915050565b600081519050919050565b600082825260208201905092915050565b60006128a68261287f565b6128b0818561288a565b93506128c08185602086016119c8565b6128c9816119fb565b840191505092915050565b60006080820190506128e96000830187611afc565b6128f66020830186611afc565b6129036040830185611c12565b8181036060830152612915818461289b565b905095945050505050565b60008151905061292f8161191d565b92915050565b60006020828403121561294b5761294a6118e7565b5b600061295984828501612920565b91505092915050565b7f4552433732313a206d696e7420746f20746865207a65726f2061646472657373600082015250565b60006129986020836119b7565b91506129a382612962565b602082019050919050565b600060208201905081810360008301526129c78161298b565b9050919050565b7f4552433732313a20746f6b656e20616c7265616479206d696e74656400000000600082015250565b6000612a04601c836119b7565b9150612a0f826129ce565b602082019050919050565b60006020820190508181036000830152612a33816129f7565b905091905056fea26469706673582212208838cb524cd6bd96382c1b6dddbf11b1d69741ab62fe6b80176290d59b85910164736f6c63430008090033",
  "immutableReferences": {},
  "source": "// SPDX-License-Identifier: MIT\r\npragma solidity ^0.8.0;\r\n\r\nimport '@openzeppelin/contracts/token/ERC721/ERC721.sol';\r\nimport '@openzeppelin/contracts/utils/Counters.sol';\r\n\r\ncontract StartupHeroCreator is ERC721 {\r\n  using Counters for Counters.Counter;\r\n  Counters.Counter private _tokenIds;\r\n    \r\n  mapping(address => uint256[]) private userOwnedTokens;\r\n  address public admin;\r\n\r\n  constructor() ERC721('Startup Hero', 'SUP') {\r\n    admin = msg.sender;\r\n  }\r\n\r\n  function mint(address to) external {\r\n    require(msg.sender == admin, 'only admin');\r\n    _tokenIds.increment();\r\n    uint256 newItemId = _tokenIds.current();\r\n    userOwnedTokens[msg.sender].push(newItemId);\r\n    _safeMint(to, newItemId);\r\n\r\n    string memory uri = tokenURI(newItemId);\r\n    uint256 time = block.timestamp;\r\n    \r\n    emit NftMinted(newItemId, uri, time);\r\n  }\r\n  \r\n  function _baseURI() internal override pure returns (string memory) {\r\n    return 'http://localhost:5000/nft/';\r\n  }\r\n  \r\n  function getToken(uint256 index) public view returns (uint256) {\r\n      return userOwnedTokens[msg.sender][index];\r\n  }\r\n\r\n  event NftMinted(uint256 _tid, string _uri, uint256 _time);\r\n}",
  "sourcePath": "D:/Projects/ETB/startupHero/contracts/StartupHeroCreator.sol",
  "compiler": {
    "name": "solc",
    "version": "0.8.9+commit.e5eed63a.Emscripten.clang"
  },
  "schemaVersion": "3.3.2",
  "updatedAt": "2021-10-30T12:59:08.522Z",
  "networkType": "ethereum",
  "devdoc": {
    "kind": "dev",
    "methods": {
      "approve(address,uint256)": {
        "details": "See {IERC721-approve}."
      },
      "balanceOf(address)": {
        "details": "See {IERC721-balanceOf}."
      },
      "getApproved(uint256)": {
        "details": "See {IERC721-getApproved}."
      },
      "isApprovedForAll(address,address)": {
        "details": "See {IERC721-isApprovedForAll}."
      },
      "name()": {
        "details": "See {IERC721Metadata-name}."
      },
      "ownerOf(uint256)": {
        "details": "See {IERC721-ownerOf}."
      },
      "safeTransferFrom(address,address,uint256)": {
        "details": "See {IERC721-safeTransferFrom}."
      },
      "safeTransferFrom(address,address,uint256,bytes)": {
        "details": "See {IERC721-safeTransferFrom}."
      },
      "setApprovalForAll(address,bool)": {
        "details": "See {IERC721-setApprovalForAll}."
      },
      "supportsInterface(bytes4)": {
        "details": "See {IERC165-supportsInterface}."
      },
      "symbol()": {
        "details": "See {IERC721Metadata-symbol}."
      },
      "tokenURI(uint256)": {
        "details": "See {IERC721Metadata-tokenURI}."
      },
      "transferFrom(address,address,uint256)": {
        "details": "See {IERC721-transferFrom}."
      }
    },
    "version": 1
  },
  "userdoc": {
    "kind": "user",
    "methods": {},
    "version": 1
  }
}