{
  "contractName": "StartupHeroCreator",
  "abi": [
    {
      "inputs": [],
      "stateMutability": "nonpayable",
      "type": "constructor"
    },
    {
      "anonymous": false,
      "inputs": [
        {
          "indexed": true,
          "internalType": "address",
          "name": "owner",
          "type": "address"
        },
        {
          "indexed": true,
          "internalType": "address",
          "name": "approved",
          "type": "address"
        },
        {
          "indexed": true,
          "internalType": "uint256",
          "name": "tokenId",
          "type": "uint256"
        }
      ],
      "name": "Approval",
      "type": "event"
    },
    {
      "anonymous": false,
      "inputs": [
        {
          "indexed": true,
          "internalType": "address",
          "name": "owner",
          "type": "address"
        },
        {
          "indexed": true,
          "internalType": "address",
          "name": "operator",
          "type": "address"
        },
        {
          "indexed": false,
          "internalType": "bool",
          "name": "approved",
          "type": "bool"
        }
      ],
      "name": "ApprovalForAll",
      "type": "event"
    },
    {
      "anonymous": false,
      "inputs": [
        {
          "indexed": false,
          "internalType": "uint256",
          "name": "_tid",
          "type": "uint256"
        },
        {
          "indexed": false,
          "internalType": "string",
          "name": "_uri",
          "type": "string"
        },
        {
          "indexed": false,
          "internalType": "uint256",
          "name": "_time",
          "type": "uint256"
        }
      ],
      "name": "NftMinted",
      "type": "event"
    },
    {
      "anonymous": false,
      "inputs": [
        {
          "indexed": true,
          "internalType": "address",
          "name": "from",
          "type": "address"
        },
        {
          "indexed": true,
          "internalType": "address",
          "name": "to",
          "type": "address"
        },
        {
          "indexed": true,
          "internalType": "uint256",
          "name": "tokenId",
          "type": "uint256"
        }
      ],
      "name": "Transfer",
      "type": "event"
    },
    {
      "inputs": [],
      "name": "admin",
      "outputs": [
        {
          "internalType": "address",
          "name": "",
          "type": "address"
        }
      ],
      "stateMutability": "view",
      "type": "function",
      "constant": true
    },
    {
      "inputs": [
        {
          "internalType": "address",
          "name": "to",
          "type": "address"
        },
        {
          "internalType": "uint256",
          "name": "tokenId",
          "type": "uint256"
        }
      ],
      "name": "approve",
      "outputs": [],
      "stateMutability": "nonpayable",
      "type": "function"
    },
    {
      "inputs": [
        {
          "internalType": "address",
          "name": "owner",
          "type": "address"
        }
      ],
      "name": "balanceOf",
      "outputs": [
        {
          "internalType": "uint256",
          "name": "",
          "type": "uint256"
        }
      ],
      "stateMutability": "view",
      "type": "function",
      "constant": true
    },
    {
      "inputs": [
        {
          "internalType": "uint256",
          "name": "tokenId",
          "type": "uint256"
        }
      ],
      "name": "getApproved",
      "outputs": [
        {
          "internalType": "address",
          "name": "",
          "type": "address"
        }
      ],
      "stateMutability": "view",
      "type": "function",
      "constant": true
    },
    {
      "inputs": [
        {
          "internalType": "address",
          "name": "owner",
          "type": "address"
        },
        {
          "internalType": "address",
          "name": "operator",
          "type": "address"
        }
      ],
      "name": "isApprovedForAll",
      "outputs": [
        {
          "internalType": "bool",
          "name": "",
          "type": "bool"
        }
      ],
      "stateMutability": "view",
      "type": "function",
      "constant": true
    },
    {
      "inputs": [],
      "name": "name",
      "outputs": [
        {
          "internalType": "string",
          "name": "",
          "type": "string"
        }
      ],
      "stateMutability": "view",
      "type": "function",
      "constant": true
    },
    {
      "inputs": [
        {
          "internalType": "uint256",
          "name": "tokenId",
          "type": "uint256"
        }
      ],
      "name": "ownerOf",
      "outputs": [
        {
          "internalType": "address",
          "name": "",
          "type": "address"
        }
      ],
      "stateMutability": "view",
      "type": "function",
      "constant": true
    },
    {
      "inputs": [
        {
          "internalType": "address",
          "name": "from",
          "type": "address"
        },
        {
          "internalType": "address",
          "name": "to",
          "type": "address"
        },
        {
          "internalType": "uint256",
          "name": "tokenId",
          "type": "uint256"
        }
      ],
      "name": "safeTransferFrom",
      "outputs": [],
      "stateMutability": "nonpayable",
      "type": "function"
    },
    {
      "inputs": [
        {
          "internalType": "address",
          "name": "from",
          "type": "address"
        },
        {
          "internalType": "address",
          "name": "to",
          "type": "address"
        },
        {
          "internalType": "uint256",
          "name": "tokenId",
          "type": "uint256"
        },
        {
          "internalType": "bytes",
          "name": "_data",
          "type": "bytes"
        }
      ],
      "name": "safeTransferFrom",
      "outputs": [],
      "stateMutability": "nonpayable",
      "type": "function"
    },
    {
      "inputs": [
        {
          "internalType": "address",
          "name": "operator",
          "type": "address"
        },
        {
          "internalType": "bool",
          "name": "approved",
          "type": "bool"
        }
      ],
      "name": "setApprovalForAll",
      "outputs": [],
      "stateMutability": "nonpayable",
      "type": "function"
    },
    {
      "inputs": [
        {
          "internalType": "bytes4",
          "name": "interfaceId",
          "type": "bytes4"
        }
      ],
      "name": "supportsInterface",
      "outputs": [
        {
          "internalType": "bool",
          "name": "",
          "type": "bool"
        }
      ],
      "stateMutability": "view",
      "type": "function",
      "constant": true
    },
    {
      "inputs": [],
      "name": "symbol",
      "outputs": [
        {
          "internalType": "string",
          "name": "",
          "type": "string"
        }
      ],
      "stateMutability": "view",
      "type": "function",
      "constant": true
    },
    {
      "inputs": [
        {
          "internalType": "uint256",
          "name": "tokenId",
          "type": "uint256"
        }
      ],
      "name": "tokenURI",
      "outputs": [
        {
          "internalType": "string",
          "name": "",
          "type": "string"
        }
      ],
      "stateMutability": "view",
      "type": "function",
      "constant": true
    },
    {
      "inputs": [
        {
          "internalType": "address",
          "name": "from",
          "type": "address"
        },
        {
          "internalType": "address",
          "name": "to",
          "type": "address"
        },
        {
          "internalType": "uint256",
          "name": "tokenId",
          "type": "uint256"
        }
      ],
      "name": "transferFrom",
      "outputs": [],
      "stateMutability": "nonpayable",
      "type": "function"
    },
    {
      "inputs": [
        {
          "internalType": "address",
          "name": "to",
          "type": "address"
        }
      ],
      "name": "mint",
      "outputs": [],
      "stateMutability": "nonpayable",
      "type": "function"
    },
    {
      "inputs": [
        {
          "internalType": "uint256",
          "name": "tokenId",
          "type": "uint256"
        },
        {
          "internalType": "uint8",
          "name": "_artist",
          "type": "uint8"
        },
        {
          "internalType": "uint8",
          "name": "_hacker",
          "type": "uint8"
        },
        {
          "internalType": "uint8",
          "name": "_hustler",
          "type": "uint8"
        },
        {
          "internalType": "uint8",
          "name": "_success",
          "type": "uint8"
        }
      ],
      "name": "burn",
      "outputs": [],
      "stateMutability": "nonpayable",
      "type": "function"
    },
    {
      "inputs": [
        {
          "internalType": "uint256",
          "name": "index",
          "type": "uint256"
        }
      ],
      "name": "getToken",
      "outputs": [
        {
          "internalType": "uint256",
          "name": "",
          "type": "uint256"
        }
      ],
      "stateMutability": "view",
      "type": "function",
      "constant": true
    }
  ],
  "bytecode": "0x60806040523480156200001157600080fd5b506040518060400160405280600c81526020017f53746172747570204865726f00000000000000000000000000000000000000008152506040518060400160405280600381526020017f5355500000000000000000000000000000000000000000000000000000000000815250816000908051906020019062000096929190620000f9565b508060019080519060200190620000af929190620000f9565b50505033600960006101000a81548173ffffffffffffffffffffffffffffffffffffffff021916908373ffffffffffffffffffffffffffffffffffffffff1602179055506200020e565b8280546200010790620001d8565b90600052602060002090601f0160209004810192826200012b576000855562000177565b82601f106200014657805160ff191683800117855562000177565b8280016001018555821562000177579182015b828111156200017657825182559160200191906001019062000159565b5b5090506200018691906200018a565b5090565b5b80821115620001a55760008160009055506001016200018b565b5090565b7f4e487b7100000000000000000000000000000000000000000000000000000000600052602260045260246000fd5b60006002820490506001821680620001f157607f821691505b60208210811415620002085762000207620001a9565b5b50919050565b612f17806200021e6000396000f3fe608060405234801561001057600080fd5b506004361061010b5760003560e01c806370a08231116100a2578063b88d4fde11610071578063b88d4fde146102b4578063c87b56dd146102d0578063e4b50cb814610300578063e985e9c514610330578063f851a440146103605761010b565b806370a082311461022e57806395d89b411461025e57806396c71c011461027c578063a22cb465146102985761010b565b806323b872dd116100de57806323b872dd146101aa57806342842e0e146101c65780636352211e146101e25780636a627842146102125761010b565b806301ffc9a71461011057806306fdde0314610140578063081812fc1461015e578063095ea7b31461018e575b600080fd5b61012a60048036038101906101259190611d05565b61037e565b6040516101379190611d4d565b60405180910390f35b610148610460565b6040516101559190611e01565b60405180910390f35b61017860048036038101906101739190611e59565b6104f2565b6040516101859190611ec7565b60405180910390f35b6101a860048036038101906101a39190611f0e565b610577565b005b6101c460048036038101906101bf9190611f4e565b61068f565b005b6101e060048036038101906101db9190611f4e565b6106ef565b005b6101fc60048036038101906101f79190611e59565b61070f565b6040516102099190611ec7565b60405180910390f35b61022c60048036038101906102279190611fa1565b6107c1565b005b61024860048036038101906102439190611fa1565b61092c565b6040516102559190611fdd565b60405180910390f35b6102666109e4565b6040516102739190611e01565b60405180910390f35b61029660048036038101906102919190612031565b610a76565b005b6102b260048036038101906102ad91906120d8565b610cfa565b005b6102ce60048036038101906102c9919061224d565b610e7b565b005b6102ea60048036038101906102e59190611e59565b610edd565b6040516102f79190611e01565b60405180910390f35b61031a60048036038101906103159190611e59565b610f84565b6040516103279190611fdd565b60405180910390f35b61034a600480360381019061034591906122d0565b610fe9565b6040516103579190611d4d565b60405180910390f35b61036861107d565b6040516103759190611ec7565b60405180910390f35b60007f80ac58cd000000000000000000000000000000000000000000000000000000007bffffffffffffffffffffffffffffffffffffffffffffffffffffffff1916827bffffffffffffffffffffffffffffffffffffffffffffffffffffffff1916148061044957507f5b5e139f000000000000000000000000000000000000000000000000000000007bffffffffffffffffffffffffffffffffffffffffffffffffffffffff1916827bffffffffffffffffffffffffffffffffffffffffffffffffffffffff1916145b806104595750610458826110a3565b5b9050919050565b60606000805461046f9061233f565b80601f016020809104026020016040519081016040528092919081815260200182805461049b9061233f565b80156104e85780601f106104bd576101008083540402835291602001916104e8565b820191906000526020600020905b8154815290600101906020018083116104cb57829003601f168201915b5050505050905090565b60006104fd8261110d565b61053c576040517f08c379a0000000000000000000000000000000000000000000000000000000008152600401610533906123e3565b60405180910390fd5b6004600083815260200190815260200160002060009054906101000a900473ffffffffffffffffffffffffffffffffffffffff169050919050565b60006105828261070f565b90508073ffffffffffffffffffffffffffffffffffffffff168373ffffffffffffffffffffffffffffffffffffffff1614156105f3576040517f08c379a00000000000000000000000000000000000000000000000000000000081526004016105ea90612475565b60405180910390fd5b8073ffffffffffffffffffffffffffffffffffffffff16610612611179565b73ffffffffffffffffffffffffffffffffffffffff16148061064157506106408161063b611179565b610fe9565b5b610680576040517f08c379a000000000000000000000000000000000000000000000000000000000815260040161067790612507565b60405180910390fd5b61068a8383611181565b505050565b6106a061069a611179565b8261123a565b6106df576040517f08c379a00000000000000000000000000000000000000000000000000000000081526004016106d690612599565b60405180910390fd5b6106ea838383611318565b505050565b61070a83838360405180602001604052806000815250610e7b565b505050565b6000806002600084815260200190815260200160002060009054906101000a900473ffffffffffffffffffffffffffffffffffffffff169050600073ffffffffffffffffffffffffffffffffffffffff168173ffffffffffffffffffffffffffffffffffffffff1614156107b8576040517f08c379a00000000000000000000000000000000000000000000000000000000081526004016107af9061262b565b60405180910390fd5b80915050919050565b600960009054906101000a900473ffffffffffffffffffffffffffffffffffffffff1673ffffffffffffffffffffffffffffffffffffffff163373ffffffffffffffffffffffffffffffffffffffff1614610851576040517f08c379a000000000000000000000000000000000000000000000000000000000815260040161084890612697565b60405180910390fd5b61085b6006611574565b6000610867600661158a565b9050600860003373ffffffffffffffffffffffffffffffffffffffff1673ffffffffffffffffffffffffffffffffffffffff1681526020019081526020016000208190806001815401808255809150506001900390600052602060002001600090919091909150556108d98282611598565b60006108e482610edd565b905060004290507fa31f79813114a256d7b25634d9e6bfb8efe7e057562207531f80839b7a16666183838360405161091e939291906126b7565b60405180910390a150505050565b60008073ffffffffffffffffffffffffffffffffffffffff168273ffffffffffffffffffffffffffffffffffffffff16141561099d576040517f08c379a000000000000000000000000000000000000000000000000000000000815260040161099490612767565b60405180910390fd5b600360008373ffffffffffffffffffffffffffffffffffffffff1673ffffffffffffffffffffffffffffffffffffffff168152602001908152602001600020549050919050565b6060600180546109f39061233f565b80601f0160208091040260200160405190810160405280929190818152602001828054610a1f9061233f565b8015610a6c5780601f10610a4157610100808354040283529160200191610a6c565b820191906000526020600020905b815481529060010190602001808311610a4f57829003601f168201915b5050505050905090565b600960009054906101000a900473ffffffffffffffffffffffffffffffffffffffff1673ffffffffffffffffffffffffffffffffffffffff163373ffffffffffffffffffffffffffffffffffffffff1614610b06576040517f08c379a0000000000000000000000000000000000000000000000000000000008152600401610afd90612697565b60405180910390fd5b83600760003373ffffffffffffffffffffffffffffffffffffffff1673ffffffffffffffffffffffffffffffffffffffff16815260200190815260200160002060000160008282829054906101000a900460ff16610b6491906127b6565b92506101000a81548160ff021916908360ff16021790555082600760003373ffffffffffffffffffffffffffffffffffffffff1673ffffffffffffffffffffffffffffffffffffffff16815260200190815260200160002060000160018282829054906101000a900460ff16610bda91906127b6565b92506101000a81548160ff021916908360ff16021790555081600760003373ffffffffffffffffffffffffffffffffffffffff1673ffffffffffffffffffffffffffffffffffffffff16815260200190815260200160002060000160028282829054906101000a900460ff16610c5091906127b6565b92506101000a81548160ff021916908360ff160217905550600181610c7591906127b6565b600760003373ffffffffffffffffffffffffffffffffffffffff1673ffffffffffffffffffffffffffffffffffffffff16815260200190815260200160002060000160038282829054906101000a900460ff16610cd291906127b6565b92506101000a81548160ff021916908360ff160217905550610cf3856115b6565b5050505050565b610d02611179565b73ffffffffffffffffffffffffffffffffffffffff168273ffffffffffffffffffffffffffffffffffffffff161415610d70576040517f08c379a0000000000000000000000000000000000000000000000000000000008152600401610d6790612839565b60405180910390fd5b8060056000610d7d611179565b73ffffffffffffffffffffffffffffffffffffffff1673ffffffffffffffffffffffffffffffffffffffff16815260200190815260200160002060008473ffffffffffffffffffffffffffffffffffffffff1673ffffffffffffffffffffffffffffffffffffffff16815260200190815260200160002060006101000a81548160ff0219169083151502179055508173ffffffffffffffffffffffffffffffffffffffff16610e2a611179565b73ffffffffffffffffffffffffffffffffffffffff167f17307eab39ab6107e8899845ad3d59bd9653f200f220920489ca2b5937696c3183604051610e6f9190611d4d565b60405180910390a35050565b610e8c610e86611179565b8361123a565b610ecb576040517f08c379a0000000000000000000000000000000000000000000000000000000008152600401610ec290612599565b60405180910390fd5b610ed7848484846116c7565b50505050565b6060610ee88261110d565b610f27576040517f08c379a0000000000000000000000000000000000000000000000000000000008152600401610f1e906128cb565b60405180910390fd5b6000610f31611723565b90506000815111610f515760405180602001604052806000815250610f7c565b80610f5b84611760565b604051602001610f6c929190612927565b6040516020818303038152906040525b915050919050565b6000600860003373ffffffffffffffffffffffffffffffffffffffff1673ffffffffffffffffffffffffffffffffffffffff1681526020019081526020016000208281548110610fd757610fd661294b565b5b90600052602060002001549050919050565b6000600560008473ffffffffffffffffffffffffffffffffffffffff1673ffffffffffffffffffffffffffffffffffffffff16815260200190815260200160002060008373ffffffffffffffffffffffffffffffffffffffff1673ffffffffffffffffffffffffffffffffffffffff16815260200190815260200160002060009054906101000a900460ff16905092915050565b600960009054906101000a900473ffffffffffffffffffffffffffffffffffffffff1681565b60007f01ffc9a7000000000000000000000000000000000000000000000000000000007bffffffffffffffffffffffffffffffffffffffffffffffffffffffff1916827bffffffffffffffffffffffffffffffffffffffffffffffffffffffff1916149050919050565b60008073ffffffffffffffffffffffffffffffffffffffff166002600084815260200190815260200160002060009054906101000a900473ffffffffffffffffffffffffffffffffffffffff1673ffffffffffffffffffffffffffffffffffffffff1614159050919050565b600033905090565b816004600083815260200190815260200160002060006101000a81548173ffffffffffffffffffffffffffffffffffffffff021916908373ffffffffffffffffffffffffffffffffffffffff160217905550808273ffffffffffffffffffffffffffffffffffffffff166111f48361070f565b73ffffffffffffffffffffffffffffffffffffffff167f8c5be1e5ebec7d5bd14f71427d1e84f3dd0314c0f7b2291e5b200ac8c7c3b92560405160405180910390a45050565b60006112458261110d565b611284576040517f08c379a000000000000000000000000000000000000000000000000000000000815260040161127b906129ec565b60405180910390fd5b600061128f8361070f565b90508073ffffffffffffffffffffffffffffffffffffffff168473ffffffffffffffffffffffffffffffffffffffff1614806112fe57508373ffffffffffffffffffffffffffffffffffffffff166112e6846104f2565b73ffffffffffffffffffffffffffffffffffffffff16145b8061130f575061130e8185610fe9565b5b91505092915050565b8273ffffffffffffffffffffffffffffffffffffffff166113388261070f565b73ffffffffffffffffffffffffffffffffffffffff161461138e576040517f08c379a000000000000000000000000000000000000000000000000000000000815260040161138590612a7e565b60405180910390fd5b600073ffffffffffffffffffffffffffffffffffffffff168273ffffffffffffffffffffffffffffffffffffffff1614156113fe576040517f08c379a00000000000000000000000000000000000000000000000000000000081526004016113f590612b10565b60405180910390fd5b6114098383836118c1565b611414600082611181565b6001600360008573ffffffffffffffffffffffffffffffffffffffff1673ffffffffffffffffffffffffffffffffffffffff16815260200190815260200160002060008282546114649190612b30565b925050819055506001600360008473ffffffffffffffffffffffffffffffffffffffff1673ffffffffffffffffffffffffffffffffffffffff16815260200190815260200160002060008282546114bb9190612b64565b92505081905550816002600083815260200190815260200160002060006101000a81548173ffffffffffffffffffffffffffffffffffffffff021916908373ffffffffffffffffffffffffffffffffffffffff160217905550808273ffffffffffffffffffffffffffffffffffffffff168473ffffffffffffffffffffffffffffffffffffffff167fddf252ad1be2c89b69c2b068fc378daa952ba7f163c4a11628f55a4df523b3ef60405160405180910390a4505050565b6001816000016000828254019250508190555050565b600081600001549050919050565b6115b28282604051806020016040528060008152506118c6565b5050565b60006115c18261070f565b90506115cf816000846118c1565b6115da600083611181565b6001600360008373ffffffffffffffffffffffffffffffffffffffff1673ffffffffffffffffffffffffffffffffffffffff168152602001908152602001600020600082825461162a9190612b30565b925050819055506002600083815260200190815260200160002060006101000a81549073ffffffffffffffffffffffffffffffffffffffff021916905581600073ffffffffffffffffffffffffffffffffffffffff168273ffffffffffffffffffffffffffffffffffffffff167fddf252ad1be2c89b69c2b068fc378daa952ba7f163c4a11628f55a4df523b3ef60405160405180910390a45050565b6116d2848484611318565b6116de84848484611921565b61171d576040517f08c379a000000000000000000000000000000000000000000000000000000000815260040161171490612c2c565b60405180910390fd5b50505050565b60606040518060400160405280601a81526020017f687474703a2f2f6c6f63616c686f73743a353030302f6e66742f000000000000815250905090565b606060008214156117a8576040518060400160405280600181526020017f300000000000000000000000000000000000000000000000000000000000000081525090506118bc565b600082905060005b600082146117da5780806117c390612c4c565b915050600a826117d39190612cc4565b91506117b0565b60008167ffffffffffffffff8111156117f6576117f5612122565b5b6040519080825280601f01601f1916602001820160405280156118285781602001600182028036833780820191505090505b5090505b600085146118b5576001826118419190612b30565b9150600a856118509190612cf5565b603061185c9190612b64565b60f81b8183815181106118725761187161294b565b5b60200101907effffffffffffffffffffffffffffffffffffffffffffffffffffffffffffff1916908160001a905350600a856118ae9190612cc4565b945061182c565b8093505050505b919050565b505050565b6118d08383611ab8565b6118dd6000848484611921565b61191c576040517f08c379a000000000000000000000000000000000000000000000000000000000815260040161191390612c2c565b60405180910390fd5b505050565b60006119428473ffffffffffffffffffffffffffffffffffffffff16611c86565b15611aab578373ffffffffffffffffffffffffffffffffffffffff1663150b7a0261196b611179565b8786866040518563ffffffff1660e01b815260040161198d9493929190612d7b565b602060405180830381600087803b1580156119a757600080fd5b505af19250505080156119d857506040513d601f19601f820116820180604052508101906119d59190612ddc565b60015b611a5b573d8060008114611a08576040519150601f19603f3d011682016040523d82523d6000602084013e611a0d565b606091505b50600081511415611a53576040517f08c379a0000000000000000000000000000000000000000000000000000000008152600401611a4a90612c2c565b60405180910390fd5b805181602001fd5b63150b7a0260e01b7bffffffffffffffffffffffffffffffffffffffffffffffffffffffff1916817bffffffffffffffffffffffffffffffffffffffffffffffffffffffff191614915050611ab0565b600190505b949350505050565b600073ffffffffffffffffffffffffffffffffffffffff168273ffffffffffffffffffffffffffffffffffffffff161415611b28576040517f08c379a0000000000000000000000000000000000000000000000000000000008152600401611b1f90612e55565b60405180910390fd5b611b318161110d565b15611b71576040517f08c379a0000000000000000000000000000000000000000000000000000000008152600401611b6890612ec1565b60405180910390fd5b611b7d600083836118c1565b6001600360008473ffffffffffffffffffffffffffffffffffffffff1673ffffffffffffffffffffffffffffffffffffffff1681526020019081526020016000206000828254611bcd9190612b64565b92505081905550816002600083815260200190815260200160002060006101000a81548173ffffffffffffffffffffffffffffffffffffffff021916908373ffffffffffffffffffffffffffffffffffffffff160217905550808273ffffffffffffffffffffffffffffffffffffffff16600073ffffffffffffffffffffffffffffffffffffffff167fddf252ad1be2c89b69c2b068fc378daa952ba7f163c4a11628f55a4df523b3ef60405160405180910390a45050565b600080823b905060008111915050919050565b6000604051905090565b600080fd5b600080fd5b60007fffffffff0000000000000000000000000000000000000000000000000000000082169050919050565b611ce281611cad565b8114611ced57600080fd5b50565b600081359050611cff81611cd9565b92915050565b600060208284031215611d1b57611d1a611ca3565b5b6000611d2984828501611cf0565b91505092915050565b60008115159050919050565b611d4781611d32565b82525050565b6000602082019050611d626000830184611d3e565b92915050565b600081519050919050565b600082825260208201905092915050565b60005b83811015611da2578082015181840152602081019050611d87565b83811115611db1576000848401525b50505050565b6000601f19601f8301169050919050565b6000611dd382611d68565b611ddd8185611d73565b9350611ded818560208601611d84565b611df681611db7565b840191505092915050565b60006020820190508181036000830152611e1b8184611dc8565b905092915050565b6000819050919050565b611e3681611e23565b8114611e4157600080fd5b50565b600081359050611e5381611e2d565b92915050565b600060208284031215611e6f57611e6e611ca3565b5b6000611e7d84828501611e44565b91505092915050565b600073ffffffffffffffffffffffffffffffffffffffff82169050919050565b6000611eb182611e86565b9050919050565b611ec181611ea6565b82525050565b6000602082019050611edc6000830184611eb8565b92915050565b611eeb81611ea6565b8114611ef657600080fd5b50565b600081359050611f0881611ee2565b92915050565b60008060408385031215611f2557611f24611ca3565b5b6000611f3385828601611ef9565b9250506020611f4485828601611e44565b9150509250929050565b600080600060608486031215611f6757611f66611ca3565b5b6000611f7586828701611ef9565b9350506020611f8686828701611ef9565b9250506040611f9786828701611e44565b9150509250925092565b600060208284031215611fb757611fb6611ca3565b5b6000611fc584828501611ef9565b91505092915050565b611fd781611e23565b82525050565b6000602082019050611ff26000830184611fce565b92915050565b600060ff82169050919050565b61200e81611ff8565b811461201957600080fd5b50565b60008135905061202b81612005565b92915050565b600080600080600060a0868803121561204d5761204c611ca3565b5b600061205b88828901611e44565b955050602061206c8882890161201c565b945050604061207d8882890161201c565b935050606061208e8882890161201c565b925050608061209f8882890161201c565b9150509295509295909350565b6120b581611d32565b81146120c057600080fd5b50565b6000813590506120d2816120ac565b92915050565b600080604083850312156120ef576120ee611ca3565b5b60006120fd85828601611ef9565b925050602061210e858286016120c3565b9150509250929050565b600080fd5b600080fd5b7f4e487b7100000000000000000000000000000000000000000000000000000000600052604160045260246000fd5b61215a82611db7565b810181811067ffffffffffffffff8211171561217957612178612122565b5b80604052505050565b600061218c611c99565b90506121988282612151565b919050565b600067ffffffffffffffff8211156121b8576121b7612122565b5b6121c182611db7565b9050602081019050919050565b82818337600083830152505050565b60006121f06121eb8461219d565b612182565b90508281526020810184848401111561220c5761220b61211d565b5b6122178482856121ce565b509392505050565b600082601f83011261223457612233612118565b5b81356122448482602086016121dd565b91505092915050565b6000806000806080858703121561226757612266611ca3565b5b600061227587828801611ef9565b945050602061228687828801611ef9565b935050604061229787828801611e44565b925050606085013567ffffffffffffffff8111156122b8576122b7611ca8565b5b6122c48782880161221f565b91505092959194509250565b600080604083850312156122e7576122e6611ca3565b5b60006122f585828601611ef9565b925050602061230685828601611ef9565b9150509250929050565b7f4e487b7100000000000000000000000000000000000000000000000000000000600052602260045260246000fd5b6000600282049050600182168061235757607f821691505b6020821081141561236b5761236a612310565b5b50919050565b7f4552433732313a20617070726f76656420717565727920666f72206e6f6e657860008201527f697374656e7420746f6b656e0000000000000000000000000000000000000000602082015250565b60006123cd602c83611d73565b91506123d882612371565b604082019050919050565b600060208201905081810360008301526123fc816123c0565b9050919050565b7f4552433732313a20617070726f76616c20746f2063757272656e74206f776e6560008201527f7200000000000000000000000000000000000000000000000000000000000000602082015250565b600061245f602183611d73565b915061246a82612403565b604082019050919050565b6000602082019050818103600083015261248e81612452565b9050919050565b7f4552433732313a20617070726f76652063616c6c6572206973206e6f74206f7760008201527f6e6572206e6f7220617070726f76656420666f7220616c6c0000000000000000602082015250565b60006124f1603883611d73565b91506124fc82612495565b604082019050919050565b60006020820190508181036000830152612520816124e4565b9050919050565b7f4552433732313a207472616e736665722063616c6c6572206973206e6f74206f60008201527f776e6572206e6f7220617070726f766564000000000000000000000000000000602082015250565b6000612583603183611d73565b915061258e82612527565b604082019050919050565b600060208201905081810360008301526125b281612576565b9050919050565b7f4552433732313a206f776e657220717565727920666f72206e6f6e657869737460008201527f656e7420746f6b656e0000000000000000000000000000000000000000000000602082015250565b6000612615602983611d73565b9150612620826125b9565b604082019050919050565b6000602082019050818103600083015261264481612608565b9050919050565b7f4f6e6c79207468652061646d696e2063616e20646f2074686973000000000000600082015250565b6000612681601a83611d73565b915061268c8261264b565b602082019050919050565b600060208201905081810360008301526126b081612674565b9050919050565b60006060820190506126cc6000830186611fce565b81810360208301526126de8185611dc8565b90506126ed6040830184611fce565b949350505050565b7f4552433732313a2062616c616e636520717565727920666f7220746865207a6560008201527f726f206164647265737300000000000000000000000000000000000000000000602082015250565b6000612751602a83611d73565b915061275c826126f5565b604082019050919050565b6000602082019050818103600083015261278081612744565b9050919050565b7f4e487b7100000000000000000000000000000000000000000000000000000000600052601160045260246000fd5b60006127c182611ff8565b91506127cc83611ff8565b92508260ff038211156127e2576127e1612787565b5b828201905092915050565b7f4552433732313a20617070726f766520746f2063616c6c657200000000000000600082015250565b6000612823601983611d73565b915061282e826127ed565b602082019050919050565b6000602082019050818103600083015261285281612816565b9050919050565b7f4552433732314d657461646174613a2055524920717565727920666f72206e6f60008201527f6e6578697374656e7420746f6b656e0000000000000000000000000000000000602082015250565b60006128b5602f83611d73565b91506128c082612859565b604082019050919050565b600060208201905081810360008301526128e4816128a8565b9050919050565b600081905092915050565b600061290182611d68565b61290b81856128eb565b935061291b818560208601611d84565b80840191505092915050565b600061293382856128f6565b915061293f82846128f6565b91508190509392505050565b7f4e487b7100000000000000000000000000000000000000000000000000000000600052603260045260246000fd5b7f4552433732313a206f70657261746f7220717565727920666f72206e6f6e657860008201527f697374656e7420746f6b656e0000000000000000000000000000000000000000602082015250565b60006129d6602c83611d73565b91506129e18261297a565b604082019050919050565b60006020820190508181036000830152612a05816129c9565b9050919050565b7f4552433732313a207472616e73666572206f6620746f6b656e2074686174206960008201527f73206e6f74206f776e0000000000000000000000000000000000000000000000602082015250565b6000612a68602983611d73565b9150612a7382612a0c565b604082019050919050565b60006020820190508181036000830152612a9781612a5b565b9050919050565b7f4552433732313a207472616e7366657220746f20746865207a65726f2061646460008201527f7265737300000000000000000000000000000000000000000000000000000000602082015250565b6000612afa602483611d73565b9150612b0582612a9e565b604082019050919050565b60006020820190508181036000830152612b2981612aed565b9050919050565b6000612b3b82611e23565b9150612b4683611e23565b925082821015612b5957612b58612787565b5b828203905092915050565b6000612b6f82611e23565b9150612b7a83611e23565b9250827fffffffffffffffffffffffffffffffffffffffffffffffffffffffffffffffff03821115612baf57612bae612787565b5b828201905092915050565b7f4552433732313a207472616e7366657220746f206e6f6e20455243373231526560008201527f63656976657220696d706c656d656e7465720000000000000000000000000000602082015250565b6000612c16603283611d73565b9150612c2182612bba565b604082019050919050565b60006020820190508181036000830152612c4581612c09565b9050919050565b6000612c5782611e23565b91507fffffffffffffffffffffffffffffffffffffffffffffffffffffffffffffffff821415612c8a57612c89612787565b5b600182019050919050565b7f4e487b7100000000000000000000000000000000000000000000000000000000600052601260045260246000fd5b6000612ccf82611e23565b9150612cda83611e23565b925082612cea57612ce9612c95565b5b828204905092915050565b6000612d0082611e23565b9150612d0b83611e23565b925082612d1b57612d1a612c95565b5b828206905092915050565b600081519050919050565b600082825260208201905092915050565b6000612d4d82612d26565b612d578185612d31565b9350612d67818560208601611d84565b612d7081611db7565b840191505092915050565b6000608082019050612d906000830187611eb8565b612d9d6020830186611eb8565b612daa6040830185611fce565b8181036060830152612dbc8184612d42565b905095945050505050565b600081519050612dd681611cd9565b92915050565b600060208284031215612df257612df1611ca3565b5b6000612e0084828501612dc7565b91505092915050565b7f4552433732313a206d696e7420746f20746865207a65726f2061646472657373600082015250565b6000612e3f602083611d73565b9150612e4a82612e09565b602082019050919050565b60006020820190508181036000830152612e6e81612e32565b9050919050565b7f4552433732313a20746f6b656e20616c7265616479206d696e74656400000000600082015250565b6000612eab601c83611d73565b9150612eb682612e75565b602082019050919050565b60006020820190508181036000830152612eda81612e9e565b905091905056fea2646970667358221220163f6da17d8da9575b091192e8c2d7e4d3a5a7ba547c210a6e4f4d5a1fad580c64736f6c63430008090033",
  "immutableReferences": {},
  "source": "// SPDX-License-Identifier: MIT\r\npragma solidity ^0.8.0;\r\n\r\nimport '@openzeppelin/contracts/token/ERC721/ERC721.sol';\r\nimport '@openzeppelin/contracts/utils/Counters.sol';\r\n\r\ncontract StartupHeroCreator is ERC721 {\r\n  using Counters for Counters.Counter;\r\n  Counters.Counter private _tokenIds;\r\n\r\n  struct attributes {\r\n    uint8 artist;\r\n    uint8 hacker;\r\n    uint8 hustler;\r\n    uint8 success;\r\n  }\r\n  mapping(address => attributes) private userStoredAttributes;\r\n    \r\n  mapping(address => uint256[]) private userOwnedTokens;\r\n  address public admin;\r\n\r\n  constructor() ERC721('Startup Hero', 'SUP') {\r\n    admin = msg.sender;\r\n  }\r\n\r\n  function mint(address to) onlyAdmin() external {\r\n    _tokenIds.increment();\r\n    uint256 newItemId = _tokenIds.current();\r\n    userOwnedTokens[msg.sender].push(newItemId);\r\n    _safeMint(to, newItemId);\r\n\r\n    string memory uri = tokenURI(newItemId);\r\n    uint256 time = block.timestamp;\r\n    \r\n    emit NftMinted(newItemId, uri, time);\r\n  }\r\n\r\n\r\n\r\n  /**\r\n   * Merging 2 NFTs together creates a new one and sends\r\n   * The NFTs used in the process are sent back to the Contract\r\n  */\r\n  // function merge(address to, uint256 tid_1, uint256 tid_2) onlyAdmin() external {\r\n  //   _tokenIds.increment();\r\n  //   uint256 newItemId = _tokenIds.current();\r\n  //   userOwnedTokens[msg.sender].push(newItemId);\r\n  //   _safeMint(to, newItemId);\r\n\r\n  //   string memory uri = tokenURI(newItemId);\r\n  //   uint256 time = block.timestamp;\r\n\r\n  //   // Burn tokens used in merge\r\n  //   burn(tid_1);\r\n  //   burn(tid_2);\r\n    \r\n  //   emit NftMinted(newItemId, uri, time);\r\n  // }\r\n\r\n  function burn(uint256 tokenId, uint8 _artist, uint8 _hacker, uint8 _hustler, uint8 _success) onlyAdmin() public {\r\n    userStoredAttributes[msg.sender].artist += _artist;\r\n    userStoredAttributes[msg.sender].hacker += _hacker;\r\n    userStoredAttributes[msg.sender].hustler += _hustler;\r\n    userStoredAttributes[msg.sender].success += _success + 1;\r\n    _burn(tokenId);\r\n  }\r\n\r\n  function _baseURI() internal override pure returns (string memory) {\r\n    return 'http://localhost:5000/nft/';\r\n  }\r\n  \r\n  function getToken(uint256 index) public view returns (uint256) {\r\n      return userOwnedTokens[msg.sender][index];\r\n  }\r\n\r\n  modifier onlyAdmin {\r\n      require(msg.sender == admin, \"Only the admin can do this\");\r\n      _;\r\n  }\r\n\r\n  event NftMinted(uint256 _tid, string _uri, uint256 _time);\r\n}",
  "sourcePath": "D:/Projects/ETB/startupHero/contracts/StartupHeroCreator.sol",
  "compiler": {
    "name": "solc",
    "version": "0.8.9+commit.e5eed63a.Emscripten.clang"
  },
  "schemaVersion": "3.3.2",
  "updatedAt": "2021-11-02T17:06:21.047Z",
  "networkType": "ethereum",
  "devdoc": {
    "kind": "dev",
    "methods": {
      "approve(address,uint256)": {
        "details": "See {IERC721-approve}."
      },
      "balanceOf(address)": {
        "details": "See {IERC721-balanceOf}."
      },
      "getApproved(uint256)": {
        "details": "See {IERC721-getApproved}."
      },
      "isApprovedForAll(address,address)": {
        "details": "See {IERC721-isApprovedForAll}."
      },
      "name()": {
        "details": "See {IERC721Metadata-name}."
      },
      "ownerOf(uint256)": {
        "details": "See {IERC721-ownerOf}."
      },
      "safeTransferFrom(address,address,uint256)": {
        "details": "See {IERC721-safeTransferFrom}."
      },
      "safeTransferFrom(address,address,uint256,bytes)": {
        "details": "See {IERC721-safeTransferFrom}."
      },
      "setApprovalForAll(address,bool)": {
        "details": "See {IERC721-setApprovalForAll}."
      },
      "supportsInterface(bytes4)": {
        "details": "See {IERC165-supportsInterface}."
      },
      "symbol()": {
        "details": "See {IERC721Metadata-symbol}."
      },
      "tokenURI(uint256)": {
        "details": "See {IERC721Metadata-tokenURI}."
      },
      "transferFrom(address,address,uint256)": {
        "details": "See {IERC721-transferFrom}."
      }
    },
    "version": 1
  },
  "userdoc": {
    "kind": "user",
    "methods": {
      "burn(uint256,uint8,uint8,uint8,uint8)": {
        "notice": "Merging 2 NFTs together creates a new one and sends The NFTs used in the process are sent back to the Contract"
      }
    },
    "version": 1
  }
}